:020000040800F2
:10000000F00D002005010008CB4400082B4000083B
:10001000C94400083D22000889540008000000007F
:1000200000000000000000000000000085450008FE
:100030007722000800000000CD440008114C0008A1
:100040001F0100081F0100081F0100081F01000810
:100050001F0100081F0100081F0100081F01000800
:100060001F0100081F0100081F01000841220008AD
:100070001F0100081F0100081F0100081F010008E0
:100080001F0100081F010008D91D00081F010008FA
:100090001F0100081F0100081F0100081F010008C0
:1000A0001F0100081F0100081F0100081F010008B0
:1000B0001F010008914C00081F0100081F010008E3
:1000C0001F0100081F0100081F0100081F01000890
:1000D0001F010008F95300081F0100081F01000854
:1000E0001F0100081F0100081F010008DFF810D0E1
:1000F00000F090FB0048004769620008AFF3008001
:10010000F00D00200648804706480047FEE7FEE75E
:10011000FEE7FEE7FEE7FEE7FEE7FEE7FEE7FEE7B7
:100120008D4C0008ED000008202A04DB203A21FA5B
:1001300002F00021704721FA02F3D040C2F1200200
:100140009140084319467047D2B201E000F8012BF4
:10015000491EFBD270470022F6E710B513460A4647
:1001600004461946FFF7F0FF204610BDF0B480EAC0
:100170000102D40F4200B2EB410F02D20246084600
:1001800011464A0042D0C30DDDB2C1F3C752AD1AC9
:10019000202D35DAC1F3160141F4000204B15242B8
:1001A000C5F1200602FA06F12A411044B3EBD05FF4
:1001B00023D0C4B1012DA0EBC35009DCF0BC4FF03B
:1001C000004202EAC352DBB200F5000000F03CB985
:1001D000400000F1807000EBC350A0F1807040EA55
:1001E000D170490009E0490841EAC071A0EBC35051
:1001F00000F50000400800EBC350F0BC00F01BB954
:100200006142012202EB4101001BF6E7F0BC70479E
:1002100081F00041AAE780F00040A7E780EA0102F0
:1002200010B502F00043400022D04A001FD0010E5A
:1002300001EB1261C0F35600C2F3560240F4000015
:1002400042F40002A0FB022000047F39140400D015
:10025000401C50EA124001D44000491EC2B20C06B4
:1002600004EBD010401C4008802A02D003E000209C
:1002700010BD20F00100002900DA0020184310BD55
:1002800030B480EA010202F0004530F0004221F073
:10029000004013D090B1C30DD40DC2F31601C0F3CA
:1002A0001600E41A41F4000140F400027D3491424A
:1002B00001D3641C00E04900002C02DA30BC0020AD
:1002C00070474FF400000023914201D3891A034381
:1002D00040084FEA4101F7D151B1914202D14FF0AC
:1002E000004105E002D24FF0010101E06FF0010191
:1002F00003EBC450284430BC00F09DB8420005D048
:10030000C0F3C7525242914201DC0020704700EB1B
:10031000C1507047C10F80EAE0700844CA079623B5
:10032000002100F091B896230022114600F08CB80D
:1003300020F00040C10DC0F3160040F400007F29FA
:1003400001DA00207047962903DCC1F19601C8400C
:10035000704796398840704700F0004230F0004006
:100360000AD0C10D01F56071C0F3160042EA0151D7
:10037000C208400711437047002001467047000043
:10038000002801DBC0F10040002901DBC1F1004180
:1003900081427047002801DBC0F10040002901DBE9
:1003A000C1F100418842704730B50B46014600203C
:1003B0002022012409E021FA02F59D4205D303FA27
:1003C00002F5491B04FA02F52844151EA2F10102A8
:1003D000F1DC30BD2DE9F05F0546002092469B46DA
:1003E00088460646814640241BE02846414647464B
:1003F0002246FFF799FE53465A46C01A914110D340
:1004000011461846224600F017FA2D1A67EB01082C
:100410004F4622460120002100F00EFA17EB00099A
:100420004E41201EA4F10104DFDC484631462A4635
:100430004346BDE8F09F0029A8BF7047401C490013
:1004400008BF20F00100704710B4B0FA80FC00FA39
:100450000CF050EA010404BF10BC704749B1CCF164
:10046000200421FA04F411FA0CF118BF01212143F0
:100470000843A3EB0C01CB1D4FEA00614FEA1020AB
:1004800042BF002010BC704700EBC350104400294D
:10049000A4BF10BC7047401C490008BF20F00100F9
:1004A00010BC70472DE9FE4F804681EA0300C00F63
:1004B0000C46009021F0004123F00045B8EB02000B
:1004C000A94105D24046214690461C460B460246AD
:1004D00023F00040104347D0270DC7F30A00C3F3B1
:1004E0000A510290401A019040286BDAC3F31300BE
:1004F00040F4801B0098924620B10023D2EB030AFF
:1005000063EB0B0B01985946C0F14002504600F0D6
:1005100093F906460D4650465946019A00F09BF95C
:1005200010EB08006141002487EA115284EAE77366
:100530001A4340D0009A62B3019A012A4FEA075247
:1005400015DC001B61EB02014FF0004202EA07528A
:10055000CDE90042001C41F5801132462B4600F0E7
:100560009BF903B0BDE8F08F40462146F9E7001B38
:1005700061EB0201001C41F5801300185B4120185B
:10058000A2F5001747EB030140EAD570B6196D419B
:1005900011E06D084FEA360645EAC0754FEA07528A
:1005A000001B61EB0201001C41F5801149084FEA74
:1005B00030000019514132462B4603B0BDE8F04FE0
:1005C00000F05BB90098012240000023D0EB02024A
:1005D00063EBE073009821464FEAE074B8EB00004B
:1005E00061EB0401E9E783F000435BE781F0004140
:1005F00058E72DE9FE4F81EA030404F0004421F09E
:10060000004100944FF0000B23F0004350EA010436
:100610005ED052EA03045BD0C3F30A54C1F30A5517
:100620002C44A4F2F3340194A0FB0254C1F313014F
:1006300041F48011C3F3130343F4801301FB02441C
:1006400000FB034E840A970A44EA815447EA835721
:10065000A4FB076802958D0A05FB07854FEA932CDA
:1006600004FB0C542705029D4FEA065847EA16374B
:10067000B5EB08056EEB070C870E920E47EA811763
:1006800042EA8312A7FB0201B6EB0B0164EB000404
:100690002B0D43EA0C335E1844EB1C50DA465146EE
:1006A000E7FB0201C5F313044FEA0B3343EA14538B
:1006B0004FEA0432019C43EA0603A4F10C040294BD
:1006C000009CCDE900B400F0E7F803B0BDE8F08F7E
:1006D00000200146F9E72DE9F04D81EA030404F01A
:1006E000004B21F0004514464FF0000A23F0004172
:1006F00050EA050220D054EA01021DD0C5F30A5782
:100700000246C5F31303C1F31300C1F30A5640F4C4
:10071000801543F48013A7EB0608101BD64608F299
:10072000FD3873EB050002D308F1010801E09218CF
:100730005B41B8F1000F03DA00200146BDE8F08DFF
:1007400000204FF48011064684460EE0171B73EB21
:10075000050705D3121B63EB050306434CEA010CA6
:1007600049084FEA300092185B4150EA0107EDD189
:1007700052EA030012D082EA040083EA050108432A
:1007800005D0101BAB4106D20122002306E0002257
:100790004FF0004302E06FF0010253101AEB060025
:1007A0004CEB085110EB0A0041EB0B01BDE8F04D9A
:1007B00000F063B8C1F30A52C1F3130140F2FF33F2
:1007C00041F480119A4202DA00200146704740F25B
:1007D00033439A42A2F2334202DC5242FFF7A4BCF6
:1007E00000F02AB830B5041E71F1000404DB4FF0AC
:1007F0000044404264EB0101141E73F1000405DB68
:100800001C464FF00043524263EB0403994208BF79
:10081000904230BD064C074D06E0E06840F0010311
:1008200094E8070098471034AC42F6D3FFF762FC17
:100830007471000894710008202A04DB203A00FA41
:1008400002F1002070479140C2F1200320FA03F327
:10085000194390407047202A06DBCB17203A41FA13
:1008600002F043EAE07306E041FA02F3D040C2F13D
:100870002002914008431946704710B5141E73F1C9
:10088000000408DA401C41F1000192185B411A4350
:1008900001D120F0010010BD2DE9F04D92469B469C
:1008A00011B1B1FA81F202E0B0FA80F22032904642
:1008B000FFF7C2FF04460F4640EA0A0041EA0B0177
:1008C00053465A46084313D0114653EA010019D043
:1008D000C8F140025046FFF727FC05460E46504639
:1008E00059464246FFF7A8FF084305D0012004E01F
:1008F00020463946BDE8F08D0020054346EAE07603
:100900002C4337430A986305E40AA0EB0800002251
:10091000FD0A44EA47540A3002D500200146E9E7BF
:10092000010510196941DDE9084500196941BDE873
:10093000F04DA2E780B5016890F83820097C406B43
:100940005143C900FFF707FC80BD00002DE9F04FBF
:1009500081B0DDF82880064603EB010A08EB0200AF
:10096000994684B21FFA8AF3304617460D46009422
:1009700000F094F988B30024304629463A464B46A5
:10098000009400F069F8B8F1020F26D3A8F1020B29
:100990005FEA0B4007F1010717D0BCB21FFA8BF8D2
:1009A0004FF0010C3046294622464346CDF800C0A0
:1009B00000F052F8AAF1010081B2304622464346C7
:1009C0000124009400F048F85F440024BAB2304695
:1009D00029464B46009400F03FF801B0BDE8F08F87
:1009E00070B582B0ABB38C4690F88C1089B3B0F878
:1009F0004C1091422DD8B0F84E10914229D9B0F840
:100A00004810B0F84AE003EB0C05AEB2E6450C46E0
:100A100088BF6446AE4208BF6446E6452B4688BFA1
:100A2000AEF10103AE4208BF3346744511D21FFA3E
:100A300083FC8C450DD98C4288BF2146036BF4455D
:100A400038BFE6469E68AEEB010300259BB20095D9
:100A5000B04702B070BD000070B582B0002B7CD0F2
:100A600090F88CC0BCF1000F77D0DDF818C0022BD5
:100A700008D3BCF1030F39D0BCF1020F02D1C91A5F
:100A8000013102E05FEACC7C32D1B0F84CC0944531
:100A900063D8B0F84EC094455FD9B0F848C0B0F8FC
:100AA0004AE08CB2E5186346AEB2744538BF0B46D7
:100AB000AE4208BF0B4699B274452B4638BFAEF123
:100AC0000103AE4208BF3346714546D29BB263452F
:100AD00043D9614588BF8C46734538BF9E46AEEB0F
:100AE0000C034FF0000E614631E000BFD21A013214
:100AF000B0F848608E4230D8B0F84A608E422CD9A7
:100B0000B0F84CC0B0F84EE094B2E5186346AEB20F
:100B1000744538BF1346AE4208BF13469AB27445B7
:100B20002B4638BFAEF10103AE4208BF33467245D3
:100B300013D29BB2634510D9624588BF9446734572
:100B400038BF9E46AEEB0C034FF0010E6246066BBB
:100B50009BB2B668CDF800E0B04702B070BD0000AF
:100B60002DE9F04F81B00A9FB3EB010A38BFA1EB2A
:100B7000030ABE1A1FFA8AFC38BFD61B1FFA86FE6C
:100B8000E64509D915463A46009695420DD82C46B9
:100B90000F46154619460AE00D4611461A463B46D1
:100BA000CDF800A0B2469542F1D914461F464FF049
:100BB000FF3BB9424FF6FE7688BF4FF0010BB542BE
:100BC00038BF2E460099B44230D889B2E6454FEA84
:100BD0005108814616D900BFA5B2B9B22A4600F025
:100BE00029F8A8EB0A080FFA88F10029484648BFFF
:100BF0005F44009948BF8844B54204F10104EBD337
:100C000014E000BFA5B2BAB2294600F013F8A8EB71
:100C10000A080FFA88F10029484648BF5F44009946
:100C200048BF8844B54204F10104EBD301B0BDE8EC
:100C3000F08F0000B0F84C30934225D8B0F84E3019
:100C4000934221D9B0F848308B421DD8B0F84AC041
:100C50008C4519D990F88C30002B08BF704780B5AF
:100C600082B04B1CD0F830E09BB2634538BF9C4645
:100C7000DEF808E0ACEB01034FF0000C9BB2CDF8BE
:100C800000C0F04702B080BD7047000041F6592C0B
:100C9000C0F6000CC0F804C000F04CB910B5B0F8B4
:100CA0004E40DDF808C0B0F84CE0944206D96245E9
:100CB0000AD8E64524BF002010BD05E062454FF08C
:100CC00000021DD9E6451BD2B0F84A20B0F8480012
:100CD0008A420BD9002299424FF0000188BF0121BE
:100CE000984238BF012241EA020010BD0022994219
:100CF0004FF0000188BF0121984238BF01220A400D
:100D0000104610BD10B5044600F0D4FD2046BDE8E5
:100D1000104000F077BE00002DE9F04F81B004468E
:100D2000806D88425DD0A16508780D4684F8740016
:100D3000487884F87500887884F87600C87884F854
:100D40007700087984F87800487984F87900887900
:100D500084F87A00C87984F87B00087A84F87C00EB
:100D6000487A84F87D0091F90A9084F87E90C87AD8
:100D700084F87F0091F90C80084684F8808091F90E
:100D80000D7084F8817091F90E6084F8826091F999
:100D90000FB084F883B091F910A0112184F884A0D9
:100DA00000F03EFCA4F886002846132100F038FC31
:100DB000A4F888002846152100F032FCA4F88A0027
:100DC00094F88D0084F88E7084F88F6048B1012803
:100DD0000AD15F45B8BF84F88EB05645C8BF84F8C5
:100DE0008FA001B0BDE8F08F08EB0900B842C8BF82
:100DF00084F88E004645C246F3DD84F88FA001B02A
:100E0000BDE8F08F80F870107047000080F86D101A
:100E10007047000041F22501C0F60001C16570472E
:100E2000B0B50446049884F8382040F20112A4F8C2
:100E3000922002680025C4E90B302046A56584F89D
:100E4000395084F86D5084F8915084F88D50616366
:100E500090470020CFF6FF70216B206560654968E0
:100E6000204688472046FFF7D5FF84F87050B0BD74
:100E7000B0B582B09C4613460C4646F20D7141F661
:100E80006132C0F60001C0F600020546CDF800C090
:100E900000F0C4FD0DF1070000F004FD9DF80720EF
:100EA00041F229630146C0F6000328460094FFF78B
:100EB000B7FF02B0B0BD0000022B07D0012B09D054
:100EC000002B14BF1044084480B27047401A80B20F
:100ED000704700BF801A80B270470000022B07D015
:100EE000012B09D0002B14BF401A104480B2704768
:100EF000801A80B2704700BF084480B2704700007B
:100F000010B582B0B0F83EE0DDF810C0C46AA2EBC4
:100F10000E0292B2CDF800C0A04702B010BD000092
:100F200080B582B0DDF810C0CDF800C0FFF7E8FF53
:100F300002B080BD2DE9F04F81B01F4692460D46AC
:100F400006464FF6FF7800F043FF72683978304666
:100F5000904740455ED0A8F101017C1C4FF000098C
:100F60001FFA81FB08E000BF8144726814F8011B7E
:100F70003046904740454FD087B25F45F5D096F850
:100F800070205046032A29461DD8DFE802F00309E5
:100F90000F1700BFF16D304688475044294612E0D4
:100FA000F16D30468847291A0CE000BFF16D3046DC
:100FB0008847AAEB0000294605E000BFF16D3046E6
:100FC000884741195046A6F86410A6F866003046D6
:100FD000394600F0BFFA48B10146304600F024F827
:100FE00096F87010032906D9BEE700BF002096F8D6
:100FF00070100329B8D8DFE801F007090B0300BF20
:10100000AAEB000AB0E700BF0544ADE78244ABE7B6
:101010002D1AA9E74FF000091FFA89F001B0BDE8C9
:10102000F08F0000002070472DE9F04F8BB0824612
:10103000016600208AF86C009AF878000B784FF06F
:10104000FF32082831BF05460131CAF86010A0F10F
:10105000080502FA00F023EA00009AF879308AF8CD
:101060006C508AF86A005F190E78FCB2082CECB25A
:1010700026FA04F60AD34C1CCAF86040C5F10805EC
:101080004978EDB2A9400E43083F21469A409AF8AC
:10109000923026EA020203928AF86B209AF87A20AC
:1010A0008AF86E30B3FA83F35B098AF86C708AF8B9
:1010B0006F30BC180B78E6B2082EFEB223FA06FC9D
:1010C0000BD34E1CCAF86060C7F108074978FFB21D
:1010D000B9404CEA010C083C31469AF87B708AF81A
:1010E0006C403D190E78EBB2082BE3B226FA03F6FA
:1010F0000AD3C4F108034C1CCAF860404978DBB23B
:1011000099400E43083D21464FFA80F99AF87C0039
:101110008AF86C50029028440B78C4B2082CECB2C8
:1011200023FA04F409D3C5F108034D1CCAF8605032
:101130004978DBB299400C430838B9F1010F8AF8BD
:101140006C00C0F2F781511E4FF0FF30C9B27B1E18
:1011500000FA02F200FA01F1B840DBB201272CEAF2
:10116000020207FA03F3039F114426EA00023A44FD
:101170009A1A9AF87060BAF8640057B24DB22946CC
:101180003A463346FFF798FE8046BAF8660029468D
:101190003A463346AAF86480FFF7A0FE032EAAF869
:1011A00066000BD8DFE806F0020E1A265FFA89F116
:1011B00008EB0103039949B2014424E04346014688
:1011C00021E000BF039908F1010349B2A8EB010136
:1011D00001F101085FFA89F1014414E05FFA89F135
:1011E000A8EB010108F1010301F10108039949B2DB
:1011F00006E000BF039949B208EB01035FFA89F1E9
:10120000421A411C501C8FB21FFA88F182B29BB265
:1012100050460097FFF742FD002800F08B819AF8B6
:101220006C20DAF860604FF0000E4FF00009AAF869
:1012300068E0049407E000BF03984FFA8EF140B2D3
:10124000814280F273819AF876C0337802EB0C0702
:10125000D0B2FDB2082D23FA00F30AD3751CCAF8E8
:101260006050C2F108027078D2B290400343083F48
:101270002E469AF877208AF86C70D1193578CCB25E
:10128000082CFCB225FA04F509D3741CCAF8604096
:10129000C7F108077078FFB2B840054308394FF02E
:1012A000FF3404FA0CF0834304FA02F085438AF811
:1012B0006C100593079505E0DDE90443C8078AF83B
:1012C0006C20B9D09AF86D109AF86A00A0EB090466
:1012D000CDF828E031B1D9B2E2B28A4232D91C4607
:1012E00093E000BF0A999AF87050BAF866004FFA76
:1012F00089F64FB25FFA83F831463A462B465FFAD9
:1013000084FBFFF7EBFDBAF86410099008463146FC
:101310003A462B46FFF7D0FD01465B469AF86F0030
:10132000D84538BF4346099A8AF892005046564637
:101330000095FFF791FBC34520D9059C079DB24658
:1013400063E000BF1C1B0A9AE1B2814202F1010274
:1013500058D300BF241AE1B281424DD3241AE1B21E
:1013600081424BD3241AE1B2814249D3241AE1B21B
:10137000814202F10402EDD244E000BF05980A9DCB
:10138000001BB24605E000BFE0B2B842A4EB070084
:101390002CD304469AF86D009AF86A70002805F17B
:1013A0000105F1D19AF87090BAF866006EB200218A
:1013B00032464B46FFF792FDBAF864108046084665
:1013C000002132464B46FFF777FD01469AF86F0041
:1013D000E3B2BB4228BF3B468AF8920050464246E1
:1013E000CDF80090FFF738FBCEE700BF0A95079DC8
:1013F0004FF0000909E000BF013203E0023201E0D2
:10140000033200BF4FF000090A929AF86A0004EB19
:101410000902801A0A995FFA80F95FFA85FB9AF847
:1014200070404E468AF868208AF869100690CB45CD
:1014300038BF5E46BAF8640057B24DB2BAF866805B
:10144000099239462A462346FFF736FD0890404662
:1014500039462A462346FFF741FD9AF86E100246A8
:101460008AF892100899504633460094FFF7F4FA30
:10147000D94503D907988346054634E0DDE90601DE
:101480000A9F081A01379AF86A609AF87050BAF8F9
:10149000661083465FFA80F8BAF864007CB2B14601
:1014A0000991002122462B46B04538BFC146FFF7BF
:1014B00003FD0A900998002122462B46FFF70EFDF6
:1014C0009AF86E1002468AF892100A9950464B46D6
:1014D0000095FFF7C1FAB045ABEB0600D2D2079DED
:1014E0000020CDE909070998DDF828E00BEB000999
:1014F000DAF860609AF86C308AF868908AF869E0E7
:1015000031785A1CD7B2082F21FA03F1FFF4D4AE78
:10151000701CCAF86000C3F108027778D2B207FAEB
:1015200002F21143DA1F0646C6E600BF9AF86E00C3
:101530008AF89200029A4FF0FF3000FA02F1013A65
:10154000D2B224EA01019040084440B20BB0BDE899
:10155000F08F000070B50C46816DFF2C01F1170172
:1015600004D8612C36D3B0F8880037E0B0F88A0090
:101570000E1835462846002100F052F80644284649
:10158000022100F04DF8A04205F10405F2D33088A5
:1015900040BA00283ED0A0423ED0B078315A49BA75
:1015A000C1B3A142064437D0B078315A49BA89B3A1
:1015B000A142064430D0B078315A49BA51B3A14261
:1015C000064429D0B178705A0E4440BA0028E2D1BE
:1015D00020E000BF412C02D3B0F8860001444878D7
:1015E000C0B10A78A24219D00144487890B10A7873
:1015F000A24213D00144487860B10A78A2420DD0CB
:101600000144487830B10A78A24207D001444878B2
:101610000028E6D1002070BDF01C70BD881C70BD94
:10162000405A00BA000C70472DE9F04102F007045F
:10163000012690F89250A640022DB44628BF4FF0E4
:10164000000CB5F1010E18BFB646056822F007067A
:101650002D7C476B7543DDF81880ADB23D44B8F181
:10166000000F294418D013F00306A3F1010500F080
:10167000AB800C7844EA0C0484EA0E07541C14F086
:1016800007040F701ED04FEA4C0C4FEA4E0E012E8D
:1016900025D12B4698E000BF13F00302A3F101000F
:1016A0003AD00C78012A44EA0C0484EA0E050C4670
:1016B00004F8015B26D10346214680B203282FD2CD
:1016C000EEE000BF478F4FF00108394490F8927068
:1016D000012F98BFC44618BFC646012ED9D00C783A
:1016E00044EA0C0484EA0E07941C14F007040F70FB
:1016F00036D04FEA4C0C4FEA4E0E022E3DD1023B43
:1017000062E000BF4C78022A44EA0C0484EA0E042A
:101710004C7043D10231023B80B20328C0F0C0803C
:10172000081F00BF10F8041F043B41EA0C0181EAC6
:101730000E0101704178827841EA0C0181EA0E01C4
:10174000C478417042EA0C0181EA0E01817044EADA
:101750000C0181EA0E011A04C170E3D1A0E000BFC0
:10176000478F4FF00108394490F89270012F98BFCD
:10177000C44618BFC646022EC1D00C78033244EAD4
:101780000C0484EA0E040C7012F00704A3F10303A6
:1017900010D04FEA4C0C4FEA4E0E15E08A78033B0E
:1017A00042EA0C0282EA0E028A70033180B20328F8
:1017B000B6D275E0428F0126114490F89220012A9A
:1017C00098BFB44618BFB646AAB2032A38BFBDE8D0
:1017D000F08101220CE000BF458F90F8926029440F
:1017E000012E98BF944618BF9646043B1D0457D05F
:1017F0000D78661C45EA0C0585EA0E0576070D7026
:1018000004D04FEA4C0C4FEA4E0E08E0458F90F89A
:1018100092602944012E98BF944618BF96460D78D1
:10182000A61C45EA0C0585EA0E0576070D7005D065
:101830004FEA4C0C4FEA4E0E09E000BF458F90F87E
:1018400092602944012E98BF944618BF96460D78A1
:10185000E61C45EA0C0585EA0E0576070D7005D0F5
:101860004FEA4C0C4FEA4E0E09E000BF458F90F84E
:1018700092602944012E98BF944618BF96460D7871
:10188000043445EA0C0585EA0E0514F007040D70D2
:10189000A2D04FEA4C0C4FEA4E0E043B1D04A7D1D8
:1018A000BDE8F081014640F2EE500822C2F200008D
:1018B0000A7070472DE9F04F81B0834690F8388068
:1018C00000689BF8396090F81190002501274FF6C9
:1018D000F87A00BFDBF80000F2B2037CDBF83400DA
:1018E00005FB03F101EA0A0144185846002100945F
:1018F00000F06EF8474506D20136F0B2083548458B
:1019000007F10107E6D301B0BDE8F08FB0B590F85C
:1019100038100568CB00838795F810C090F83930EF
:1019200095F811E04FEACC0CDA005C18A0F83AC048
:10193000C287744588BFAEEB03011944C900A0F803
:101940004020A0F8421069694164B0BD70B582B012
:101950000446216CB0F84400E164B4F85010B4F8C7
:101960005420B4F85230B4F856500026A4F84A0077
:101970002046A4F848600095FFF790F920B3B4F82A
:101980004810B4F850000122814284F88C2038BFFE
:10199000A4F84800B4F84A10B4F85200814288BF55
:1019A000A4F84A00B4F84C10B4F85400814238BF8F
:1019B000A4F84C00B4F84E10B4F85600814288BF29
:1019C000A4F84E0002B070BD84F88C6002B070BD07
:1019D00080B582B0DDF810C0D0F808E08DF80510B1
:1019E0008DF806208DF804306B460F210122CDF8CA
:1019F00000C0F04702B080BDD0F808C00A21002224
:101A000000236047D0F808C010210022002360475F
:101A1000D0F808C00A460B210023604710B54FF4E8
:101A20007F44DDF808C0A0F82340FF244FF0000EEB
:101A300080F8284000F10804C0F800E080F826E0B3
:101A400084E80E50BDE81040AFF30080D0F808C025
:101A5000092100220023604700294FF6FF7008BFCC
:101A600070470A2918BF084670470000D0F810C018
:101A7000192100220023604780B582B08DF807103D
:101A80000DF10702012100F003F802B080BD000053
:101A9000D0F810C013460A4617216047D0F810C08E
:101AA0001821002200236047D0F80CC01921002221
:101AB00000236047D0F80CC00A4616210023604777
:101AC000D0F80CC00A46152100236047D0F80CC09E
:101AD00013460A4617216047F0B581B00E4604460A
:101AE0000DF103050AE000BFA1F11800022817D28A
:101AF000E668204600220023B0473E46374617F8E6
:101B0000011B1729F0DCA1F11500022814D272780C
:101B1000E768204600238DF80320B8470236EDE73A
:101B2000FE2915D17278204629218DF8032000F076
:101B300033F90236E2E700BF172909D17078012195
:101B40008DF8030020462A46FFF7C0FF0236D5E78E
:101B500001B0F0BDD0F80CC018210022002360476E
:101B6000F0B581B0143905292CD804461E46154617
:101B7000DFE801F0042C16461EBE00BF94F82400D6
:101B80001421FF2804BF782084F82400D4F810C062
:101B900020462A46334601B0BDE8F040604700BF0A
:101BA00020462946FFF768FF012001B0F0BD00BFC5
:101BB00040F6EE10C2F2000000210170012001B0D9
:101BC000F0BD00BF002001B0F0BD00BF40F6EE1632
:101BD000C2F200063078012802D12046FFF746FF06
:101BE0002046FFF75BFF20460021FFF745FF204618
:101BF0002946FFF741FF0120307001B0F0BD00BF62
:101C000040F6EE17C2F200073878012802D12046CC
:101C1000FFF72CFF192D7DD320461821324600F006
:101C2000BFF8A5F11800C1B2192906F118026FD347
:101C30002046182100F0B4F8A5F13000C1B21929EE
:101C400006F1300264D32046182100F0A9F8A5F16E
:101C50004800C1B2192906F1480259D3204618217B
:101C600000F09EF8A5F16000C1B2192906F16002EA
:101C70004ED32046182100F093F8A5F17800C1B2A8
:101C8000192906F1780243D32046182100F088F87C
:101C900005F17000C1B2192906F1900238D320462F
:101CA000182100F07DF805F15800C1B2192906F19C
:101CB000A8022DD32046182100F072F805F140004B
:101CC000C1B2192906F1C00222D32046182100F022
:101CD00067F805F12800C1B2192906F1D80217D317
:101CE0002046182100F05CF81035F03612E000BFF5
:101CF00040F6EE15C2F200052878012802D12046F0
:101D0000FFF7B4FE00202870012001B0F0BD00BF35
:101D100005461646E9B22046324600F041F800205A
:101D20003870012001B0F0BD10B5D0F814C02821E2
:101D3000002200230446E047D4F80CC020461421BA
:101D400000220023E04720464B21012200F024F826
:101D5000206829210279204600F01EF820464B21F8
:101D6000002200F019F8206829210279204600F0AD
:101D700013F820464B21012200F00EF8206829219B
:101D800042792046BDE8104000F006B88A7C016028
:101D900080F8222070470000D0F814C0002360476C
:101DA000F0B581B017460D460646FFF777FE304680
:101DB0004021FFF761FE3469304617212A463B4631
:101DC000A047304601B0BDE8F040FFF74FBE00002D
:101DD000002180F826107047014800F045BB000044
:101DE0003402002070B5044600688168C943C90701
:101DF00017D1816821F00101816000F0A5FF05463F
:101E00000AE000BF00F0A0FF401B022804D92068B0
:101E10008068C043C00706D020688068C043C00700
:101E2000F0D0002070BDA06A40F01000A062E06A0F
:101E300040F00100E062012070BD10B50146406A2B
:101E4000826A12F0500F05D0006A026BBDE81040A4
:101E500008461047816A41F400718162016889680F
:101E6000C1F3424107290CD1017B51B9816A21F4A8
:101E700080718162816AC90403D4816A41F00101E1
:101E8000816200F0E1FA10BD10B5406A816A41F04C
:101E900040018162C16A41F00401C16200F0E3FACD
:101EA00010BD10B5406A00F0DDFA10BDF8B500268F
:101EB0000446009600688168C943C9072DD081682F
:101EC00041F001018160164816490068B0FBF1F04D
:101ED00000E0401E00900028FBD100F035FF0546D1
:101EE00016E000BF00F030FF401B022810D9206828
:101EF0008068C043C0070BD0A06A40F01000A06209
:101F0000E06A40F00100E06284F824600120F8BD3E
:101F100020688068C043C007E4D10020F8BD0000FD
:101F20001000002040420F002DE9F84F544C0025CE
:101F30006078032874D102F09DFF524FDFF848818A
:101F4000DFF848910D264FF0010A4FF05A0B3D7013
:101F500004F0DCF8387860704D48FEF7EBFC4DA3D8
:101F60000A2214214A48FEF791FE80230D22012106
:101F700047480096FEF7F4FDB8F8002049A14D4807
:101F800003F094FA4B4B182203214148FEF77EFEE2
:101F900049A14848D9F8002003F088FA454B24228B
:101FA00003213B48FEF772FE35490122891D081FB7
:101FB00004F07CFC32490122C91D081F04F076FCA4
:101FC0002F4902220831081F04F070FC2C4901221D
:101FD0000931081F04F06AFC607900902379E278E7
:101FE000A1782B48FEF7B2FC2948FEF78BFE6078FB
:101FF000012804D002280BD0032812D01CE0A07ABC
:10200000401C40B2A072032819DB0320A07216E026
:10201000A07A401E40B2A072002810DCA5720EE02B
:102020001FE094F90A0010B1012803D007E003F083
:10203000E3FF01E004F03AFA607806280CD094F946
:102040000A00C0B1012882D184F806A01B20E071EB
:1020500084F808B066727AE70D48FEF76BFC00F072
:1020600031F8657002F066FD6FF05F00E0820320DA
:102070002070BDE8F88F84F806A00E20E7E7000086
:102080004A00002014000020640000206C000020A2
:10209000A0000020426C69622061646A7573746DEF
:1020A000656E74004272696768746E6573733A2571
:1020B000642525008C04002054696D653A256473FD
:1020C000000000002DE9FF470A244A258DF808404A
:1020D0008DF80C504A48FEF72DFC4AA39DF80820C5
:1020E00014214748FEF7D2FD9DF808208023D01C1C
:1020F000009001214248D21CFEF732FD9DF80820D5
:1021000044A303213E480E32FEF7C0FD9DF808208F
:1021100044A303213A481A32FEF7B8FD082203A966
:1021200002A804F0C3FB3648FEF7ECFD9DF808005A
:102130009DF80C108842CDD13C4E8DF808508DF89A
:102140000C403B4D202406F1800706F5807806F50B
:10215000C07906F5007A2A48FEF7ECFB082203A9AD
:1021600002A804F0A3FB33A39DF8082014212448FF
:10217000FEF78CFDCDE90046E88A9DF8082081B283
:1021800020231F48921D04F063FACDE90047E88A36
:102190009DF80820303081B220231948921D04F0A8
:1021A00057FACDE90048E88A9DF80820603081B2EE
:1021B00020231348921D04F04BFACDE90049E88A28
:1021C0009DF80820903081B220230D48921D04F024
:1021D0003FFACDE9004AE88A9DF80820C03081B274
:1021E00020230748921D04F033FA0548FEF78AFDC4
:1021F0009DF808009DF80C108842ACD1BDE8FF871F
:10220000A0000020426C69622061646A7573746D7D
:10221000656E74004272696768746E6573733A2004
:102220000000000054696D653A2000006A690008EA
:102230004A0000204D454E553A000000FEE70000E0
:10224000014800F065BB00006402002030B590F842
:1022500040500124AC40C56B6C6004686360436807
:10226000102B036803D099600068C26030BD9A608B
:102270000068C16030BD70472DE9F8431B4F8146AF
:102280003A2697F8800080233246385C002100EB24
:10229000C0008000A6EB1020C5B24846FEF7A0FBA8
:1022A0000124B04697F88000204400F07F00385C9D
:1022B00000EBC0008100A8EB1120C6B2162E00D2A0
:1022C0001626601E81B223462A4648460096FEF72F
:1022D00047FC721C21464846FEF7ACFC641CE4B285
:1022E0003546802CDED3BDE8F8830000CC04002006
:1022F00072B6FEE7FCB5012303276C46491E11E0C8
:1023000000252A469E1800EB460636F8026C24F893
:102310001260521C3544032AF4D3B5FBF7F220F8BF
:1023200013205B1C8B42EBD3FCBD000010B50446B0
:102330000020024606E000BF34F81230834200D984
:102340001846521C8A42F7D310BD7047F8B50024D6
:10235000009490F824202546012A12D0012280F80A
:1023600024204A681F23072A0DD20668776B521E65
:1023700002EB820293409F430B6893401F437763B5
:1023800019E00220F8BD06680D2A0AD2376BD21F69
:1023900002EB820293409F430B6893401F433763D5
:1023A00009E0F76A0D3A02EB820293409F430B6803
:1023B00093401F43F7620A68072306680A2A0AD374
:1023C000F7680A3A02EB420293409F438B689340BE
:1023D0001F43F76008E0376902EB420293409F43D6
:1023E0008B6893401F4337610A68102A01D0112A75
:1023F00020D1124B02689A4217D193681B0219D45C
:10240000936843F4000393600968102912D10C49C2
:102410000C4A0968B1FBF2F101EB8101490000E0CF
:10242000491E00910029FBD104E0816A41F020019E
:102430008162012480F824502046F8BD0024014028
:102440001000002040420F000449006809688842DB
:1024500002D10349012008707047000034020020B7
:10246000700000207047704770B504460068066829
:102470004568A90625D5B10723D5A16AC90603D4A5
:10248000A16A41F40071A1628168C1F34241072948
:1024900010D1217B71B9416821F020014160A06A0F
:1024A00020F48070A062A06AC00403D4A06A40F047
:1024B0000100A0622046FFF7C7FF21686FF01200FD
:1024C000086028062ED570072CD5A06AC00603D454
:1024D000A06A40F40050A06220688168C1F3023114
:1024E000072909D04168490515D48168C1F34241E3
:1024F000072910D1217B71B9416821F08001416029
:10250000A06A20F48050A062A06AC00503D4A06A2B
:1025100040F00100A0622046FFF717FF21686FF02E
:102520000C00086068060CD5F0070AD0A06A40F4D9
:102530008030A062204600F093F821686FF001001F
:10254000086070BD2DE9F0414FF0000704003D46E2
:102550007ED0A06A002628B9E66284F8246020466E
:1025600000F080F82046FFF73DFCA16AC90600D4C0
:1025700020B1A06A40F01000A06269E0A16A21F4D5
:10258000885141F00201A1626268E169237B0A433C
:1025900047EA43010A43A1684FF48077B94209D062
:1025A000012907D05FF0000194F814C0BCF1010FBD
:1025B00002D00AE03946F7E7F3B1A36A43F02003FB
:1025C000A362E36A43F00103E3622368D3F804C023
:1025D0002CF4694C4CEA010CC3F804C021688B68E8
:1025E000DFF870C003EA0C0313438B60A168B942A3
:1025F0000BD0012909D00CE0DFF85CC0A3690CEB1B
:1026000043330B4343F40061DFE7218A0D05A5F551
:1026100080152168CB6A23F470032B43CB622168B9
:1026200089680E4B1940914208D1E662A16A21F0F7
:10263000020141F00101A162BDE8F081A06A20F031
:10264000020040F01000A062E06A40F00100E06289
:102650000120F1E7FDF7E1FF00E0FFFFFE0E1FFFA5
:1026600070470000F0B585B000260546009601963B
:102670000296039600682549884245D12449886915
:1026800040F400708861886900F4007004908869E3
:1026900040F004008861886900F0040004908869B3
:1026A00040F00800886188690224032700F00800D0
:1026B000CDE9004704906946164800F04BFACDE991
:1026C00000476946144800F045FA154C1348C4E920
:1026D00000068020C4E90260400020618000606143
:1026E0002020A0610002E061204600F0BBF908B1A3
:1026F000FFF7FEFD2C62002211461220656200F0F9
:1027000019FD122000F008FD05B0F0BD00240140C5
:102710000010024000080140000C01400800024087
:10272000640200202DE9F047894604463B490068D1
:102730003B4F0E1D9046884201D0B84207D1306809
:1027400010F4702F03D001252846BDE8F08794F8D7
:10275000240001280CD0012084F824002046FFF733
:10276000A5FB05004FF0000004D084F82400EBE73F
:102770000220EAE7A16A40F60162914341F48071C8
:10278000A1622168B94218D1326812F4702F14D0B6
:10279000A16A41F48011A1623168490505D5A16A99
:1027A00021F4005141F48051A162A16AC9040AD503
:1027B000E16A21F00601E16206E0A26A22F48012D9
:1027C000A2624968E9E7E06284F82400216A1548BA
:1027D0008862216A1448C862216A14480863216823
:1027E0006FF0020008602068816841F480718160A8
:1027F000216843464A464C31206A00F061F920685E
:102800008168C1F342410729816803D041F48011F6
:10281000816099E741F4A001FAE70000002401403B
:10282000002801403B1E0008A31E0008891E000866
:1028300010B590F821100022022905D004218163EF
:1028400080F82020012010BD01680B6823F00E03E2
:102850000B6001680B6823F001030B6090F84030B7
:10286000C46B012101FA03F3636080F8211080F842
:102870002020104610BD000010B590F82110002453
:10288000022903D00421816301243DE001680A6824
:1028900022F00E020A6001680A6822F001020A6052
:1028A0001A4A0168914201D1012121E0174A1432EC
:1028B000914201D110211BE0144A2832914201D1EA
:1028C000891515E0114A3C32914201D189140FE07B
:1028D0000E4A5032914202D14FF4803108E00B4A47
:1028E0006432914202D14FF4801101E04FF08071C7
:1028F000064A083A5160012180F82110002180F831
:102900002010416B01B18847204610BD08000240ED
:102910002DE9F05FC16B0C6801680B68D0F840C00E
:10292000042202FA0CF2494DDFF824A1494E4A4F25
:10293000DFF828B1DFF828E122422CD05A072AD547
:102940000A68920603D40A6822F004020A60016849
:10295000A94201D1042219E0514501D1402215E0DC
:10296000B14202D14FF4806210E0B94202D14FF47B
:1029700080420BE0594502D14FF4802206E07145B8
:1029800002D14FF4800201E04FF080622F490839F4
:102990004A60C16A3BE04FF0020808FA0CF818EAF6
:1029A000040F4FF000094FF0010235D05FEA837841
:1029B00032D50B689B0605D40B6823F00A030B6025
:1029C00080F821200168A94201D1022219E0514575
:1029D00001D1202215E0B14202D14FF4007210E083
:1029E000B94202D14FF400520BE0594502D14FF4E5
:1029F000003206E0714502D14FF4001201E04FF0C1
:102A00000072124908394A6080F82090816A0029D2
:102A10001AD0BDE8F05F0847082505FA0CF52542F5
:102A200012D01B0710D50B6823F00E030B6090F833
:102A30004010C36B02FA01F15960826380F82120D3
:102A400080F82090016BE2E7BDE8F09F08000240AB
:102A50001C00024030000240440002405800024086
:102A60006C00024030B528B308C813491422194439
:102A7000B1FBF2F18900C163104981630221417702
:102A80001A6843F6F0718A43D0E900142143D0E973
:102A900002452C432143046921434469214384694D
:102AA00021431143196000214163012242770177DC
:102AB000084630BD012030BDF8FFFDBF00000240D8
:102AC00070B5044690F82000002501280CD00120A4
:102AD00084F8200094F821600020012E06D084F8AC
:102AE00020000225284670BD022070BD022684F811
:102AF0002160A0632068066826F001060660204673
:102B0000FFF7A4FBE06A00282068016802D041F0CA
:102B10000E0106E021F0040101602068016841F027
:102B20000A0101602068016841F001010160D9E7F4
:102B300070B5044600F008F90546601C02D0044850
:102B40000078044400F000F9401BA042FAD370BDA5
:102B5000040000202DE9F84FDFF8B8910024A9F116
:102B6000040B23460F2709F1040AABF1040EC9E058
:102B70000125A5402A40AA427DD1674ED1F804C064
:102B8000ACEB0608B44532D014DCBCF1030F3AD0EC
:102B900009DCBCF1000F2AD0BCF1010F1CD0BCF144
:102BA000020F31D11DE0BCF1110F17D0BCF1120F93
:102BB0002AD119E0B8F5881F19D006DCB8F5803F96
:102BC00015D0B8F5801F1FD111E0B8F5001F0ED049
:102BD000B8F5041F18D10AE0CB6815E0CB681B1DBF
:102BE00012E0CB6808330FE0CB680C330CE08B6845
:102BF0002BB1012B4FF0080303D0456104E00423FF
:102C000002E0056100E00023FF2A01D8064601E04A
:102C100000F104064FEA840501D9A5F12005D6F894
:102C2000008007FA05FC28EA0C0803FA05F548EAD3
:102C30000508C6F800804D68ED0062D5374DAE69D5
:102C400046F00106AE61AD6924F0030605F001050A
:102C50000095334D06EB050CDCF80850A607360F3F
:102C600007FA06F825EA0805DFF8B880404503D1E1
:102C70004FF0000817E044E0DFF8AC80404502D197
:102C80004FF001080FE0DFF8A480404502D14FF07B
:102C9000020808E0DFF89880404502D14FF00308B1
:102CA00001E04FF0040808FA06F848EA0508CCF8F5
:102CB00008804D68D9F80060ED024D4601D51643F5
:102CC00000E096432E604D68DAF80060AD0255468C
:102CD00001D5164300E096432E604D68DBF8006096
:102CE000AD035D4601D5164300E096432E604D6866
:102CF000DEF80060ED03754601D5164300E096430B
:102D00002E60641C0D682A46E5407FF431AFBDE8B3
:102D1000F88F00000804014000001110001002406C
:102D20000000014000080140000C0140001001407B
:102D3000001401408068084000D0012070470AB1AB
:102D4000016170470904FBE7014880687047000093
:102D50000400002070B5040025D094F83D00002543
:102D600020B984F83C50204600F04EF9242084F825
:102D70003D002068016821F00101016020680168C0
:102D800041F4004101602068016821F400410160C4
:102D900000F00EFB4D4A6168914201D84C4900E0B9
:102DA0004C49884201D2012070BD4B492368B0FBD9
:102DB000F1F15E6826F03F060E435E606368934261
:102DC00006D94FF4967359434FF47A73B1FBF3F17C
:102DD0002368491C1E6A26F03F0631431962616868
:102DE000914210D84900401EB0FBF1F2521CC2F3D0
:102DF0000B02042A01D2042022E0B0FBF1F0401CB7
:102E0000C0F30B001CE0A268F2B301EBC10303EBBB
:102E10000116431EB3FBF6F35B1C43F480431B0512
:102E200049D092B301EBC10202EB0111401EB0FB8D
:102E3000F1F0401CC0F30B0040F4804040F400402F
:102E40002168CA694CF6FF739A431043C861D4E9FC
:102E5000071001432068026822F0C002114301609C
:102E6000D4E9030101432068826848F2FF339A43A2
:102E700011438160D4E9050108432168CA6822F042
:102E8000FF021043C86001E00EE016E02068016810
:102E900041F0010101602564202084F83D00256394
:102EA00084F83E50002070BD01EB4106431EB3FB89
:102EB000F6F35B1CB3E70120C2E701EB4101401EC2
:102EC000B0FBF1F0401CC0F30B00B7E7A086010097
:102ED00080841E0000093D0040420F002DE9F84F9C
:102EE0001F4690468A460446DDF82890FFF72CFFDF
:102EF000054694F83D0020287FD11923012240493E
:102F00002046009501F024F9002876D194F83C0081
:102F1000012872D0012084F83C0020680168C907AC
:102F200003D1016841F0010101602068016821F4CA
:102F300000610160212084F83D00102084F83E00EB
:102F400000262664C4F824806785608D20852D487E
:102F5000E0622B464A465146204601F07FF890B980
:102F6000206841698069009036E02A46494620463B
:102F700001F094F950B1206C042804D12068016854
:102F800041F4007101600120BDE8F88F606A21689A
:102F900000780861606A401C6062618D491E61852D
:102FA000218D491E89B2218522685369DB435B0765
:102FB0000BD451B100781061606A401C6062608D72
:102FC000401E6085208D401E20852A4649462046A9
:102FD00001F092F80028CED1208D0028C5D154F8F8
:102FE0003D0B016841F400710160202004F81E09C6
:102FF000E67766770020C7E7FFE70220C4E7000016
:10300000020010000000FFFF10B586B00021009103
:103010000191029103910068104988421BD1104C24
:10302000A06940F00800A061A069694600F00800AE
:1030300004904FF440600090122001900320039010
:103040000848FFF787FDE06940F48000E061E0692F
:1030500000F48000049006B010BD0000005800404D
:1030600000100240000C01400248816802781144BF
:103070008160704704000020074810B5016841F0E6
:1030800010010160032000F075F8002000F006F840
:1030900000F024F8002010BD0020024070B50D4D56
:1030A00004464FF47A712878B1FBF0F00A490968B8
:1030B000B1FBF0F000F052FB48B9102C07D200220F
:1030C0002146501E00F036F800206C6070BD0120D3
:1030D00070BD000004000020100000200C4808B55E
:1030E000816941F001018161816901F00101009173
:1030F000C16941F08051C161C06900F08050009009
:103100000448416821F0E06141F00071416008BD70
:103110000010024000000140002809DB00F01F02FF
:10312000012191404009800000F1E020C0F8001129
:1031300070470000F0B40E4B1B680C46C3F302232B
:10314000C3F10705042D00D90425191D072901D253
:10315000002300E0DB1E012606FA05F1491E21408E
:1031600099409E40761E16403143F0BC02F0B2B941
:103170000CED00E0064900F0070208684FF6FF0377
:10318000184040EA0220034A1043086070470000DC
:103190000CED00E00000FA052DE9F8430546007843
:1031A000354CC00754D0E0690026C00008D4E0695F
:1031B00040F08050E061E069012600F0805000900E
:1031C0002E480168C90512D40168804641F4807117
:1031D0000160FFF7B9FD074605E000BFFFF7B4FD4A
:1031E000C01B642823D8D8F80000C005F6D5206A93
:1031F00010F4407021D0A98801F4407181421CD0A4
:10320000206A1F49012220F440700A6000220A60EF
:103210002062C00711D0FFF797FD074641F28838BA
:1032200008E000BFFFF790FDC11B414502D9032014
:10323000BDE8F883206A8007F4D5206A696820F425
:103240004070084320621EB1E06920F08050E061C8
:103250002878800705D56068A96820F440400843B5
:1032600060602878C00605D56068E96820F48000B1
:10327000084360600020DBE700100240007000405F
:10328000400442422DE9F0470F46050061D0434E0D
:10329000306800F00700B84209D2306820F007001B
:1032A00038433060306800F00700B84251D12868D8
:1032B0003B4C810712D5400703D5606840F4E060BD
:1032C00060602878000703D5606840F46050606053
:1032D0006068A96820F0F000084360602878C007A3
:1032E00028D06868012810D02168022810D08907EA
:1032F00000292EDA616821F0030101436160FFF7C4
:1033000023FD804641F288390DE021688903EFE70B
:103310008901EDE7FFF718FDA0EB0801494502D947
:103320000320BDE8F0876068696800F00C00B0EB2E
:10333000810FEFD1306800F00700B8420BD9306838
:1033400020F0070038433060306800F00700B842D2
:1033500001D00120E5E72878400705D56068E968D5
:1033600020F4E060084360602878000706D56068B4
:10337000296920F4605040EAC100606000F038F82C
:103380006168084AC1F30311515CC84006490860EE
:1033900006480068FFF782FE0020C2E700200240D6
:1033A00000100240EE680008100000200800002015
:1033B0000448054900684968044AC1F30221515C88
:1033C000C84070471000002000100240FE6800084E
:1033D0000448054900684968044AC1F3C221515CA8
:1033E000C84070471000002000100240FE6800082E
:1033F0000E4A51680E4801F00C03042B11D0082B23
:103400000FD10C48C1F38343C903C05C0AD551688E
:10341000084AC1F34041921E515C054A5043B0FB3B
:10342000F1F0704704494843704700000010024023
:1034300000127A00DE68000800093D002DE9F84F0F
:10344000040070D02078C04DC00749D06868C0F330
:103450008100012807D06868C0F38100022809D1E3
:103460006868C00306D52868800339D560680028DD
:10347000E7D035E06068B0F5803F0BD010B1B0F513
:10348000A02F11D0286820F480302860286820F40C
:10349000802002E0286840F480302860606890B1A5
:1034A000FFF752FC06460AE0286840F480202860B6
:1034B000F0E700BFFFF748FC801B642873D828683A
:1034C0008003F7D50CE0FFF73FFC064605E000BFA0
:1034D000FFF73AFC801B6428F0D828688003F7D4F3
:1034E00020789A4E80074FF001094FF0000839D537
:1034F000686810F00C0F07D06868C0F381000228DC
:1035000009D16868C00306D42868800714D52069EB
:10351000012808D110E02069B0B1C6F80090FFF78B
:1035200013FC074605E00AE1FFF70EFCC01B02286A
:10353000C4D828688007F7D52868616920F0F800AA
:1035400040EAC10028600DE0C6F80080FFF7FCFBF0
:10355000074604E0FFF7F8FBC01B022823D82868C1
:103560008007F7D4207800072CD57948A169D9B114
:10357000C0F80090FFF7E8FB074604E0FFF7E4FB24
:10358000C01B02280FD8686A8007F7D571484FF42E
:10359000FA510068B0FBF1F0009000BF0098411EA6
:1035A0000091FAD20EE080E0C0F80080FFF7CCFB7B
:1035B000074604E0FFF7C8FBC01B022875D8686AFD
:1035C0008007F7D42078400760D5E8690027C0005D
:1035D00008D4E86940F08050E861E869012700F00C
:1035E000805000905C480168C90513D40168834687
:1035F00041F480710160FFF7A7FB824606E000BF3F
:10360000FFF7A2FBA0EB0A0064284ED8DBF800000D
:10361000C005F5D5E06801280AD008B1052813D007
:10362000286A20F001002862286A20F0040002E0E5
:10363000286A40F001002862E06841F2883B98B1B6
:10364000FFF782FB82460BE0286A40F00400286204
:10365000EEE700BFFFF778FBA0EB0A0159455AD807
:10366000286A8007F6D50CE0FFF76EFB824605E07E
:10367000FFF76AFBA0EB0A0159454CD8286A80077E
:10368000F6D41FB1E86920F08050E861E06988B3A2
:103690006968C1F38101022944D00228C6F860801C
:1036A00004D0FFF751FB044638E034E0FFF74CFB51
:1036B000074604E0FFF748FBC01B02282BD8286808
:1036C0008001F7D4206AB0F5803F05D16868A16811
:1036D00020F4003008436860D4E9080108436968B1
:1036E00021F4741108436860C6F86090FFF72CFB62
:1036F000044606E025E000BFFFF726FB001B02287A
:1037000009D828688001F7D51BE000BFFFF71CFB34
:10371000001B022802D90320BDE8F88F2868800129
:10372000F4D40EE00128F7D06868226A00F48031F2
:10373000914204D1616A00F47010884201D00120E6
:10374000EAE70020E8E700000010024000004242E3
:1037500080044242100000200070004010B5401E5E
:10376000B0F1807F01D3012010BD4FF0E0246061F3
:103770000F21601701F0AEFE0020A061072020613C
:10378000002010BD7047704770B590F83C20012AAA
:1037900026D0012480F83C40022280F83D200368B6
:1037A0005A689D6822F070060A6832435A600D4BD1
:1037B00002689A4208D0B2F1804F05D00A4B9A4273
:1037C00002D00A4B9A4204D1496825F0800319437C
:1037D000916080F83D40002180F83C10084670BDA3
:1037E000022070BD002C0140000400400008004091
:1037F00070472DE9F04104460068C66805694FF03E
:103800000007A90713D5B10711D5F91E01610120E1
:103810002077206880698007204602D0FFF7E8FF04
:1038200004E000F0A5F8204600F054F92777680777
:1038300016D5700714D521686FF0040008610220C6
:1038400020772068806910F4407F204602D0FFF77F
:10385000CFFF04E000F08CF8204600F03BF927771A
:10386000280715D5300713D521686FF008000861C7
:10387000042020772068C0698007204602D0FFF727
:10388000B7FF04E000F074F8204600F023F9277732
:10389000E80616D5F00614D521686FF0100008610F
:1038A000082020772068C06910F4407F204602D0AD
:1038B000FFF79EFF04E000F05BF8204600F00AF9F5
:1038C0002777E80708D0F00706D021686FF00100DD
:1038D0000861204600F04EF9280608D5300606D5C6
:1038E00021686FF0800008612046FFF74BFF6806F3
:1038F00008D5700606D521686FF0400008612046A3
:1039000000F039F9A8060AD5B00608D521686FF08D
:10391000200008612046BDE8F041FFF734BFBDE854
:10392000F081000000B585B0002100910191029165
:10393000039100680B49884211D10B48816941F01D
:10394000040181618069694600F004000490402010
:1039500000900220019003900448FFF7FBF805B0A7
:1039600000BD0000000400400010024000080140BB
:10397000704770B5044690F83C0000260D460128BB
:103980000FD0012084F83C006AB1042A1DD0082A17
:103990002FD00C2A3FD00126002084F83C0030466E
:1039A00070BD022070BD206801F0C2F920688169F5
:1039B00041F0080181612068816921F00401816181
:1039C000206881692A69114311E0206801F0D8F963
:1039D0002068816941F4006181612068816921F476
:1039E00080618161206881692A6941EA02218161DF
:1039F000D2E7206801F0F0F92068C16941F00801C0
:103A0000C1612068C16921F00401C1612068C169F8
:103A10002A69114311E0206801F00AFA2068C1699F
:103A200041F40061C1612068C16921F48061C16114
:103A30002068C1692A6941EA0221C161ACE710B579
:103A4000040003D094F83D0010B107E0012010BD40
:103A5000002084F83C00204600F01EF8022084F884
:103A60003D00211D206801F019F9012084F846006D
:103A700084F83E0084F83F0084F8400084F8410058
:103A800084F8420084F8430084F8440084F8450038
:103A900084F83D00002010BD08B500680B4988423D
:103AA00012D10B48C16941F00201C161C069002215
:103AB00000F00200009011461D20FFF73BFBBDE81F
:103AC00008401D20FFF728BB08BD0000000400408F
:103AD000001002407047000010B50446022249B1B0
:103AE00004290ED0082913D094F84100012816D0DB
:103AF000012010BD94F83E000128F9D184F83E2041
:103B00000FE094F83F000128F2D184F83F2008E04C
:103B100094F840000128EBD184F8402001E084F8BB
:103B200041200122206801F0F5F80F492068884201
:103B300003D1426C42F4004242642068884208D0BB
:103B4000B0F1804F05D00949884202D00849884227
:103B500004D1816801F00701062903D0016841F012
:103B600001010160002010BD002C01400004004054
:103B700000080040704770477047704710F8411FB9
:103B80004078084370470000F8B5016804460868AB
:103B9000CA684B6910F00F0F4FF0000559D003F0C1
:103BA000010602F49077374365D0C10705D0D105EF
:103BB00003D5616C41F001016164410705D5D90766
:103BC00003D0616C41F002016164810705D5D9071A
:103BD00003D0616C41F004016164010707D502F074
:103BE0002001314303D0616C41F008016164616CD4
:103BF00000293AD0800604D5900602D5204601F06F
:103C0000EAFA20684069616CC0F38010090700D4AB
:103C100060B3204601F0B8FA20684069400621D51B
:103C20002068143050E8001F21F0400140E80012E5
:103C3000002AF5D1E06BA8B16D494163E06BFEF756
:103C40001BFE002811D0E06B416B01B0BDE8F040D5
:103C5000084783060FD593060DD52046BDE8F840EA
:103C600001F0B9BA2046FFF788FFF8BD2046FFF7FC
:103C700084FF6564F8BD266B2023012E7CD1C60627
:103C80007AD5D60678D508684868009048694FF01C
:103C90000206400640D5E16B086840680004000C4D
:103CA000E8D0A28D8242E5D9E085886920282DD010
:103CB00020680C3050E8001F21F4807140E80012A9
:103CC000002AF5D12068143050E8001F21F00101CE
:103CD00040E80012002AF5D12068143050E8001F97
:103CE00021F0400140E80012002AF5D184F842306A
:103CF000256320680C3050E8001F21F0100140E8D7
:103D00000012002AF5D1E06BFEF792FD6663A08DEC
:103D1000E18D401A81B22AE0A08DE18D401A81B276
:103D2000E08D0028A6D00029A4D022680C3252E8E9
:103D3000000F20F4907042E80007002FF5D12068B2
:103D4000143050E8002F22F0010240E80027002F35
:103D5000F5D184F84230256320680C3050E8002FFC
:103D600022F0100240E80023002BF5D166632046C4
:103D7000FFF702FFF8BDFFE705062BD5150629D58D
:103D800094F841002128F5D1A068B0F5805F01D1F9
:103D90002069B0B1206A411C216221680078486026
:103DA000E08C401E0004000CE084E3D12068C16870
:103DB00021F08001C1602068C16841F04001C1600C
:103DC000D8E7206A0088C0F308004860206A801C99
:103DD0002062E5E74006CDD55006CBD5CA6820461F
:103DE00022F04002CA6084F8413000F01DF9C1E7BA
:103DF0007951000870B5040004D094F84100002502
:103E000010B106E0012070BD84F84050204600F05B
:103E100023F8242084F841002068C16821F400516F
:103E2000C160204601F038FA2068016921F4904110
:103E300001612068416921F02A0141612068C1685F
:103E400041F40051C1606564202084F8410084F889
:103E500042006563002070BD30B585B00024009439
:103E60000194029403940068184988422CD11848A0
:103E7000816941F480418161816901F4804104914B
:103E8000816941F0040181618069124D00F00400F4
:103E900004904FF4007000900220019003200390E2
:103EA00069462846FEF756FE2815CDE90004694606
:103EB00028460294FEF74EFE002211462520FFF709
:103EC00039F92520FFF728F905B030BD0038014049
:103ED000001002400008014090F84230202B01D031
:103EE0000220704721B11AB10023036301F030BAF8
:103EF000012070472DE9F0411D4C00254FF48076DC
:103F000020784FF6FF77FF280BD3257031461948EC
:103F1000FCF721F93B460A2217A11A4800F034F8B1
:103F20001DE0144962780A54401CC2B288182270FD
:103F300010F8011C0A2912D110F8020C0D280ED11C
:103F40003B460C490F4800F01FF80E48FFF716FEDD
:103F50002128FAD0257031460648FCF7FCF8BDE868
:103F6000F04103490122491C0648FFF7B5BF000094
:103F70000000002034010020CAFDBEDDD2E7B3F608
:103F800000000000440300202DE9F843044690F8A7
:103F90004100984616460D46202802D00220BDE872
:103FA000F88385B17EB100206064212084F841004F
:103FB000FEF7CAFEA6848146E684A0682027B0F5F5
:103FC000805F02D003E00120E9E7206910B12E46AE
:103FD00000250EE000260CE08021204601F0D3F9F8
:103FE000A8B9C6B116F8010B21684860E08C401EE4
:103FF000E084E08C4B464FF00002CDF800800028B2
:10400000EAD14FF04001204601F0BDF940B184F8FB
:1040100041700320C3E735F8020BC0F30800E3E763
:1040200084F841700020BAE77047FEE701684A69EA
:10403000D24352050FD46FF480624A61002140F8E8
:10404000301F202242738173026942F00402026130
:10405000017301207047002070470000F8B5044646
:10406000C06A1E460D461746082807D0012805D00D
:1040700010F5803F02D0206B122804D1206801681F
:1040800041F480710160134600224FF00111204677
:10409000009600F05DF840B120680068C00502D5C8
:1040A0004FF4007020640320F8BD2069B0F5804F04
:1040B0000ED00620216800EAD51040F0F00008611B
:1040C00033463A460B49204600F08AF878B902E0B8
:1040D00005F0FE0000E0E8B22168086105493346BA
:1040E0003A46891F204600F07BF80028DCD00120EA
:1040F000F8BD00000800010070B516460D460446E4
:104100001EE02046FFF792FF08B1012070BD681C39
:1041100016D0FEF719FE801BA84200D885B920688A
:104120004069C04340070BD5002044F8300F2021E0
:104130006173A073216941F0200121612073E4E7DC
:1041400020684069C0434007DBD4002070BD0000F8
:104150002DE9F047984617460D460446C1F3074639
:10416000DDF820902AE000BFB8F1FF3F26D0FEF72F
:10417000EBFDA0EB0901414502D8B8F1000F1DD1BC
:104180002068012E16D0806925EA00000004000C8A
:1041900012D00020B84211D1002044F8300F202165
:1041A0006173A073216941F0200121612073012016
:1041B000BDE8F0874069E7E70120EBE72068012EC2
:1041C0000AD0806925EA00000004000C06D0002017
:1041D000B842C9D00020EBE74069F3E70120F7E7D8
:1041E0002DE9F047984616460D4604464FF0000963
:1041F0004FF0200AC1F3074723E020684069C0431D
:10420000400515D42068016841F4007101602168FF
:104210006FF480604861C4F8309084F83DA084F861
:104220003E90216C41F00401216484F83C9021E02F
:10423000701C06D0FEF788FDA0EB0800B04203D842
:1042400016B1012F1FD021E02068012F15D0806901
:1042500025EA00000004000C18D000BF44F8309F8D
:1042600084F80DA084F80E90216941F020012161AD
:1042700084F80C900120BDE8F087406925EA000031
:104280000004000CEAD12068406901E020688069E0
:1042900025EA00000004000CAFD1ECE770B516462B
:1042A0000D4604461EE02046FFF7C0FE08B101207F
:1042B00070BD681C16D0FEF747FD801BA84200D8D1
:1042C00085B920684069C04300060BD5002044F83A
:1042D000300F20216173A073216941F02001216119
:1042E0002073E4E720684069C0430006DBD4002067
:1042F00070BD00003EB50021174800910191154A9C
:1043000002910260921582600124047301750225F6
:104310004FF460220561C2614160FEF713F908B1F4
:10432000FDF7E6FF05200094CDE9014069460A4803
:10433000FEF70CF808B1FDF7DBFF0920CDE9000519
:1043400069460548FEF702F8002801D0FDF7D0FFC6
:104350003EBD00000024014034020020094808B599
:10436000416941F0010141614069002200F0010012
:10437000009011460B20FEF7DDFEBDE808400B2043
:10438000FEF7CABE0010024000B585B000200190C3
:10439000029003901048816941F020018161816998
:1043A00001F020010491816941F00401816181697A
:1043B00001F004010491816941F008018161806983
:1043C000694600F008000490782000900348FEF74A
:1043D000C1FB05B000BD000000100240000C014010
:1043E0000D4810B50B4901600C49416000214FF4A4
:1043F00080428160C0E9031241618161C161016253
:10440000FEF7A8FC002803D0BDE81040FDF770BF00
:1044100010BD000000580040A8020020801A0600CD
:1044200010B58AB0002407941C2168460894FBF755
:1044300092FE1648144901604721C0E90114632126
:10444000C0E903148461FFF7FAFA08B1FDF750FFE1
:10445000079407A90D480894FFF796F908B1FDF7EE
:1044600047FF602000906420CDE9010400226946E6
:1044700006480494FFF77DFA08B1FDF739FF0348B9
:10448000FFF750FA0AB010BD00040040FC02002003
:104490000C4810B50A4901604FF4E1314160002138
:1044A00081600C22C160C0E904128161C161FFF723
:1044B000A1FC002803D0BDE81040FDF719BF10BDD6
:1044C0000038014044030020FEE7FEE7704700008B
:1044D000F0B5284CA1B02078002849D0264900200A
:1044E0006A4610AB31F8205023F8105001EB8005DC
:1044F0006D8822F81050401C2028F3DB202118463C
:10450000FDF7F8FE20216846FDF7F4FE202110A8F3
:10451000FDF70CFFFBF707FF184D2946FBF77EFE62
:104520006FF00B073946FBF7E9FE06462021684687
:10453000FDF7FCFEFBF7F7FE2946FBF76FFE394659
:10454000FBF7DCFE05463046A169FBF723FF00D2EE
:10455000A66128466169FBF71DFF00D26561C4E9C9
:10456000015600202070402203490548FEF7DAF882
:1045700021B0F0BD700000204E05002033335340C1
:1045800034020020704700002DE9F843494C002513
:10459000607803287AD100F02BFD474F0D264FF0AD
:1045A00001084FF05A093D7001F0B0FD3878607095
:1045B0004248FCF7BFF942A30A2214213F48FCF706
:1045C00065FB80230D2201213C480096FCF7C8FAC8
:1045D00040A1444800F06AFF424B182203213748AB
:1045E000FCF754FB40A13F4800F060FF3D4B242204
:1045F00003213248FCF74AFB2E4901220F31081FE4
:1046000002F054F92B4901221031081F02F04EF933
:10461000284902221131081F02F048F925490122D8
:104620001231081F02F042F9A07B0090637B227BCD
:10463000E17A2248FCF78AF92048FCF763FB6078AE
:10464000012806D002280DD0032812D006281ED03B
:104650000FE0E07C401C40B2E074022809DB02203D
:10466000E07406E0E07C401E40B2E074002800DC0C
:10467000E57494F91300C8B1012894D184F80F802F
:104680001B20207484F81190A6748CE704E00B487A
:10469000FCF750F900F030F8657000F04BFA6FF05D
:1046A0008F00E08204202070BDE8F88384F80F803A
:1046B0000E20E6E74A00002014000020A0000020A1
:1046C00053657269616C20446174612053656E6446
:1046D0000000000053656E64204C696768742044D4
:1046E000617461008C04002053656E6420536F7503
:1046F0006E642044617461002DE9FF470A244A2555
:104700008DF808408DF80C504A48FCF713F94AA37D
:104710009DF8082014214748FCF7B8FA9DF80820B6
:104720008023D01C009001214248D21CFCF718FACB
:104730009DF8082045A303213E480E32FCF7A6FA57
:104740009DF8082045A303213A481A32FCF79EFA47
:10475000082203A902A802F0A9F83648FCF7D2FA09
:104760009DF808009DF80C108842CDD13F4E8DF881
:1047700008508DF80C403E4D202406F1800706F5C8
:10478000807806F5C07906F5007A2A48FCF7D2F859
:10479000082203A902A802F089F836A39DF8082090
:1047A00014212448FCF772FACDE90046E88A9DF806
:1047B000082081B220231F48921D01F049FFCDE956
:1047C0000047E88A9DF80820303081B2202319483C
:1047D000921D01F03DFFCDE90048E88A9DF80820D0
:1047E000603081B220231348921D01F031FFCDE9E2
:1047F0000049E88A9DF80820903081B220230D48B6
:10480000921D01F025FFCDE9004AE88A9DF80820B5
:10481000C03081B220230748921D01F019FF0548DE
:10482000FCF770FA9DF808009DF80C108842ACD196
:10483000BDE8FF87A000002053657269616C2044C9
:104840006174612053656E640000000053656E64FE
:10485000204C6967687420446174610053656E641C
:1048600020536F756E642044617461006A690008AA
:104870004A0000204D454E553A0000002DE9FC5FEE
:10488000A44E00278046377001F040FCA24C3078DF
:10489000DFF888923021202560704FF0280AA9F5B2
:1048A000207B012802D0022864D0C5E0B4F91600AC
:1048B00010F1900FF9DD2078042801D2401C2070FF
:1048C000B1FBF8F051E09648FCF734F892484146C5
:1048D000163001F0E3FFCDE900A9282324222C2182
:1048E0008F4801F0B5FECDE9005BE08A202381B25C
:1048F00010228B4801F0ACFE8A482023CDE90050FD
:10490000E08A1022303081B2854801F0A1FE85484E
:1049100020238030CDE90050E08A1022603081B23F
:104920007F4801F095FE80482023CDE90050E08AC1
:104930001022903081B27A4801F08AFE7748202315
:104940008038CDE90050E08A1022C03081B274482E
:1049500001F07EFE75A30A2214217148FCF796F936
:104960006F48FCF7CFF9207D401E207510F0FF0F37
:10497000A9D160E0B4F9160030285DDA207808B1DA
:10498000401E2070B1FBF8F051E06548FBF7D2FF04
:1049900061484146163001F085FFCDE900A9282382
:1049A00024222C215E4801F053FECDE9005BE08A11
:1049B000202381B210225A4801F04AFE5948202390
:1049C000CDE90050E08A1022303081B2544801F025
:1049D0003FFE544820238030CDE90050E08A102269
:1049E000603081B24E4801F033FE4F482023CDE9BC
:1049F0000050E08A1022903081B2494801F028FE30
:104A0000464820238038CDE90050E08A1022C0308B
:104A100081B2434801F01CFE44A30A2214214048FD
:104A2000FCF734F93E48FCF76DF9207D401E2075F7
:104A300010F0FF0FA9D1377020780525B0FBF5F1F4
:104A400005FB110005281DD2DFE800F0030F202C24
:104A5000380036A30A2214213148FCF717F9314BEC
:104A60000A22E43B32212E480AE030A30A22142114
:104A70002B48FCF70BF92B4B0A22D03B322128485C
:104A8000FCF704F96078032824D03DE027A30A222C
:104A900014212348FCF7FAF8224B0A22BC3B3221AE
:104AA0001F48EDE721A30A2214211D48FCF7EEF868
:104AB0001C4B0A22A83B32211948E1E71BA30A221A
:104AC00014211748FCF7E2F8164B0A22943B3221D6
:104AD0001348D5E72078B0FBF5F105FB1100052858
:104AE00012D2DFE800F00306090C0F0001F07AFB98
:104AF0000AE001F099FC07E001F0ECFB04E0FDF7AF
:104B000013FA01E0FFF740FDBDE8FC5F0448FCF745
:104B1000F9B80000140000204A000020EA6B0008E9
:104B2000A0000020EA690008EA6A00084D454E55D9
:104B30003A0000007CB501212A48FCF767F9002102
:104B40002848FCF75FF928492648FCF7E5F827498B
:104B50002820CDE90001034624222C21214801F020
:104B600077FD23482024234DCDE90040E88A2346E1
:104B700081B210221B4801F06BFD1D4820238030BC
:104B8000CDE90040E88A1022303081B2154801F0AA
:104B90005FFD19482023CDE90040E88A10226030EB
:104BA00081B2104801F054FD134820238030CDE934
:104BB0000040E88A1022903081B20A4801F048FD96
:104BC0000A4820238038CDE90040E88A1022C0300E
:104BD00081B2044801F03CFDBDE87C400148FCF78F
:104BE00091B80000A0000020186E0008EA6B0008D1
:104BF0006A6900084A0000206A6A000840220249E7
:104C00000248FDF78FBD00004E0500203402002051
:104C1000FEF72ABA30B593B028216846FBF79BFA15
:104C200014210AA8FBF797FA002501200F9510958B
:104C30001195010412958DE8230004904FF4E010C3
:104C4000CDE90810022407946846FEF7F7FB08B187
:104C500072B6FEE70AA90F2081E831004FF48060A8
:104C6000CDE90D0502210AA8FEF70CFB08B172B6CA
:104C7000FEE74FF4004011900F940FA8FEF78CFA56
:104C8000002801D072B6FEE713B030BD70470000B7
:104C90000148FEF7AEBD0000FC020020F0B502683E
:104CA000194B1A4C1A4D4FF08047984205D0B84224
:104CB00003D0A04201D0A84203D122F070064A6876
:104CC0003243984205D0B84203D0A04201D0A84256
:104CD00003D122F44074CA6822434C6922F0800256
:104CE000224302608A68C2620A688262984201D1E5
:104CF00009690163012141610169C90703D00169A3
:104D000021F001010161F0BD002C014000040040D0
:104D10000008004010B501F01F030121046A99400A
:104D20008C430462016A9A401143016210BD000085
:104D300030B5036A026A22F00102026242688469A5
:104D400024F073050C682C4323F002058B682B4379
:104D50000A4DA8420BD123F00805CB6822F440721B
:104D60002B434D6923F0040315438A692A434260AB
:104D7000846149684163036230BD0000002C01403A
:104D800030B5026A036A23F0100303624368846942
:104D90000D6824F4E64444EA05248D6822F02002DC
:104DA00042EA05120B4DA8420ED1CD6822F08002D6
:104DB00042EA05124D6923F4406343EA85038D6995
:104DC00022F0400243EA85034360846149688163BD
:104DD000026230BD002C014030B5036A026A22F441
:104DE000807202624268C46923F4007324F0730580
:104DF0000C682C438D6843EA05230C4DA8420ED164
:104E0000CD6823F4006343EA05234D6922F4405240
:104E100042EA05128D6923F4806342EA051242607A
:104E2000C4614968C163036230BD0000002C0140C9
:104E300030B5046A026A22F4805202624268C36991
:104E40000D6823F4E64343EA05238D6824F40054F7
:104E500044EA0534064DA84204D14D6922F480424B
:104E600042EA85124260C36149680164046230BD50
:104E7000002C01402DE9FF5FDFF834810A264A2724
:104E80004C4D8DF808608DF80C70202408F18009D5
:104E900008F5807A08F5C07B4748FBF74BFD47A330
:104EA0009DF8082014214448FBF7F0FECDE90048A6
:104EB000E88A9DF8082081B220233F48921D01F026
:104EC000C7FBCDE90049E88A9DF80820303081B25F
:104ED00020233948921D01F0BBFBCDE9004AE88A46
:104EE0009DF80820603081B220233348921D01F0E4
:104EF000AFFBCDE9004BE88A9DF80820903081B2E5
:104F000020232D48921D01F0A3FB2E489DF8082078
:104F1000CDE90040E88A2023C03081B22648921DA6
:104F200001F096FB082203A902A801F0BFFC224869
:104F3000FBF7E8FE9DF808009DF80C108842ABD105
:104F40008DF808708DF80C601B48FBF7F3FC1EA36E
:104F50009DF8082014211848FBF798FE9DF80820BA
:104F60008023D01C009001211348D21CFBF7F8FDD0
:104F70009DF8082018A303210F480E32FBF786FE88
:104F80009DF8082018A303210B481A32FBF77EFE78
:104F9000082203A902A801F089FC0748FBF7B2FE2A
:104FA0009DF808009DF80C108842CDD1BDE8FF9F08
:104FB0006A6900084A000020A00000204D454E55B7
:104FC0003A0000006A6B0008426C69622061646A02
:104FD0007573746D656E74004272696768746E658E
:104FE00073733A200000000054696D653A20000098
:104FF0002DE9FF5FDFF834810A264A274C4D8DF8F2
:1050000008608DF80C70202408F1800908F5807A7A
:1050100008F5C07B4748FBF78DFC47A39DF80820A7
:1050200014214448FBF732FECDE90048E88A9DF898
:10503000082081B220233F48921D01F009FBCDE9F1
:105040000049E88A9DF80820303081B22023394891
:10505000921D01F0FDFACDE9004AE88A9DF808208A
:10506000603081B220233348921D01F0F1FACDE97E
:10507000004BE88A9DF80820903081B220232D480B
:10508000921D01F0E5FA2E489DF80820CDE9004078
:10509000E88A2023C03081B22648921D01F0D8FA58
:1050A000082203A902A801F001FC2248FBF72AFE0E
:1050B0009DF808009DF80C108842ABD18DF808705F
:1050C0008DF80C601B48FBF735FC1EA39DF80820EB
:1050D00014211848FBF7DAFD9DF808208023D01C26
:1050E000009001211348D21CFBF73AFD9DF80820DF
:1050F00019A303210F480E32FBF7C8FD9DF80820C5
:1051000019A303210B481A32FBF7C0FD082203A99B
:1051100002A801F0CBFB0748FBF7F4FD9DF808005F
:105120009DF80C108842CDD1BDE8FF9F6A69000848
:105130004A000020A00000204D454E553A000000D6
:105140006A6B000853657269616C20446174612068
:1051500053656E640000000053656E64204C6967FF
:10516000687420446174610053656E6420536F75E8
:105170006E6420446174610010B5406A0021C185ED
:10518000C184FEF7FAFC10BD01680C3151E8002F14
:1051900022F4907241E80023002BF5D1016814310C
:1051A00051E8002F22F0010241E80023002BF5D145
:1051B000016B012909D101680C3151E8002F22F05F
:1051C000100241E80023002BF5D1202180F8421085
:1051D00000210163704708B590F84210222901D0E0
:1051E000022008BD82684FF480539A4201D10169C0
:1051F00021B1816A9A421BD04AB10AE00268816AF1
:105200005268C2F308020A80816A891C08E00269B8
:1052100072B10268526802F07F020A70816A491C0A
:105220008162C18D491E0904090CC18503D01BE0B0
:1052300002685268F1E70168CA6822F02002CA6079
:105240000168CA6822F48072CA6001684A6922F063
:1052500001024A61202180F8421000214163026B63
:10526000012A03D0FEF746FE002008BD0163016855
:105270000C3151E8002F22F0100241E80023002BEE
:10528000F5D101680A68D20602D50A68496800911A
:10529000818DFEF771FCE7E770B50446006801698F
:1052A000E26821F44051114301612169A06808437B
:1052B000616908432168CA6841F20C639A4302435A
:1052C000CA6020684169A26921F4407111434161BB
:1052D0001E492068884202D1FEF77AF801E0FEF705
:1052E00067F800EBC00101EB0012606864218000E8
:1052F000B2FBF0F3B3FBF1F36FF018067343B2FBAC
:10530000F0F5B2FBF0F605EB8305322303EB051550
:10531000B5FBF1F5B6FBF1F605F0F00505EB06156A
:10532000B2FBF0F6B2FBF0F0B0FBF1F06FF0180258
:10533000504306EB800003EB0010B0FBF1F0216856
:1053400000F00F002844886070BD00000038014064
:1053500081628285C28500214164222180F8421049
:10536000016921B10168CA6842F48072CA600168AB
:105370004A6942F001024A610068C16841F02001B7
:10538000C160002070472DE9F843984617460D4646
:105390000446089E24E0701C22D0FDF7D5FCA0EB4B
:1053A0000800B0421AD8CEB12068C168490717D5A5
:1053B000802D15D0402D13D00168C94309070FD4A3
:1053C00001680025406800902046FFF7DDFE0820B8
:1053D000606484F840500120BDE8F8830320FBE7B7
:1053E0002068006835EA000004D00020B842D2D01E
:1053F0000020F1E70120F9E70148FEF7C5BB0000F6
:105400004403002070B51949FAF708FF194C054606
:105410001749E069FAF702FF2946FAF7A7FEE061AB
:10542000216AFAF7F5FEFAF797FF20F00040FAF745
:1054300071FF1149FAF7F2FE0146E0690546FAF7F5
:1054400095FE0E49FAF7EAFE0D49FAF719FFFAF749
:105450006FFF01460B4890F88020815410F8801FA0
:10546000491C01F07F010170256270BD9A99993E37
:105470003333333F700000200000404000007F4382
:1054800033335340CC040020FEE700000FB4054B3B
:1054900010B503A9044A029800F0FEF810BC5DF8AC
:1054A00014FB0000ED6000089C0000200FB4084BC6
:1054B00010B504A902AA039800F0EEF8044602A968
:1054C000002000F06CFC204610BC5DF814FB0000CE
:1054D0009F5D00080907090E002804DB00F1E020A9
:1054E00080F80014704700F00F0000F1E02080F811
:1054F000141D704702E008C8121F08C1002AFAD123
:1055000070477047002001E001C1121F002AFBD143
:10551000704700002DE9FF5F82B00021DDE9043013
:10552000020DDDF840B0034318D044F61050A2F24B
:10553000FF3242431514119801281FD0A5EB0B0030
:10554000401C5FEA000A4FF000064E4FDFF838912A
:10555000B046504615D5CAF1000413E01198012455
:105560004AA3012801D16FEA0B010298119AC0E900
:105570000031C0E9024206B0BDE8F09FCBF1000067
:10558000DFE704460021404A491842EB0450CDE9C8
:10559000001012E0E00707D032463B46404649463D
:1055A000FBF727F88046894632463B4610461946A7
:1055B000FBF71FF806460F466410002CEAD1DDE920
:1055C0000401DDE90023BAF1000F06DAFBF711F858
:1055D00042464B46FBF70DF805E0FBF77CF84246E8
:1055E0004B46FBF778F804460E460022284BFBF7A3
:1055F000F9F803D84FF0FF30014607E00022254BB1
:1056000020463146FAF74EFFFBF7D4F8102409E0A4
:10561000002C0ADB0A220023FAF7DCFE039B30325F
:105620001A55641E50EA0102F2D1641C039AC4F1B7
:1056300011031444119A012A03D0012208430DD109
:105640000AE0084304D000204FF0110B119072E7DC
:10565000A3EB0B056D1E0DE05B4504DD4FF0000272
:1056600005F1010504E003DA4FF00002A5F10105A0
:10567000002AECD002981199C0E90231C0E9004536
:1056800079E70000000014400000F03F3000000007
:105690000000F0430000E03F2DE9FF4F95B09A462F
:1056A000884606460025EEE1252877D100242746C6
:1056B000F94A0121039400E0044316F8013F203B1E
:1056C00001FA03F01042F7D130782A2811D06FF098
:1056D0002F033078A0F13002092A16D8039A44F03B
:1056E000020402EB820203EB42021044761C039098
:1056F000EFE758F8042B0392002A03DA504244F4EF
:105700000054039044F00204761C30782E2816D101
:1057100016F8010F44F004042A280DD06FF02F0270
:105720003078A0F13003092B09D807EB870302EB8F
:105730004303C718761CF3E758F8047B761C3078CF
:105740006C280FD006DC4C2817D068280DD06A28AA
:1057500014D104E0742810D07A280FD10DE044F45D
:1057600000140AE044F4801401E044F44014727818
:10577000824202D104F58014761C761C30786628AB
:105780000BD013DC582877D009DC002875D04528C9
:10579000F6D04628F4D047281AD193E118E06328C0
:1057A00035D0642879D0652812D18BE1702873D068
:1057B00008DC6728F1D069286FD06E280DD06F28DB
:1057C00006D1ACE073282CD0752874D0782853D03B
:1057D0005246179990476D1C54E1C4F302500228B9
:1057E00009D003280DD0D8F8001004280DD00D6082
:1057F00008F1040846E1D8F80010EA17C1E90052A0
:10580000F6E7D8F800100D80F2E70D70F0E718F811
:10581000041B8DF8001000208DF80100EB460120DC
:1058200003E058F804BB4FF0FF3061074FF0000170
:1058300002D40DE009F101018946B9420FDA814530
:10584000F8DB1BF809100029F4D108E009F1010187
:1058500089468142FADB1BF809100029F6D103982A
:105860005346A0EB090721463846179A00F080FA04
:10587000284400EB090507E044E008E10DE01BF8CF
:10588000010B524617999047B9F10109F7D25346D7
:1058900021463846179AF2E039E00A21C4F3025251
:1058A0004FF0000B0091022A06D058F8040BC117E4
:1058B000032A09D00AE023E008F1070020F00702DC
:1058C000F2E80201904605E000B2C117042A01D1B6
:1058D00040B2C117002906DA0A460021404261EBB6
:1058E00002012D2202E0220504D52B228DF804208E
:1058F000012203E0E20701D02022F7E7914657E0BA
:105900000A2100E010214FF0000B00910BE0102164
:105910004FF0000B44F004040827009103E0082036
:105920004FF0000B0090C4F30252022A05D058F841
:10593000040B0021032A08D008E008F1070020F03A
:105940000702F2E80201904603E080B2042A00D187
:10595000C0B24FF0000922072AD53278702A07D04A
:10596000DDF800C08CF0100C5CEA0B0C05D00EE0EA
:1059700040228DF80420012208E050EA010306D0FD
:1059800030238DF804308DF8052002229146009BCB
:1059900083F0080353EA0B030AD150EA010201D154
:1059A000620705D530228DF804204FF001097F1ED3
:1059B0003278582A04D039A20C920CAA02920BE039
:1059C0003BA2F9E75B46009AFAF704FD0C9B9B5C4F
:1059D000029A521E0292137050EA0102F2D102980A
:1059E00004A9081A00F1200B600702D524F48034C2
:1059F00000E001275F4502DDA7EB0B0000E000207F
:105A000000EB0B01009003984944401A0390E00317
:105A100006D453462146179A039800F0A9F9054485
:105A2000002706E001A85246C05D179990476D1CFB
:105A30007F1C4F45F6DBE0030CD553462146179AF1
:105A4000039800F095F9054404E030205246179978
:105A500090476D1C0099481E00900029F5DC08E075
:105A60000298029952460078491C02911799904772
:105A70006D1CBBF10001ABF1010BF1DC5BE100F04F
:105A800065F90544761C307800287FF40DAE19B016
:105A90002846BDE8F08F000009280100303132337C
:105AA000343536373839616263646566000000005A
:105AB0003031323334353637383941424344454644
:105AC00000000000600700D4062708F1070020F05E
:105AD0000700F0E80223804603F0004C5FEA0C0068
