:020000040800F2
:10000000C80A00200101000803210008AD1C0008F7
:1000100001210008410200085125000800000000ED
:1000200000000000000000000000000007210008A0
:100030004302000800000000052100080921000813
:100040001B0100081B0100081B0100081B01000820
:100050001B0100081B0100081B0100081B01000810
:100060001B0100081B0100081B0100081B01000800
:100070001B0100081B0100081B0100081B010008F0
:100080001B0100081B0100081B0100081B010008E0
:100090001B0100081B0100081B0100081B010008D0
:1000A0001B0100081B0100081B0100081B010008C0
:1000B0001B010008892100081B0100081B01000822
:1000C0001B0100081B0100081B0100081B010008A0
:1000D0001B010008452500081B0100081B01000842
:1000E0001B0100081B0100081B010008DFF80CD0F1
:1000F00000F02AF800480047E9250008C80A002057
:100100000648804706480047FEE7FEE7FEE7FEE7B1
:10011000FEE7FEE7FEE7FEE7FEE7FEE785210008D3
:10012000ED000008D2B201E000F8012B491EFBD21D
:1001300070470022F6E710B513460A4604461946F2
:10014000FFF7F0FF204610BD064C074D06E0E068C3
:1001500040F0010394E8070098471034AC42F6D30E
:10016000FFF7C8FFA83B0008C83B000870B504466D
:1001700000688168C943C90717D1816821F001016E
:10018000816000F07DFC05460AE000BF00F078FCCD
:10019000401B022804D920688068C043C00706D0ED
:1001A00020688068C043C007F0D0002070BDA06AFE
:1001B00040F01000A062E06A40F00100E06201201F
:1001C00070BD0000F8B500260446009600688168FE
:1001D000C943C9072DD0816841F0010181601648EB
:1001E00016490068B0FBF1F000E0401E00900028C6
:1001F000FBD100F045FC054616E000BF00F040FCD6
:10020000401B022810D920688068C043C0070BD06B
:10021000A06A40F01000A062E06A40F00100E062D5
:1002200084F824600120F8BD20688068C043C007BE
:10023000E4D10020F8BD00000C00002040420F0077
:10024000FEE7704772B6FEE710B5194800F026FACF
:100250000A21174800F084F950B9154800F0B2F8A7
:10026000144980B24FF4A57208805043000B4880B7
:10027000114802F0FFF911490F4802F0E2FA10A408
:1002800021460D4802F0B6FAC0F1800000EBD070B4
:10029000C0F34F0123462022074802F083FA0648A4
:1002A00002F0C6FABDE81040014800F057BA00005D
:1002B000B4000020140000202000002008350008B1
:1002C0005361766564210000F8B50024009490F82D
:1002D00024202546012A12D0012280F824204A68D1
:1002E0001F23072A0DD20668776B521E02EB82028B
:1002F00093409F430B6893401F43776319E00220AC
:10030000F8BD06680D2A0AD2376BD21F02EB8202B3
:1003100093409F430B6893401F43376309E0F76A9C
:100320000D3A02EB820293409F430B6893401F43B8
:10033000F7620A68072306680A2A0AD3F7680A3AA6
:1003400002EB420293409F438B6893401F43F76048
:1003500008E0376902EB420293409F438B68934069
:100360001F4337610A68102A01D0112A20D1124B8D
:1003700002689A4217D193681B0219D4936843F418
:10038000000393600968102912D10C490C4A0968CE
:10039000B1FBF2F101EB8101490000E0491E00913F
:1003A0000029FBD104E0816A41F02001816201242F
:1003B00080F824502046F8BD002401400C000020A5
:1003C00040420F000068C06C704700002DE9F0410A
:1003D0004FF0000704003D467ED0A06A002628B9F1
:1003E000E66284F82460204600F07EF82046FFF79D
:1003F000BDFEA16AC90600D420B1A06A40F0100079
:10040000A06269E0A16A21F4885141F00201A16271
:100410006268E169237B0A4347EA43010A43A16812
:100420004FF48077B94209D0012907D05FF000016D
:1004300094F814C0BCF1010F02D00AE03946F7E786
:10044000F3B1A36A43F02003A362E36A43F001031C
:10045000E3622368D3F804C02CF4694C4CEA010C25
:10046000C3F804C021688B68DFF870C003EA0C038E
:1004700013438B60A168B9420BD0012909D00CE06D
:10048000DFF85CC0A3690CEB43330B4343F400611A
:10049000DFE7218A0D05A5F580152168CB6A23F4D5
:1004A00070032B43CB62216889680E4B194091423F
:1004B00008D1E662A16A21F0020141F00101A162C6
:1004C000BDE8F081A06A20F0020040F01000A062B8
:1004D000E06A40F00100E0620120F1E7FDF7E1FF92
:1004E00000E0FFFFFE0E1FFF30B585B00021009138
:1004F00001910291039100681549884226D115485F
:10050000816941F400718161816901F40071049194
:10051000816941F004018161816901F00401049164
:10052000816941F0080181618069022400F00800BE
:100530000325049069460848CDE9004500F0AAF972
:1005400069460648CDE9004500F0A4F905B030BD84
:10055000002401400010024000080140000C01404E
:100560002DE9F84300270D460446009700F088FA6D
:10057000804620688168C90508D5A06A40F020003F
:10058000A06284F824700120BDE8F8834168C905A1
:1005900003D4C06A10F4700F2AD0022000F098FC37
:1005A0003B490968B1FBF0F62068036939490B4201
:1005B0004FEA61014FEAA1121FD1C3684FEA611CE3
:1005C00013EA0C0F19D103690B4225D1C068104200
:1005D00022D1142023E0681C0AD02DB100F050FA7B
:1005E000A0EB0800A84203D920680068800725D541
:1005F000206800688007EED52DE003690B4202D128
:10060000C168114206D0026923490A4206D1C06876
:10061000084203D1542002E0292000E0FC20464398
:10062000009816E0681C11D02DB100F029FAA0EB5B
:100630000800A8420AD90098B04207D2A06A40F048
:100640000400A06284F8247003209DE70098401CF9
:100650000090B042E6D321686FF012000860A06AF3
:1006600040F40070A06220688068C0F34240072810
:100670000CD1207B50B9A06A20F48070A062A06ADF
:10068000C00403D4A06A40F00100A06200207BE710
:100690000C000020244992244992240070B504469D
:1006A00090F8240001280DD0012084F82400204671
:1006B000FFF788FD02004FF0000005D084F8240009
:1006C000104670BD022070BDA16A40F2012399431B
:1006D00041F48071A1621F4D23681F49AB4218D1BC
:1006E0000E6816F4702F14D0A66A46F48016A6621F
:1006F0000E68760505D5A66A26F4005646F480569F
:10070000A662A66AF6040AD5E66A26F00606E6623E
:1007100006E0A66A26F48016A6625E68E9E7E06253
:1007200084F824006FF00200186020688368C3F327
:100730004243072B05D1A84208D1096811F4702F54
:1007400004D0816841F480118160B9E7816841F487
:10075000A001F9E7002801400424014010B5044637
:1007600090F82400012807D0012084F824002046B6
:10077000FFF7FCFC10B107E0022010BDA16A21F4D4
:10078000885141F00101A162002184F8241010BDBC
:1007900010B590F821100022022905D004218163B0
:1007A00080F82020012010BD01680B6823F00E03A3
:1007B0000B6001680B6823F001030B6090F8403078
:1007C000C46B012101FA03F3636080F8211080F803
:1007D0002020104610BD000010B590F82110002414
:1007E000022903D00421816301243DE001680A68E5
:1007F00022F00E020A6001680A6822F001020A6013
:100800001A4A0168914201D1012121E0174A1432AC
:10081000914201D110211BE0144A2832914201D1AA
:10082000891515E0114A3C32914201D189140FE03B
:100830000E4A5032914202D14FF4803108E00B4A07
:100840006432914202D14FF4801101E04FF0807187
:10085000064A083A5160012180F82110002180F8F1
:100860002010416B01B18847204610BD08000240AE
:1008700070B5044600F004F90546601C02D0044837
:100880000078044400F0FCF8401BA042FAD370BD8D
:10089000000000202DE9F84FDFF8B8910024A9F1FD
:1008A000040B23460F2709F1040AABF1040EC9E03B
:1008B0000125A5402A40AA427DD1674ED1F804C047
:1008C000ACEB0608B44532D014DCBCF1030F3AD0CF
:1008D00009DCBCF1000F2AD0BCF1010F1CD0BCF127
:1008E000020F31D11DE0BCF1110F17D0BCF1120F76
:1008F0002AD119E0B8F5881F19D006DCB8F5803F79
:1009000015D0B8F5801F1FD111E0B8F5001F0ED02B
:10091000B8F5041F18D10AE0CB6815E0CB681B1DA1
:1009200012E0CB6808330FE0CB680C330CE08B6827
:100930002BB1012B4FF0080303D0456104E00423E1
:1009400002E0056100E00023FF2A01D8064601E02D
:1009500000F104064FEA840501D9A5F12005D6F877
:10096000008007FA05FC28EA0C0803FA05F548EAB6
:100970000508C6F800804D68ED0062D5374DAE69B8
:1009800046F00106AE61AD6924F0030605F00105ED
:100990000095334D06EB050CDCF80850A607360F22
:1009A00007FA06F825EA0805DFF8B880404503D1C4
:1009B0004FF0000817E044E0DFF8AC80404502D17A
:1009C0004FF001080FE0DFF8A480404502D14FF05E
:1009D000020808E0DFF89880404502D14FF0030894
:1009E00001E04FF0040808FA06F848EA0508CCF8D8
:1009F00008804D68D9F80060ED024D4601D51643D8
:100A000000E096432E604D68DAF80060AD0255466E
:100A100001D5164300E096432E604D68DBF8006078
:100A2000AD035D4601D5164300E096432E604D6848
:100A3000DEF80060ED03754601D5164300E09643ED
:100A40002E60641C0D682A46E5407FF431AFBDE896
:100A5000F88F00000804014000001110001002404F
:100A60000000014000080140000C0140001001405E
:100A7000001401400AB1016170470904FBE700005E
:100A800001488068704700000000002070B5040035
:100A900025D094F83D00002520B984F83C5020462C
:100AA00000F04EF9242084F83D002068016821F010
:100AB000010101602068016841F400410160206883
:100AC000016821F40041016000F060FB4D4A61685B
:100AD000914201D84C4900E04C49884201D20120A2
:100AE00070BD4B492368B0FBF1F15E6826F03F060C
:100AF0000E435E606368934206D94FF49673594380
:100B00004FF47A73B1FBF3F12368491C1E6A26F097
:100B10003F06314319626168914210D84900401E76
:100B2000B0FBF1F2521CC2F30B02042A01D20420E2
:100B300022E0B0FBF1F0401CC0F30B001CE0A26807
:100B4000F2B301EBC10303EB0116431EB3FBF6F353
:100B50005B1C43F480431B0549D092B301EBC102F7
:100B600002EB0111401EB0FBF1F0401CC0F30B0082
:100B700040F4804040F400402168CA694CF6FF739D
:100B80009A431043C861D4E9071001432068026802
:100B900022F0C00211430160D4E90301014320683F
:100BA000826848F2FF339A4311438160D4E905011A
:100BB00008432168CA6822F0FF021043C86001E0C0
:100BC0000EE016E02068016841F001010160256433
:100BD000202084F83D00256384F83E50002070BD3D
:100BE00001EB4106431EB3FBF6F35B1CB3E70120A8
:100BF000C2E701EB4101401EB0FBF1F0401CC0F325
:100C00000B00B7E7A086010080841E0000093D00AC
:100C100040420F002DE9F84F1F4690468A46044691
:100C2000DDF82890FFF72CFF054694F83D002028BA
:100C30007FD11923012240492046009501F0C8F8D0
:100C4000002876D194F83C00012872D0012084F865
:100C50003C0020680168C90703D1016841F0010127
:100C600001602068016821F400610160212084F89E
:100C70003D00102084F83E0000262664C4F824803D
:100C80006785608D20852D48E0622B464A46514697
:100C9000204601F023F890B92068416980690090EE
:100CA00036E02A464946204601F038F950B1206C1A
:100CB000042804D12068016841F40071016001201A
:100CC000BDE8F88F606A216800780861606A401C9E
:100CD0006062618D491E6185218D491E89B2218521
:100CE00022685369DB435B070BD451B10078106174
:100CF000606A401C6062608D401E6085208D401ED1
:100D000020852A464946204601F036F80028CED1F3
:100D1000208D0028C5D154F83D0B016841F40071C5
:100D20000160202004F81E09E67766770020C7E7F7
:100D3000FFE70220C4E70000020010000000FFFFF0
:100D400010B586B0002100910191029103910068D5
:100D5000104988421BD1104CA06940F00800A061E6
:100D6000A069694600F0080004904FF440600090CC
:100D700012200190032003900848FFF78BFDE069E3
:100D800040F48000E061E06900F48000049006B067
:100D900010BD00000058004000100240000C01404F
:100DA0000248816802781144816070470000002089
:100DB000074810B5016841F010010160032000F000
:100DC00075F8002000F006F800F024F8002010BDAF
:100DD0000020024070B50D4D04464FF47A7128781A
:100DE000B1FBF0F00A490968B1FBF0F000F0A4FB98
:100DF00048B9102C07D200222146501E00F036F8C8
:100E000000206C6070BD012070BD0000000000205B
:100E10000C0000200C4808B5816941F00101816196
:100E2000816901F001010091C16941F08051C16106
:100E3000C06900F0805000900448416821F0E061F2
:100E400041F00071416008BD001002400000014007
:100E5000002809DB00F01F020121914040098000B9
:100E600000F1E020C0F8001170470000F0B40E4B14
:100E70001B680C46C3F30223C3F10705042D00D9F8
:100E80000425191D072901D2002300E0DB1E0126DD
:100E900006FA05F1491E214099409E40761E1640F3
:100EA0003143F0BC01F055BB0CED00E0064900F009
:100EB000070208684FF6FF03184040EA0220034A81
:100EC00010430860704700000CED00E00000FA05D8
:100ED00010B501460020234C012922D0022939D027
:100EE00010291DD161682268D20119D51E48C1F3AD
:100EF0008342C903805C0AD561681B4AC1F3404143
:100F0000921E515C194AB2FBF1F1484301E01849C5
:100F100048436168490203D440000321B0FBF1F06B
:100F200010BD226AC2F30121012903D1920701D524
:100F3000C80310BD022905D1626A920702D549F69D
:100F4000404010BD0329FCD121688903F9D54FF237
:100F5000244010BD00F02AF96168C1F38131491CB9
:100F60004900DBE700100240E034000800127A007C
:100F700000093D002DE9F84305460078354CC007CF
:100F800054D0E0690026C00008D4E06940F08050E9
:100F9000E061E069012600F0805000902E48016871
:100FA000C90512D40168804641F480710160FFF7E1
:100FB00067FD074605E000BFFFF762FDC01B642820
:100FC00023D8D8F80000C005F6D5206A10F4407088
:100FD00021D0A98801F4407181421CD0206A1F49A8
:100FE000012220F440700A6000220A602062C007DB
:100FF00011D0FFF745FD074641F2883808E000BFF1
:10100000FFF73EFDC11B414502D90320BDE8F8832F
:10101000206A8007F4D5206A696820F4407008438C
:1010200020621EB1E06920F08050E06128788007DE
:1010300005D56068A96820F44040084360602878BE
:10104000C00605D56068E96820F480000843606048
:101050000020DBE7001002400070004040044242E4
:101060002DE9F0470F46050061D0434E306800F08F
:101070000700B84209D2306820F0070038433060DA
:10108000306800F00700B84251D128683B4C810716
:1010900012D5400703D5606840F4E06060602878AE
:1010A000000703D5606840F4605060606068A9681C
:1010B00020F0F000084360602878C00728D06868F6
:1010C000012810D02168022810D0890700292EDAC3
:1010D000616821F0030101436160FFF7D1FC8046A4
:1010E00041F288390DE021688903EFE78901EDE7D6
:1010F000FFF7C6FCA0EB0801494502D90320BDE873
:10110000F0876068696800F00C00B0EB810FEFD1E8
:10111000306800F00700B8420BD9306820F00700B3
:1011200038433060306800F00700B84201D0012039
:10113000E5E72878400705D56068E96820F4E060B5
:10114000084360602878000706D56068296920F4A4
:10115000605040EAC100606000F038F86168084AF9
:10116000C1F30311515CC840064908600648006895
:10117000FFF730FE0020C2E70020024000100240CE
:10118000F03400080C000020040000200448054949
:1011900000684968044AC1F30221515CC8407047A5
:1011A0000C000020001002400035000804480549EA
:1011B00000684968044AC1F3C221515CC8407047C5
:1011C0000C00002000100240003500080E4A516853
:1011D0000E4801F00C03042B11D0082B0FD10C4842
:1011E000C1F38343C903C05C0AD55168084AC1F3FF
:1011F0004041921E515C054A5043B0FBF1F07047EC
:1012000004494843704700000010024000127A0071
:10121000CE34000800093D002DE9F84F040070D0DD
:101220002078C04DC00749D06868C0F3810001280C
:1012300007D06868C0F38100022809D16868C0033C
:1012400006D52868800339D560680028E7D035E0E6
:101250006068B0F5803F0BD010B1B0F5A02F11D071
:10126000286820F480302860286820F4802002E07C
:10127000286840F480302860606890B1FFF700FC77
:1012800006460AE0286840F480202860F0E700BFA6
:10129000FFF7F6FB801B642873D828688003F7D516
:1012A0000CE0FFF7EDFB064605E000BFFFF7E8FBAB
:1012B000801B6428F0D828688003F7D420789A4EE1
:1012C00080074FF001094FF0000839D5686810F029
:1012D0000C0F07D06868C0F38100022809D1686844
:1012E000C00306D42868800714D52069012808D1D6
:1012F00010E02069B0B1C6F80090FFF7C1FB0746C7
:1013000005E00AE1FFF7BCFBC01B0228C4D828682F
:101310008007F7D52868616920F0F80040EAC1002D
:1013200028600DE0C6F80080FFF7AAFB074604E03E
:10133000FFF7A6FBC01B022823D828688007F7D434
:10134000207800072CD57948A169D9B1C0F8009060
:10135000FFF796FB074604E0FFF792FBC01B02284D
:101360000FD8686A8007F7D571484FF4FA510068C2
:10137000B0FBF1F0009000BF0098411E0091FAD23E
:101380000EE080E0C0F80080FFF77AFB074604E03B
:10139000FFF776FBC01B022875D8686A8007F7D470
:1013A0002078400760D5E8690027C00008D4E869C4
:1013B00040F08050E861E869012700F0805000901B
:1013C0005C480168C90513D40168834641F4807103
:1013D0000160FFF755FB824606E000BFFFF750FBB8
:1013E000A0EB0A0064284ED8DBF80000C005F5D554
:1013F000E06801280AD008B1052813D0286A20F037
:1014000001002862286A20F0040002E0286A40F007
:1014100001002862E06841F2883B98B1FFF730FB99
:1014200082460BE0286A40F004002862EEE700BF25
:10143000FFF726FBA0EB0A0159455AD8286A800716
:10144000F6D50CE0FFF71CFB824605E0FFF718FB22
:10145000A0EB0A0159454CD8286A8007F6D41FB181
:10146000E86920F08050E861E06988B36968C1F3F9
:101470008101022944D00228C6F8608004D0FFF719
:10148000FFFA044638E034E0FFF7FAFA074604E0D2
:10149000FFF7F6FAC01B02282BD828688001F7D482
:1014A000206AB0F5803F05D16868A16820F400305B
:1014B00008436860D4E908010843696821F474119D
:1014C00008436860C6F86090FFF7DAFA044606E061
:1014D00025E000BFFFF7D4FA001B022809D82868CE
:1014E0008001F7D51BE000BFFFF7CAFA001B0228F6
:1014F00002D90320BDE8F88F28688001F4D40EE0FB
:101500000128F7D06868226A00F48031914204D142
:10151000616A00F47010884201D00120EAE70020DF
:10152000E8E700000010024000004242800442420E
:101530000C0000200070004010B5401EB0F1807F0C
:1015400001D3012010BD4FF0E02460610F2160172E
:1015500000F0FFFF0020A06107202061002010BDE7
:101560007047704770B590F83C20012A26D00124BE
:1015700080F83C40022280F83D2003685A689D684C
:1015800022F070060A6832435A600D4B02689A4294
:1015900008D0B2F1804F05D00A4B9A4202D00A4BD4
:1015A0009A4204D1496825F080031943916080F87C
:1015B0003D40002180F83C10084670BD022070BDFF
:1015C000002C0140000400400008004070472DE955
:1015D000F04104460068C66805694FF00007A90796
:1015E00013D5B10711D5F91E0161012020772068BC
:1015F00080698007204602D0FFF7E8FF04E000F092
:10160000A5F8204600F054F92777680716D570072B
:1016100014D521686FF0040008610220207720684B
:10162000806910F4407F204602D0FFF7CFFF04E02E
:1016300000F08CF8204600F03BF92777280715D5F5
:10164000300713D521686FF0080008610420207767
:101650002068C0698007204602D0FFF7B7FF04E08A
:1016600000F074F8204600F023F92777E80616D535
:10167000F00614D521686FF010000861082020776B
:101680002068C06910F4407F204602D0FFF79EFF1B
:1016900004E000F05BF8204600F00AF92777E8073D
:1016A00008D0F00706D021686FF0010008612046DD
:1016B00000F04EF9280608D5300606D521686FF0EF
:1016C000800008612046FFF74BFF680608D57006CA
:1016D00006D521686FF040000861204600F039F916
:1016E000A8060AD5B00608D521686FF02000086169
:1016F0002046BDE8F041FFF734BFBDE8F0810000AF
:1017000000B585B00021009101910291039100681C
:101710000B49884211D10B48816941F00401816174
:101720008069694600F00400049040200090022087
:10173000019003900448FFF7ADF805B000BD00002C
:10174000000400400010024000080140704770B5DE
:10175000044690F83C0000260D4601280FD00120D9
:1017600084F83C006AB1042A1DD0082A2FD00C2A24
:101770003FD00126002084F83C00304670BD022096
:1017800070BD206800F050FD2068816941F00801BB
:1017900081612068816921F004018161206881698B
:1017A0002A69114311E0206800F066FD2068816914
:1017B00041F4006181612068816921F48061816167
:1017C000206881692A6941EA02218161D2E72068A3
:1017D00000F07EFD2068C16941F00801C161206808
:1017E000C16921F00401C1612068C1692A691143FE
:1017F00011E0206800F098FD2068C16941F40061A3
:10180000C1612068C16921F48061C1612068C1693A
:101810002A6941EA0221C161ACE710B5040003D096
:1018200094F83D0010B107E0012010BD002084F8BD
:101830003C00204600F01EF8022084F83D00211DE7
:10184000206800F0A7FC012084F8460084F83E00E0
:1018500084F83F0084F8400084F8410084F8420096
:1018600084F8430084F8440084F8450084F83D007F
:10187000002010BD08B500680B49884212D10B4802
:10188000C16941F00201C161C069002200F002009B
:10189000009011461D20FFF7E9FABDE808401D2021
:1018A000FFF7D6BA08BD0000000400400010024057
:1018B0007047000010B50446022249B104290ED039
:1018C000082913D094F84100012816D0012010BD3A
:1018D00094F83E000128F9D184F83E200FE094F8F6
:1018E0003F000128F2D184F83F2008E094F840003E
:1018F0000128EBD184F8402001E084F84120012246
:10190000206800F083FC0F492068884203D1426CB4
:1019100042F4004242642068884208D0B0F1804F0F
:1019200005D00949884202D00849884204D181681B
:1019300001F00701062903D0016841F001010160AF
:10194000002010BD002C01400004004000080040B1
:101950007047704770477047F8B5016804460868DB
:10196000CA684B6910F00F0F4FF0000559D003F013
:10197000010602F49077374365D0C10705D0D10541
:1019800003D5616C41F001016164410705D5D907B8
:1019900003D0616C41F002016164810705D5D9076C
:1019A00003D0616C41F004016164010707D502F0C6
:1019B0002001314303D0616C41F008016164616C26
:1019C00000293AD0800604D5900602D5204600F0C2
:1019D000FCFC20684069616CC0F38010090700D4EA
:1019E00060B3204600F0CAFC20684069400621D55B
:1019F0002068143050E8001F21F0400140E8001238
:101A0000002AF5D1E06BA8B16D494163E06BFEF7A8
:101A1000E3FE002811D0E06B416B01B0BDE8F0405F
:101A2000084783060FD593060DD52046BDE8F8403C
:101A300000F0CBBC2046FFF78EFFF8BD2046FFF735
:101A40008AFF6564F8BD266B2023012E7CD1C60673
:101A50007AD5D60678D508684868009048694FF06E
:101A60000206400640D5E16B086840680004000C9F
:101A7000E8D0A28D8242E5D9E085886920282DD062
:101A800020680C3050E8001F21F4807140E80012FB
:101A9000002AF5D12068143050E8001F21F0010120
:101AA00040E80012002AF5D12068143050E8001FE9
:101AB00021F0400140E80012002AF5D184F84230BC
:101AC000256320680C3050E8001F21F0100140E829
:101AD0000012002AF5D1E06BFEF75AFE6663A08D76
:101AE000E18D401A81B22AE0A08DE18D401A81B2C9
:101AF000E08D0028A6D00029A4D022680C3252E83C
:101B0000000F20F4907042E80007002FF5D1206804
:101B1000143050E8002F22F0010240E80027002F87
:101B2000F5D184F84230256320680C3050E8002F4E
:101B300022F0100240E80023002BF5D16663204616
:101B4000FFF708FFF8BDFFE705062BD5150629D5D9
:101B500094F841002128F5D1A068B0F5805F01D14B
:101B60002069B0B1206A411C216221680078486078
:101B7000E08C401E0004000CE084E3D12068C168C2
:101B800021F08001C1602068C16841F04001C1605E
:101B9000D8E7206A0088C0F308004860206A801CEB
:101BA0002062E5E74006CDD55006CBD5CA68204671
:101BB00022F04002CA6084F8413000F076F8C1E7B4
:101BC0006D23000870B5040004D094F8410000258E
:101BD00010B106E0012070BD84F84050204600F0AE
:101BE00023F8242084F841002068C16821F40051C2
:101BF000C160204600F04AFC2068016921F4904150
:101C000001612068416921F02A0141612068C168B1
:101C100041F40051C1606564202084F8410084F8DB
:101C200042006563002070BD30B585B0002400948B
:101C30000194029403940068184988422CD11848F2
:101C4000816941F480418161816901F4804104919D
:101C5000816941F0040181618069124D00F0040046
:101C600004904FF400700090022001900320039034
:101C700069462846FEF70EFE2815CDE900046946A0
:101C800028460294FEF706FE002211462520FFF7A3
:101C9000EDF82520FFF7DCF805B030BD0038014035
:101CA000001002400008014070477047FEE70168DD
:101CB0004A69D24352050FD46FF480624A61002111
:101CC00040F8301F202242738173026942F00402FF
:101CD000026101730120704700207047F8B5044687
:101CE000C06A1E460D461746082807D0012805D0B1
:101CF00010F5803F02D0206B122804D120680168C3
:101D000041F480710160134600224FF0011120461A
:101D1000009600F05DF840B120680068C00502D56B
:101D20004FF4007020640320F8BD2069B0F5804FA7
:101D30000ED00620216800EAD51040F0F0000861BE
:101D400033463A460B49204600F08AF878B902E05B
:101D500005F0FE0000E0E8B221680861054933465D
:101D60003A46891F204600F07BF80028DCD001208D
:101D7000F8BD00000800010070B516460D46044687
:101D80001EE02046FFF793FF08B1012070BD681CDC
:101D900016D0FEF775FE801BA84200D885B92068D2
:101DA0004069C04340070BD5002044F8300F202184
:101DB0006173A073216941F0200121612073E4E780
:101DC00020684069C0434007DBD4002070BD00009C
:101DD0002DE9F047984617460D460446C1F30746DD
:101DE000DDF820902AE000BFB8F1FF3F26D0FEF7D3
:101DF00047FEA0EB0901414502D8B8F1000F1DD103
:101E00002068012E16D0806925EA00000004000C2D
:101E100012D00020B84211D1002044F8300F202108
:101E20006173A073216941F02001216120730120B9
:101E3000BDE8F0874069E7E70120EBE72068012E65
:101E40000AD0806925EA00000004000C06D00020BA
:101E5000B842C9D00020EBE74069F3E70120F7E77B
:101E60002DE9F047984616460D4604464FF0000906
:101E70004FF0200AC1F3074723E020684069C043C0
:101E8000400515D42068016841F4007101602168A3
:101E90006FF480604861C4F8309084F83DA084F805
:101EA0003E90216C41F00401216484F83C9021E0D3
:101EB000701C06D0FEF7E4FDA0EB0800B04203D88A
:101EC00016B1012F1FD021E02068012F15D08069A5
:101ED00025EA00000004000C18D000BF44F8309F31
:101EE00084F80DA084F80E90216941F02001216151
:101EF00084F80C900120BDE8F087406925EA0000D5
:101F00000004000CEAD12068406901E02068806983
:101F100025EA00000004000CAFD1ECE770B51646CE
:101F20000D4604461EE02046FFF7C1FE08B1012021
:101F300070BD681C16D0FEF7A3FD801BA84200D818
:101F400085B920684069C04300060BD5002044F8DD
:101F5000300F20216173A073216941F020012161BC
:101F60002073E4E720684069C0430006DBD400200A
:101F700070BD00003EB50024104800940194029406
:101F80000D498460016004730475012505614FF4F7
:101F900060214460C161FEF719FA08B1FEF752F9F9
:101FA0000095CDE9015469460448FEF78DF90028F3
:101FB00001D0FEF747F93EBD00240140B4000020E7
:101FC00000B585B00020019002900390104881690F
:101FD00041F020018161816901F020010491816952
:101FE00041F004018161816901F00401049181697A
:101FF00041F0080181618069694600F008000490A1
:10200000782000900348FEF745FC05B000BD0000B5
:1020100000100240000C01400D4810B50B49016052
:102020000C49416000214FF480428160C0E90312F5
:1020300041618161C1610162FEF728FD002803D082
:10204000BDE81040FEF7FEB810BD0000005800408B
:10205000E4000020801A060010B58AB0002407941E
:102060001C2168460894FEF764F81648144901607C
:102070004721C0E9011440F2F311C0E9031484615F
:10208000FFF7CBFB08B1FEF7DDF8079407A90D4871
:102090000894FFF767FA08B1FEF7D4F86020CDE99D
:1020A000000402940022694606480494FFF74FFB9F
:1020B00008B1FEF7C7F80348FFF722FB0AB010BDCE
:1020C00000040040380100200C4810B50A490160A6
:1020D0004FF4E1314160002181600C22C160C0E910
:1020E00004128161C161FFF76DFD002803D0BDE8D6
:1020F0001040FEF7A7B810BD003801408001002055
:10210000FEE7FEE770477047FEF74ABE30B593B072
:1021100028216846FEF70DF814210AA8FEF709F8F1
:10212000002501200F9510951195010412958DE859
:10213000230004904FF4E010CDE908100224079426
:102140006846FFF769F808B172B6FEE70AA90F20E2
:1021500081E831004FF48060CDE90D0502210AA825
:10216000FEF77EFF08B172B6FEE74FF40040119013
:102170000F940FA8FEF7FEFE002801D072B6FEE70E
:1021800013B030BD704700000148FFF720BA0000CF
:1021900038010020F0B50268194B1A4C1A4D4FF067
:1021A0008047984205D0B84203D0A04201D0A8424F
:1021B00003D122F070064A683243984205D0B842F3
:1021C00003D0A04201D0A84203D122F44074CA68CF
:1021D00022434C6922F08002224302608A68C26274
:1021E0000A688262984201D1096901630121416153
:1021F0000169C90703D0016921F001010161F0BD46
:10220000002C0140000400400008004010B501F01F
:102210001F030121046A99408C430462016A9A40B9
:102220001143016210BD000030B5036A026A22F05A
:10223000010202624268846924F073050C682C4331
:1022400023F002058B682B430A4DA8420BD123F0E3
:102250000805CB6822F440722B434D6923F0040338
:1022600015438A692A434260846149684163036275
:1022700030BD0000002C014030B5026A036A23F033
:1022800010030362436884690D6824F4E64444EA59
:1022900005248D6822F0200242EA05120B4DA84267
:1022A0000ED1CD6822F0800242EA05124D6923F476
:1022B000406343EA85038D6922F0400243EA8503C7
:1022C0004360846149688163026230BD002C014033
:1022D00030B5036A026A22F4807202624268C469FD
:1022E00023F4007324F073050C682C438D6843EAD3
:1022F00005230C4DA8420ED1CD6823F4006343EAB8
:1023000005234D6922F4405242EA05128D6923F4F7
:10231000806342EA05124260C4614968C163036296
:1023200030BD0000002C014030B5046A026A22F47E
:10233000805202624268C3690D6823F4E64343EAAF
:1023400005238D6824F4005444EA0534064DA84260
:1023500004D14D6922F4804242EA85124260C36191
:1023600049680164046230BD002C014010B5406A28
:102370000021C185C184FFF7EEFA10BD01680C3160
:1023800051E8002F22F4907241E80023002BF5D190
:102390000168143151E8002F22F0010241E80023C6
:1023A000002BF5D1016B012909D101680C3151E8ED
:1023B000002F22F0100241E80023002BF5D120214C
:1023C00080F8421000210163704708B590F8421070
:1023D000222901D0022008BD82684FF480539A421E
:1023E00001D1016921B1816A9A421BD04AB10AE048
:1023F0000268816A5268C2F308020A80816A891CF5
:1024000008E0026972B10268526802F07F020A7045
:10241000816A491C8162C18D491E0904090CC1856C
:1024200003D01BE002685268F1E70168CA6822F035
:102430002002CA600168CA6822F48072CA6001681A
:102440004A6922F001024A61202180F842100021ED
:102450004163026B012A03D0FFF726FC002008BD70
:10246000016301680C3151E8002F22F0100241E8AD
:102470000023002BF5D101680A68D20602D50A684C
:1024800049680091818DFFF765FAE7E770B504466A
:1024900000680169E26821F440511143016121693A
:1024A000A0680843616908432168CA6841F20C6367
:1024B0009A430243CA6020684169A26921F44071CD
:1024C000114341611E492068884202D1FEF76EFE29
:1024D00001E0FEF75BFE00EBC00101EB001260685B
:1024E00064218000B2FBF0F3B3FBF1F36FF0180648
:1024F0007343B2FBF0F5B2FBF0F605EB8305322334
:1025000003EB0515B5FBF1F5B6FBF1F605F0F005AB
:1025100005EB0615B2FBF0F6B2FBF0F0B0FBF1F004
:102520006FF01802504306EB800003EB0010B0FB85
:10253000F1F0216800F00F002844886070BD0000B1
:10254000003801400148FFF707BA00008001002071
:10255000FEE70907090E002804DB00F1E02080F8FF
:102560000014704700F00F0000F1E02080F8141D07
:10257000704702E008C8121F08C1002AFAD170474C
:102580007047002001E001C1121F002AFBD17047F3
:10259000C000401EFDD27047034902480968008808
:1025A00048637047120000203801002070B50D4CC0
:1025B0004FF4FA7506E0401C2080FFF7EDFF012084
:1025C000FEF756F92088A842F5D306E0401E208089
:1025D000FFF7E2FF0120FEF74BF920880028F5D134
:1025E00070BD000012000020FEF7E2FBFFF78EFD39
:1025F000FFF7E6FCFFF7BEFCFFF70EFDFFF72CFD33
:10260000FFF762FD00210C48FFF754F96420FEF744
:102610002FF90A4800F014F86420FEF729F907485A
:1026200000F00EF86420FEF723F900BFFFF7BEFFAD
:10263000FDF70AFEFAE70000380100202000002024
:1026400010B50446084B094A094900F043F92046F1
:1026500000F0C9FC0021204600F0D5FC2046BDE872
:10266000104000F007B8000001340008A93000084D
:10267000443A000801680A7C90F83810406B5143D6
:10268000C900FDF756BD2DE9F041044690F87000F1
:102690001F4615460E4630B1012809D002280CD03D
:1026A000032815D10FE0E16D20468847284408E053
:1026B000E16D20468847301A09E0E16D20468847E1
:1026C000281A85B204E0E16D20468847304486B27E
:1026D0002846A4F86460A4F8660039460025204620
:1026E00000F0EEFA010003D0204600F019FA85B29E
:1026F0002846BDE8F08100003FB581B0044690F85F
:102700008C00089900283AD0BDF81000002836D077
:10271000012811D9022902D0032907D00CE0BDF805
:102720000820101A401CADF8080005E0BDF80C2088
:10273000101A401CADF80C0011F0010521D0B4F8BE
:102740004810BDF80800814219D8B4F84A108142F7
:1027500015D9B4F84E30B4F84C2004A90DF10C0092
:1027600000F050F900280AD00095206BBDF8103019
:10277000BDF80C208568BDF808102046A84705B0B4
:1027800030BDB4F84C10BDF80C008142F7D8B4F855
:102790004E108142F3D9B4F84A30B4F8482004A965
:1027A00002A8DDE730B4024C446030BC00F057B9F9
:1027B0006D30000870B5044600F082FA010016D0B2
:1027C000204600F0C0FA04F1600094F87A10054643
:1027D00000F082F984F8900014F87B1F284600F07E
:1027E0007BF961782846BDE8704000F075B900209B
:1027F00070BD0000014A426000F076BB6D300008F9
:1028000070B50D461E460446B0F84E10B0F84C00A8
:10281000049B00F0B2FA002809D0B4F84A10B4F8CA
:10282000480033462A46BDE8704000F0A6BA70BDA5
:1028300010B5044600F031FB2046BDE8104000F022
:10284000DABB10B50446806D884209D004F17400EB
:10285000A16500F0EDFA2046BDE8104000F056B842
:1028600010BD00000149C16570470000D52A00086D
:102870000021A0F85010A0F854104FF6FF71A0F8F6
:102880005210A0F85610016B4968084770B504460D
:1028900000250498A565E362616384F8382084F814
:1028A000395084F86D5084F8915084F88D5001218E
:1028B00084F8921084F893102063016820468847BA
:1028C0002046FFF7D5FF2046FFF7CCFF84F8705075
:1028D00070BD00007CB50C46009313460546084ABF
:1028E000084900F098FB01A800F09CFA0146064B4D
:1028F00000949DF804202846FFF7C8FF7CBD000027
:10290000D1310008F9320008952D000810B5816D0D
:1029100000291AD090F9813080F88E3090F9822009
:1029200080F88F2090F88D1000290ED001290DD04D
:1029300090F97E4090F980100C449C4201DD80F8B3
:102940008E408A4201DD80F88F1010BD90F983100F
:102950008B4201DA80F88E1090F98410F1E72BB1E8
:10296000012B05D0022B06D0104402E0084400E001
:10297000801A80B27047401AFBE72BB1012B05D0BB
:10298000022B06D0401A02E0104400E0084480B256
:102990007047801AFBE738B50446B0F8560000903F
:1029A000B4F85230B4F85420B4F850102046FFF771
:1029B00027FF18B3012084F88C00B4F84810B4F84D
:1029C0005000814201D2A4F84800B4F84A10B4F88B
:1029D0005200814201D9A4F84A00B4F84C10B4F86E
:1029E0005400814201D2A4F84C00B4F84E10B4F85F
:1029F0005600814201D9A4F84E0038BD002084F869
:102A00008C0038BD30B504880D882544ADB2AC4289
:102A100005D99C4202D25D1EADB200E014469C4234
:102A200001D2954201D8002030BD944200D2144614
:102A30009D4200D91D460480281B0880012030BD1E
:102A400038B5C58F049C0094521BC46A92B2A0474B
:102A500038BD38B5049C0094FFF7F2FF38BD2DE96E
:102A6000F0471C4691468846064600F02BFD00259F
:102A70004FF6FF7772682178304690470346B84298
:102A800025D0641CA3F57F40FE38F3D04A4641466A
:102A90003046FFF7F8FD96F8701031B1012907D0E4
:102AA000022908D003290FD10AE008EB000104E055
:102AB00009EB000106E0A8EB00011FFA81F803E032
:102AC000A9EB00011FFA81F9284485B2D2E7284614
:102AD000BDE8F0870020704710B50C4600F006F8FE
:102AE0000122641EA240801A40B210BD30B50568B4
:102AF000047B2A78E2406318DBB2082B09D36D1CF3
:102B000005602D78C4F10804A5401543083BEAB2DE
:102B1000DBB201248C40641E14400373204630BD98
:102B20002DE9F843054600F1600400F00CF915F9B1
:102B30006B6F2046E97BFFF7CFFF8146297C20465B
:102B4000FFF7CAFF0746697C20466B3DFFF7C4FFCD
:102B5000804694F90A00002857DDF019404247B238
:102B6000237CA0883A464946FFF7F9FEA080237CE3
:102B70003A46E0884946FFF700FFE080A188277CBD
:102B800002460B4637B1012F0AD0022F40D0032F47
:102B90000FD146E094F90A7030443B449BB207E001
:102BA000891B491C94F90A705B1C89B29BB238449A
:102BB00080B200902846FFF723FE30B30020207239
:102BC00084F8090095F876102046FFF78FFF8146BC
:102BD00095F877102046FFF789FF074600224946FF
:102BE000284600F027F801223946284600F022F84E
:102BF00001212046FFF77AFF0028EFD194F9090060
:102C0000B042DFDBA07B85F892004046BDE8F88348
:102C100094F90A705B1CC91B491C89B29BB2921BB8
:102C200004E094F90A7033449BB2D21B521C92B256
:102C3000401CBDE72DE9F74F84B00D46049C94F885
:102C4000687094F869806034A07AC01BC6B201969F
:102C5000B54200D201954FFA88F279B2A088B4F853
:102C600006B0237C92468946FFF779FE0290237CCA
:102C7000524649465846FFF780FE0246069808B17C
:102C8000A17B02E0607B50B9E17B049880F8921050
:102C9000207C0090DDE901310498FFF72DFDB5425D
:102CA00007D3A81BC5B208F10100002700F0FF08F8
:102CB000CAE77819207284F8098007B0BDE8F08F60
:102CC00070B50D460146806D1730FF2D10D8612D6F
:102CD00002D3B1F8881003E0412D02D3B1F8861079
:102CE0000844417819B30278AA42F9D1801C70BD1A
:102CF000B1F88A100C1826460021304600F019F869
:102D000004440221304600F014F8361DA842F3D3E3
:102D10004FF6FF72207802EA00216078084306D05F
:102D2000A84201D1E01C70BDA0780444F2E7002065
:102D300070BD08444FF6FF720178407802EA012125
:102D4000084480B2704730B5054600F16004016662
:102D50000020207315F8781F2046FFF7C7FEA072E9
:102D600069782046FFF7C2FEE072A87EA07310B11A
:102D70000020E07330BD0120FBE78A4205D2834288
:102D800001D89A4203D9012070478342F9D8002024
:102D900070470000F0B502F007060124B44000259A
:102DA00090F892E0E7B2DDF814C02C46BEF1010FB6
:102DB00001D83D4600D03C46076822F00702BCF12E
:102DC000000F3F7C07FB02F7BAB2476B3A4411444D
:102DD00009D108785B1E284360401B0401F8010BF1
:102DE0001B0CF6D1F0BD0A78761C2A436240A3F191
:102DF00001030A7016F007069BB206D06A06150E8C
:102E00006206140E002BEED1F0BD428F114490F8F3
:102E10009220012A03D800BF4FF00105F2D04FF0F5
:102E20000104EFE70821017000487047C802002044
:102E300070B5054608782870487868708878A8705A
:102E4000C878E870087928714879687188790C46E3
:102E5000A871E079E871207A2872607A6872A07AA5
:102E6000A872E07AE872207B2873607B6873A07B8D
:102E7000A873E07BE873207C287411212046FFF7BB
:102E800058FF688213212046FFF753FFA8821521BF
:102E90002046FFF74EFFE88270BD2DE9F843064655
:102EA00090F8387090F83950006800244FF6FF7899
:102EB00090F81190316830462A460B7C716B04FB08
:102EC00003FC1FFA8CFC08EACC0C61440091002141
:102ED00000F07AF8641C6D1CE4B2EDB2BC4201D281
:102EE0004D45E7D3BDE8F8832DE9F04705460020BE
:102EF00085F86A0088466FF03F06284600F0E2FA3F
:102F0000002427464FF6FF794FF6FE7A6A6898F854
:102F1000001028469047014648450FD008F10108A7
:102F20005145F3D02846FFF745FC87B216F1400F14
:102F300001D195F99060E01984B2E7E795F96A103C
:102F400049B1E01B084495F99010002E084484B262
:102F500001DDA01984B22046BDE8F087F0B590F8F5
:102F600038204FF6FF75036805EAC2018187197C96
:102F700005EAC101418790F8394005EAC401C187DB
:102F80005E7CA718B74201D9321B92B205EAC20291
:102F900020F8401F11444180998A8180D98AC180DC
:102FA000F0BDFFF7DBBF0021A0F84810B0F84410D7
:102FB000A0F84A10B0F84010A0F84C10B0F8421039
:102FC000A0F84E10FFF7E7BC1CB58DF805108DF882
:102FD0000620049C8DF804300094012284686B461E
:102FE0000F21A0471CBD30B484680023A44630BC28
:102FF0001A460A21604730B484680023A44630BCD6
:103000001A461021604730B484680023A4460A465B
:1030100030BC0B2160472DE9F04115460E460446B1
:10302000069F00F009F86761A660C4E903532046D3
:10303000BDE8F04100F012B8002140F8081B064A34
:10304000026042608260C260C17681770161FF21C7
:10305000017780F820107047FD33000830B4846891
:103060000023A44630BC1A4609216047080001D05D
:103070000A2801D14FF6FF70704730B4046900236D
:10308000A44630BC1A461921604713B501220469D1
:1030900001AB1721A0471CBD30B404690023A4462E
:1030A00030BC1A461821604738B5184818290DD089
:1030B00004DC142907D0172923D10AE0192916D0D6
:1030C00020291ED11FE0FEF7A7FF1CE000210170A0
:1030D00019E00F4C08E000BF017813F8015B65545C
:1030E000491C521E0170D2B2002AF5D10BE04FF4F8
:1030F0007A7100910378064A78210648FDF78AFD27
:1031000008B1002038BD012038BD000010000020AB
:10311000C8010020E400002030B4C4680023A446A5
:1031200030BC1A461921604730B4C4680023A44655
:103130000A4630BC1621604730B4C4680023A44658
:103140000A4630BC1521604730B4C4681346A44613
:103150000A4630BC17216047F8B50C464FEA000517
:1031600014F8011B182924D00EDC152919D01629B2
:1031700017D0172923D120788DF800006A46012145
:103180002846FFF7E1FF0AE0192912D0FE2916D1DF
:1031900022788DF800202921284600F077F9641C58
:1031A000DEE722788DF80020EE6800232846B0473D
:1031B000F5E70023EE681A462846B047D0E7F8BD89
:1031C00030B4C4680023A44630BC1A4618216047B6
:1031D0002DE9F041DFF8B08014460646A1F1140253
:1031E000002798F800001D46062A4AD2DFE802F0C0
:1031F0002F03161B3E4310B13046FFF73EFF30460B
:10320000FFF74AFF00213046FFF73FFF21463046D7
:10321000FFF73BFF012088F8000029E021463046F7
:10322000FFF733FF24E050B13046FFF726FF06E0FA
:103230001821304600F030F9183CE4B21835182C4B
:103240002A46F5D82146304600F026F90EE096F8D9
:103250002400FF2802D1782086F8240037692B4605
:1032600022463046BC46BDE8F041604788F8007011
:103270000120BDE8F0810028F8D03046FFF7FDFEC0
:10328000F4E70020F5E700001800002070B50023E7
:10329000456904461A462821A8470023E5681A46CE
:1032A00014212046A84701224B21204600F0EEF8C9
:1032B000206829210279204600F0E8F800224B21FD
:1032C000204600F0E3F8206829210279204600F02A
:1032D000DDF801224B21204600F0D8F82068292192
:1032E00042792046BDE8704000F0D0B80160897C8A
:1032F00080F822107047000070B50C46054600F0BB
:1033000019F888B9092C0BD00A2C01D0002070BD07
:103310002846FFF7BBFF05492846FFF71DFF03E0DE
:1033200003492846FFF7E2FF012070BD763A000806
:10333000783B00082DE9F0411E46144605460B294E
:1033400008D00D290ED00E291ED00F2927D000201D
:10335000BDE8F0811AB12849FFF7FEFE4AE0264990
:10336000491FF9E74AB124490C31FFF7F5FE2868F7
:1033700090F8130085F822003CE01F49491DFFF733
:10338000EBFE2868807CF5E7FFF71AFF81212846CD
:10339000FFF7D2FE21462846FFF7C6FE27E0FFF7DB
:1033A0000FFF707995F8221001EBC000C7B24021E1
:1033B0002846FFF7C1FE102040EA17112846FFF704
:1033C000BBFE07F00F012846FFF7AEFEB07940F0D4
:1033D000B0012846FFF7A8FE30793268C006010E1A
:1033E0002846FFF7B1FE641E14F0FF04F4D128460E
:1033F000FFF792FE0120ABE7553A00080020704726
:1034000010B5214B4D2933D00CDC2B2918D004DC0E
:10341000292920D02A290ED114E02D291FD04C298A
:1034200009D120E0002250292AD0512928D0522940
:1034300026D0532924D0012180F82710012010BD67
:1034400000BFFBE700204FF4A07100BF401C80B21A
:103450008842FAD3F2E70120FDF70AFAEEE70520E9
:10346000FFF796F8EAE74FF4806103E0012203E0FA
:103470004FF40061002AF9D11846FDF7FBFADDE7A9
:1034800080F82720DAE70000000C014030B44469DE
:103490000023A44630BC60472DE9F04115460E4696
:1034A0000446FFF7F9FD40212046FFF7EEFD2769AE
:1034B0002B46324617212046B8472046BDE8F0414A
:1034C000FFF7DBBD002180F82610704701020203E0
:1034D0000405060708090A0B0C0D0E0F1010010257
:1034E00002030405060708090A0B0C0D0E0F101045
:1034F00000000000000000000102030406070809A4
:1035000000000000010203045F000303040403043D
:10351000050A0EFFFD09FD09FE0188037B051E203B
:103520000500CC0C210892C78C038D00220945F6BA
:103530000C098B24142317B7BDAC4830128C844E71
:10354000916024748A0423C148301202240DC6BD40
:103550002CA1EC44E474138A002513A7C51C612830
:10356000164A510C0A43C2502C141401260F87C569
:10357000AC99542CA48C2422D14400270742EF0C90
:103580004B00280CB4B62C894822D24D2413290DA7
:10359000B4B60C994826D2452411012A0A55E6AC46
:1035A000948865A2002B0A77CDBC70DA2D9C062C7E
:1035B0000843B61C0925042D0616E50C032E062229
:1035C000C70C022F10C7B45C45A9502A940AA54223
:1035D000A91400300DA7C5AC99448D6F12B5110028
:1035E0003109A6C62C11513F19320CA6C51C8A8878
:1035F0002454D3D100330FA6C51C8A48A834150A19
:1036000049120A003411A7C54CE18C1611852422F9
:10361000494C721412350FA6C58C43505811091528
:1036200049120A00360FA6C52C8A4C28914C489C9A
:10363000241400370CA6C58C9B5026D4265402387F
:103640000EA6C51C8A8849421171925000390DA6F8
:10365000C51C8A882749512621013A0772C70C32B6
:10366000013B0A93B61C75988412023C0978CCDCA5
:10367000D9A27C033D0847D58C3BFC003E0A78CD9F
:103680008CF9BA70B60A3F0F96C58C8A682614CD9D
:10369000E430A10800401297C51C922C129A4424D1
:1036A00099221149929904411199C49CF25422948F
:1036B000086331A5934CC200421398C48C934C22EA
:1036C00093C82426994426911D2400430E97C5AC27
:1036D000494444A36A16892800441398C40C9B48A3
:1036E0004D2293C82432894C22929800451398C4E5
:1036F0008C43442691492441A2242893C80E0346B2
:103700001298C48C43442691492441A2242896D679
:1037100000471199C42C4A4834114AE44A47914C55
:103720006601481399C40C0A4526928964A2934CF9
:103730002413C9240C490996C50C93509F0C4A0FB9
:1037400099C43CAB5C934C2413C96435004B11996C
:10375000C40CCA484D22A4164532914C85344C0DF8
:1037600098C48CA25837894C223B0C4D1699C48CB6
:10377000D944269A8C262349442489886422998432
:10378000014E1799C48C1145261A89462A11912495
:1037900022128D44139204004F0E98C42C9A482292
:1037A000E45122929100501198C48C934C2293C8FA
:1037B0002422514D2CAD015112B8B42C9A4822E468
:1037C000512292514511C90400521199C48C9B9207
:1037D0004C2413A915453215D200530D97C51CCAA8
:1037E000A8566D2B4D2800540D98C48CC3444251EB
:1037F00013EB4A02551599C40C0A45269289642296
:10380000994826928964B21200561399C40C0A454D
:10381000269289642A428950221DCF00571899C4E4
:103820000C0A452692444492884812114D469391C1
:103830004C249300580F98C48CD144A48D2AA58998
:10384000B48C0659139AC30C12452813094552BA71
:103850001C2287884D005A0E97C58C838C24940AAD
:10386000956807015B08B4B60C93FE445C0FC7B5BE
:103870000CA9582A968AA562A9582A5D08B4B60CE4
:1038800092FE645E0945EEACD844320B5F0719B472
:103890008C8300600723FE0C9100610D78C49CBAF4
:1038A00058649149442B036212A8C48CB196D14844
:1038B0002293C82432C9A83201630E78C42C4A442A
:1038C0005424CB65A20A006412A8C4CCB1D24469C6
:1038D0002293C8243289686500650E78C42C9A4802
:1038E000223CD445A30A00660CA7C53C92546693BB
:1038F000EA66016712A8AC9C49692293C824328900
:103900006845AC54026811A9C48CB996D9484D24B5
:1039100013C944320903690BA6C52CA11C42D493D8
:10392000016A0AD5AD3C659A7EB3006B10A8C48CC1
:10393000B1A6891A9128918924A3016C08A6C50C07
:10394000A2FE646D0C79C40C4949A2FF978A026EED
:103950001079C48CC96CA426928964229984016F61
:103960000E78C42C9A48226494886424007015A8A8
:10397000AC8CC9682491496412996424918CC45216
:1039800022007111A8AC9C49692293C8243289682D
:1039900045AC4A720B77C58CC9A254A30500730CC1
:1039A00077C59C438C5CA61D2200740C97C51CA98E
:1039B000D024D5494401751179C48CD14826928907
:1039C00064229948349B0C761079C40C0A452692DF
:1039D000A90825D2F10C0077137AC38CE1449344F3
:1039E00049A21691044542910800780F78C48CD101
:1039F0004424A34A6922C968007912A9AC8CD9442D
:103A00002692A90825D2F1582EAD017A0876C58CE8
:103A10009BDE0E7B0CB4B62C89488B4CA44D007CED
:103A200007B2B78C0F017D0CB4B60C99489B44A427
:103A300045047E0936DD1CD121240100000004FF6D
:103A4000FF000000A32F0008A72F0008532A00083A
:103A50001815AF19FF1815AE19FF1815A115C819BB
:103A6000FF1815A015C019FF1815A115C019FF18CA
:103A700015A015C819FF1815AE15D5168015A8166E
:103A80003F15D316001540158D1614152016001578
:103A9000A115C815DA1612158116CF15D916F1150C
:103AA000DB1640152E15A415A619FF1815AE15D551
:103AB000168015A8163F15D316001540158D16143F
:103AC0001520160015A115C815DA1612158116EF66
:103AD00015D916A115DB1600152E15A415A619FF6C
:103AE0001815AE15D5168015A8163F15D316001556
:103AF00040158D16141520160015A115C815DA16D7
:103B000002158116CF15D916F115DB1640152E15A5
:103B1000A415A619FF1815AE15A415D5165015A88D
:103B2000163F15D31600154015AD168B15D9162264
:103B300015DB16351532158116FF15A615DA161286
:103B400019FF1815AE15D5168015A8163F15D316F2
:103B5000001540158D16141520160015A115C01559
:103B6000DA1612158116CF15D916F115DB16401588
:103B70002E15A415A619FF000001140A6464323240
:103B800000127A000004289610080000800040000F
:103B90000001140A6464323200093D0000042896D2
:103BA0001008020280004000C83B0008000000200E
:103BB0002000000072250008E83B000820000020DB
:103BC000A80A000082250008010000001000000083
:103BD0000000000000127A00000000000000000059
:083BE0000000000000000000DD
:04000005080000ED02
:00000001FF
