:020000040800F2
:10000000800B0020010100089D3500082D2F0008FD
:100010009935000831090008D536000800000000B5
:10002000000000000000000000000000A5350008EE
:100030003509000800000000A1350008A9350008B6
:100040001B0100081B0100081B0100081B01000820
:100050001B0100081B0100081B0100081B01000810
:100060001B0100081B0100081B0100081B01000800
:100070001B0100081B0100081B0100081B010008F0
:100080001B0100081B010008610800081B01000893
:100090001B0100081B0100081B0100081B010008D0
:1000A0001B0100081B0100081B0100081B010008C0
:1000B0001B010008B13500081B0100081B010008E6
:1000C0001B0100081B0100081B0100081B010008A0
:1000D0001B010008C93600081B0100081B010008AD
:1000E0001B0100081B0100081B010008DFF80CD0F1
:1000F00000F06CFB00480047113B0008800B00201B
:100100000648804706480047FEE7FEE7FEE7FEE7B1
:10011000FEE7FEE7FEE7FEE7FEE7FEE7AD35000897
:10012000ED000008D2B201E000F8012B491EFBD21D
:1001300070470022F6E710B513460A4604461946F2
:10014000FFF7F0FF204610BDF0B480EA0102D40FA3
:100150004200B2EB410F02D20246084611464A0065
:1001600042D0C30DDDB2C1F3C752AD1A202D35DA2E
:10017000C1F3160141F4000204B15242C5F1200658
:1001800002FA06F12A411044B3EBD05F23D0C4B188
:10019000012DA0EBC35009DCF0BC4FF0004202EA95
:1001A000C352DBB200F5000000F03FB9400000F19F
:1001B000807000EBC350A0F1807040EAD17049001C
:1001C00009E0490841EAC071A0EBC35000F5000006
:1001D000400800EBC350F0BC00F01EB961420122A0
:1001E00002EB4101001BF6E7F0BC704781F00041D3
:1001F000AAE780F00040A7E72DE9FE4F81EA03045B
:1002000004F0004421F0004100944FF0000B23F073
:10021000004350EA01045ED052EA03045BD0C3F30A
:100220000A54C1F30A552C44A4F2F3340194A0FB00
:100230000254C1F3130141F48011C3F3130343F4D7
:10024000801301FB024400FB034E840A970A44EA30
:10025000815447EA8357A4FB076802958D0A05FB82
:1002600007854FEA932C04FB0C542705029D4FEAA7
:10027000065847EA1637B5EB08056EEB070C870EF4
:10028000920E47EA811742EA8312A7FB0201B6EBFE
:100290000B0164EB00042B0D43EA0C335E1844EBB6
:1002A0001C50DA465146E7FB0201C5F313044FEA3E
:1002B0000B3343EA14534FEA0432019C43EA06032A
:1002C000A4F10C040294009CCDE900B400F0EAF81B
:1002D00003B0BDE8F08F00200146F9E7002801DBFC
:1002E000C0F10040002901DBC1F10041814201D28F
:1002F0000120704700207047002801DBC0F100405A
:10030000002901DBC1F10041814201D90120704780
:100310000020704730B5041E71F1000404DB4FF07B
:100320000044404264EB0101141E73F1000405DB3C
:100330001C464FF00043524263EB0403801A99417C
:1003400001D2012030BD002030BD0EB540F2334156
:1003500002910021CDE900110A460B4600F0A2F8F7
:1003600003B000BD00F0004230F000400AD0C10DE3
:1003700001F56071C0F3160042EA0151C20840075E
:100380001143704700200146704730B50B460146C7
:1003900000202022012409E021FA02F59D4205D324
:1003A00003FA02F5491B04FA02F52844151EA2F1CE
:1003B0000102F1DC30BD2DE9F05F054600209246D8
:1003C0009B4688460646814640241BE02846414617
:1003D0004746224600F021FA53465A46C01A914138
:1003E00010D311461846224600F008FA2D1A67EB82
:1003F00001084F4622460120002100F0FFF917EBCB
:1004000000094E41201EA4F10104DFDC48463146BC
:100410002A464346BDE8F09F0029A8BF7047401C0C
:10042000490008BF20F00100704710B4B0FA80FC0A
:1004300000FA0CF050EA010404BF10BC704749B147
:10044000CCF1200421FA04F411FA0CF118BF0121B7
:1004500021430843A3EB0C01CB1D4FEA00614FEA97
:10046000102042BF002010BC704700EBC350104466
:100470000029A4BF10BC7047401C490008BF20F0F1
:10048000010010BC704710B5141E73F1000408DAA7
:10049000401C41F1000192185B411A4301D120F048
:1004A000010010BD2DE9F04D92469B4611B1B1FA05
:1004B00081F202E0B0FA80F22032904600F09EF91C
:1004C00004460F4640EA0A0041EA0B0153465A46E9
:1004D000084313D0114653EA010019D0C8F1400275
:1004E000504600F09AF905460E4650465946424697
:1004F00000F084F9084305D0012004E02046394685
:10050000BDE8F08D0020054346EAE0762C433743F2
:100510000A986305E40AA0EB08000022FD0A44EAF9
:1005200047540A3002D500200146E9E701051019B9
:100530006941DDE9084500196941BDE8F04DA2E7D0
:100540002DE9FE4F804681EA0300C00F0C46009063
:1005500021F0004123F00045B8EB0200A94105D28B
:100560004046214690461C460B46024623F000407A
:10057000104347D0270DC7F30A00C3F30A51029076
:10058000401A019040286BDAC3F3130040F4801B3B
:100590000098924620B10023D2EB030A63EB0B0BC9
:1005A00001985946C0F14002504600F027F906462E
:1005B0000D4650465946019A00F03FF910EB0800ED
:1005C0006141002487EA115284EAE7731A4340D05C
:1005D000009A62B3019A012A4FEA075215DC001B08
:1005E00061EB02014FF0004202EA0752CDE90042FE
:1005F000001C41F5801132462B46FFF753FF03B034
:10060000BDE8F08F40462146F9E7001B61EB02018F
:10061000001C41F5801300185B412018A2F500175B
:1006200047EB030140EAD570B6196D4111E06D0842
:100630004FEA360645EAC0754FEA0752001B61EBE8
:100640000201001C41F5801149084FEA30000019F1
:10065000514132462B4603B0BDE8F04FFFF713BFC0
:100660000098012240000023D0EB020263EBE0730C
:10067000009821464FEAE074B8EB000061EB0401FA
:10068000E9E783F000435BE781F0004158E72DE99B
:10069000F04D81EA030404F0004B21F000451446BC
:1006A0004FF0000A23F0004150EA050220D054EA3E
:1006B00001021DD0C5F30A570246C5F31303C1F367
:1006C0001300C1F30A5640F4801543F48013A7EBDE
:1006D0000608101BD64608F2FD3873EB050002D35E
:1006E00008F1010801E092185B41B8F1000F03DA4C
:1006F00000200146BDE8F08D00204FF48011064631
:1007000084460EE0171B73EB050705D3121B63EB42
:10071000050306434CEA010C49084FEA30009218E1
:100720005B4150EA0107EDD152EA030012D082EAA0
:10073000040083EA0501084305D0101BAB4106D233
:100740000122002306E000224FF0004302E06FF098
:10075000010253101AEB06004CEB085110EB0A0093
:1007600041EB0B01BDE8F04DFFF78DBEC1F30A521E
:10077000C1F3130140F2FF3341F480119A4202DACF
:1007800000200146704740F233439A42A2F23342BE
:1007900002DC524200F041B800F030B830B5041E1F
:1007A00071F1000404DB4FF00044404264EB0101AE
:1007B000141E73F1000405DB1C464FF00043524247
:1007C00063EB0403994208BF904230BD1CB5094851
:1007D0000090094801900546009C06E0E06840F062
:1007E000010394E8070098471034AC42F6D3FFF7B2
:1007F00081FC00002C6500084C650008202A04DB01
:10080000203A00FA02F1002070479140C2F1200323
:1008100020FA03F3194390407047202A04DB203A62
:1008200021FA02F00021704721FA02F3D040C2F110
:1008300020029140084319467047202A06DBCB1757
:10084000203A41FA02F043EAE07306E041FA02F38B
:10085000D040C2F120029140084319467047000081
:1008600080B540F2A000C2F2000000F02FF940F283
:10087000D000C2F20000BDE8804000F027B90000BF
:10088000B0B582B004460020019021688A68D20782
:100890004BD1886840F00100886040F20800C2F245
:1008A000000000684DF68361C4F21B31A0FB01011A
:1008B000880C01900198A0B101980138019001982D
:1008C00078B1019801380190019850B10198013830
:1008D0000190019828B101980138019001980028F1
:1008E000EAD100F0FBFD21688968C9071CD10546E3
:1008F00003E000BF8068C00716D100F0EFFD411B88
:1009000020680329F6D38168C907F3D1A06A40F0B3
:100910001000A062E06A40F00100E062002084F86C
:100920002400012002B0B0BD002002B0B0BD000024
:10093000FEE7000070470000EFF3108072B600BFC2
:10094000FEE700007047000010B581B00022009261
:1009500090F82420012A03D10221084601B010BDDD
:100960004B680122062B80F8242033D8D0F800C031
:1009700003EB83035A1F1F23DCF834E003FA02F46D
:100980000B682EEA040403FA02F22243CCF8342066
:10099000092B03EB430249D9DCF80CE01E3A07248B
:1009A000896894402EEA0404914023F00102214317
:1009B000102ACCF80C1043D142F20841C4F20101D4
:1009C000A1F10802944543D0816A41F0200181627F
:1009D000012136E0D0F800C00C2B03EB830213D8C2
:1009E000233A1F23DCF830E003FA02F40B682EEA06
:1009F000040403FA02F22243CCF83020092B03EB63
:100A00004302C9D812E000BF413A1F23DCF82CE0B2
:100A100003FA02F40B682EEA040403FA02F22243FA
:100A2000CCF82C20092B03EB4302B5D8DCF81030AE
:100A3000072489689440A34391401943CCF81010CF
:100A40000021002280F82420084601B010BD00BF1C
:100A50000A681202F4D40A68102B42F400020A60F9
:100A6000EED140F20801C2F2000109684DF683623E
:100A7000C4F21B32A1FB0212910C01EB810149006F
:100A8000009100990029DBD000990139009100996B
:100A90000029D5D000990139009100990029CFD0C3
:100AA00000990139009100990029C9D000990139B4
:100AB0000091009900294FF00001E5D1C1E7000045
:100AC000704700000068C06C7047000070B50446B5
:100AD000006805684668B10627D515F0020124D0E4
:100AE000A16AC90603D4A16A41F40071A1628168B8
:100AF00001F46021B1F5602F10D1217B71B94168FB
:100B000021F020014160A06A20F48070A062A06AF8
:100B1000C00403D4A06A40F00100A0622046FFF7A1
:100B2000CFFF20686FF012010160310633D515F058
:100B3000040130D0A16AC90603D4A16A41F400516E
:100B4000A162816801F4E041B1F5E04F10D1416844
:100B500021F080014160A06A20F48050A062A06A68
:100B6000C00511D4A06A40F00100A0620CE000BFF3
:100B70004168490508D4816801F46021B1F5602F0E
:100B800002D1217B0029E2D02046FFF7DBFE20685E
:100B90006FF00C01016070060ED515F0010008BF62
:100BA00070BDA06A40F48030A062204600F0B6F824
:100BB00020686FF00101016070BD0000002804BFD3
:100BC00001207047B0B50446806A28B12168886862
:100BD000C0070CD115E000BF0020E06284F82400BB
:100BE000204600F09DF821688868C00709D0886811
:100BF00020F00100886000F071FC21688A68D2074B
:100C000026D1A06AC0063AD4A06A41F202129043EB
:100C10000230A062E069D4E9013240EA030C531EBD
:100C2000B3FA83F35D091346B2F5807F18BF2B0238
:100C3000207D257B01284CEA450030D135B3A56ADB
:100C400045F02005A562E56A45F00105E56226E06C
:100C5000054602E08868C007D3D000F03FFC401B87
:100C600021680328F6D38868C007F3D0A06A40F053
:100C70001000A062E06A40F00100E062A06AA06A91
:100C800040F01000A0620120B0BD00BFD4F818C031
:100C90004EF60005CFF6FF7505EB4C352B434D683E
:100CA000B2F5807F25F4694543EA05034B608B6804
:100CB0004FF2FD75CFF6E17503EA050343EA000341
:100CC0008B6001D0012A07D122690023CFF6F0738F
:100CD00003EB025201E000BF0022CB6A23F4700351
:100CE0001A43CA62896840F6FE62CFF61F7211404D
:100CF000814207D10020E062A16A012262F3010172
:100D0000A162B0BDA06A40F0100020F00200A06215
:100D1000E06A40F00100E0620120B0BD70470000D1
:100D200080B586B0006842F60001C4F20101884235
:100D30004FF00001CDE90411CDE9021120D042F2BB
:100D40000041C4F20101884245D141F21800C4F2C9
:100D50000200016841F400710160016801F4007152
:100D600001910199016841F004010160006800F0FF
:100D700004000190019840F60000C4F201001BE05D
:100D800041F21800C4F20200016841F48061016080
:100D9000016801F4806101910199016841F0080145
:100DA0000160006800F008000190019840F6000022
:100DB000C4F2010000F58060022102910321039139
:100DC00002A900F077FA12200021002200F0D8FDDD
:100DD000122000F0C3FD06B080BD0000F0B581B068
:100DE00000270D460446009700F078FB21688A68CA
:100DF000D20543D406464868C00503D4C86A10F437
:100E0000700F45D040F20800C2F2000007680220CF
:100E100000F0F2FD216844F624130A69B7FBF0F0F4
:100E2000C2F292431A4206D1CA6844F62413C0F2B1
:100E300092031A425ED00A6942F29243C1F24923F8
:100E40001A4207D1CA6842F29243C0F249031A42D9
:100E500000F0C0800A6949F24923C0F224031A4213
:100E60004FF0FC0257D1CF681F4208BF5422009BAD
:100E700002FB00F7BB4253D3C3E000BFA06A40F0BF
:100E80002000A06284F82470012001B0F0BD00BFF2
:100E90000868800700F1B580681C00F0A880FDB9E3
:100EA0000868800772D50868800700F1AA80086882
:100EB00080076BD50868800700F1A3800868800769
:100EC00064D50868800700F19C80086880075DD5BC
:100ED00008688007E4D594E00868800700F19180F5
:100EE00000F0FCFA801B2168A842F5D90868800749
:100EF000F2D44BE00A6942F29243C1F249231A420A
:100F00004FF0290207D1CB6842F29247C0F249075D
:100F10003B4208BF1422009B02FB00F7BB4270D289
:100F2000681C4FD055BB0098B8422FD300980130B1
:100F300000900098B84264D20098B84226D3009836
:100F4000013000900098B8425BD20098B8421DD39F
:100F50000098013000900098B84252D20098B842F0
:100F600014D30098013000900098B842DBD348E0D9
:100F70000098013000900098B84233D200F0AEFAE9
:100F8000801BA842F4D90098B842F1D2A06A40F080
:100F90000400A062002084F82400032001B0F0BD0A
:100FA0000098013000900098B8422AD20098013091
:100FB00000900098B84224D2009801300090009828
:100FC000B8421ED20098013000900098B842E7D392
:100FD00017E000BF5422009B02FB00F7BB429FD3E7
:100FE0000FE000BF21680CE00868800709D408689A
:100FF000800706D4086880075CBF08685FEA8070D5
:10100000F2D56FF012000860A06A40F40070A06290
:10101000886800F46020B0F5602F01D1207B18B102
:10102000002001B0F0BD00BFA06A20F48070A06273
:10103000A06AC004F4D4A06A40F00100A0620020BD
:1010400001B0F0BD10B5044690F82400012804BF9B
:10105000022010BD012084F824002046FFF710FC78
:1010600020B1002084F82400012010BD42F2044C7D
:101070002068A16AC4F2010C40F2013291430CF5E0
:101080007F7201F580719042A16233D0A16A21F490
:101090008011A1624168490504D5A16A012363F367
:1010A0000D31A162A16A0023C9044FF0000144BFC1
:1010B000E16A21F00601E1626FF0020184F8243058
:1010C0000160816801F46021B1F5602F06D1904282
:1010D0000AD1DCF8001011F4702F05D0816841F4BA
:1010E00080118160002010BD816841F4A001816001
:1010F000002010BDDCF8001011F4702FC6D0A16ADA
:1011000041F48011A162DCF800104905C5D4C9E79B
:10111000B0B5044690F82400012804BF0220B0BDF9
:101120000121206884F824108168C90709D08168EA
:1011300021F00101816000F0D1F921688968C907B7
:101140000ED1214651F8280F41F2011220EA020285
:10115000002042F001020A60002184F82410B0BD92
:10116000054602E08068C007EBD000F0B7F9411BEC
:1011700020680329F6D38168C907F3D0A06A214605
:1011800040F01000A06251F82C2F0120E1E7000090
:10119000014690F82100022816D10868D1E90FC352
:1011A000026822F00E020260026822F00102026070
:1011B000012000FA03F2CCF8042081F8210000207D
:1011C000002281F82020704704208863012000223B
:1011D00081F820207047000090F82110022923D1C7
:1011E0000268116821F00E0111602F211368C4F20A
:1011F00002018A4240F20401C4F2020123F0010319
:10120000136015DD3023C4F202039A421CD044233C
:10121000C4F202039A421BD05823C4F202039A423A
:101220001CD14FF4803321E00421816301207047F9
:101230000823C4F202039A420ED01C23C4F2020314
:101240009A420BD1102311E04FF480730EE000BFDF
:101250004FF480530AE000BF012307E001F1680C5E
:101260004FF08073624508BF4FF480130B6001217B
:1012700080F82110426B002180F8201022B180B547
:1012800090470021BDE8804008467047B0B504464D
:1012900000F024F9054640F20000C2F20000007898
:1012A000611C18BF044400BF00F018F9401BA042A5
:1012B000FAD3B0BD2DE9F04F82B00E68002E00F0D9
:1012C000FD8041F20042C4F20102042340F2004ECC
:1012D000904208BF03234FF6FF7CC4F2010E009337
:1012E00000240123C1F2100C4FF0000A4FF0000956
:1012F00044E000BF012704F00C030F229A402BEAC0
:10130000020207FA03F34FEA9A051A4346F825202A
:101310004E6840F20C45F202DEF8082054BF22EA83
:10132000080242EA0802C4F20105CEF808202A6841
:10133000B30254BF22EA080242EA08022A60B30359
:10134000DEF8042054BF22EA080242EA0802F3034E
:10135000CEF80420DEF800204FF0010354BF22EA4B
:10136000080242EA0802CEF800200E680AF1010ADB
:1013700036FA0AF204F1040400F0A08003FA0AFB32
:1013800016EA0B08F1D04E68664511DC122E55D8CE
:10139000DFE806F0340A4448545454545454545426
:1013A00054545454544C5000D1F80C9046E000BFB3
:1013B0004FF6FF72C1F2210296420FDC0022C1F209
:1013C000110296421AD00022C1F21202964215D0A2
:1013D0000022C1F22102964210D02FE00022C1F279
:1013E000220296420AD00022C1F23102964205D072
:1013F0000022C1F23202964220D100BF8A684AB16F
:10140000012A14BFC0F814B0C0F810B04FF008099A
:1014100014E000BF4FF0040910E000BFCA6802F1F9
:1014200008090BE04FF0000908E000BFCA6802F1AC
:10143000040903E0CA6802F10C0900BF224606460F
:10144000B8F5807F24BF203A043637680F259540D1
:1014500027EA050509FA02F22A433260CA79D20660
:101460007FF583AF41F21803C4F202031A68AEF5A8
:101470007E7642F001021A601A6802F001020192BF
:10148000019A2AF0030256F802B040F60002C4F2B4
:101490000102904210D040F60042C4F20102904294
:1014A0003FF428AF41F20002C4F20102009F9042D3
:1014B00008BF02271FE700BF00271CE702B0BDE8F6
:1014C000F08F00008068084018BF012070470000BE
:1014D000002A08BF090401617047000040F27C70D7
:1014E000C2F2000000687047002804BF0120704766
:1014F000F0B581B0044690F83D0028B9002084F88A
:101500003C00204600F090F9242084F83D0020683B
:10151000016821F001010160016841F400410160AE
:10152000016821F40041016000F046FC636848F264
:10153000A16CC0F2010C40F60011C0F23D01634500
:101540003CBF48F28041C0F21E01884202D2012015
:1015500001B0F0BD4DF68361C4F21B31A0FB011256
:101560002168970CD1F804E04FF496762EF03F05F1
:1015700045EA92454D60774348F638160D6AC0F249
:101580004106A7FB067625F03F07634538BF960C5A
:10159000721C3A430A62CA6948F2A0664CF6FF77A9
:1015A000C0F20106B34222EA07020BD801385B0001
:1015B000B0FBF3F001306FF31F30042898BF042014
:1015C0001BE000BFA768013857B119277B43B0FB68
:1015D000F3F001306FF31F3070B100F5804007E089
:1015E00003EB4303B0FBF3F001306FF31F3018B18E
:1015F00000F5004001E000BF01201043C861086809
:10160000D4E9072320F0C00010431843086088681D
:1016100048F2FF3204F10C0790438CCF184310437B
:10162000A6698860C86820F0FF0038433043C8606E
:10163000086840F00100086000202021206484F840
:101640003D10206384F83E0001B0F0BD2DE9F04369
:1016500083B01E46174689460446FFF73FFF94F8BD
:101660003D10202924D10546206800BF81698907E3
:101670001AD5FFF733FF411B20681A29F6D3816979
:101680008907F3D500202021206384F83D1084F8D9
:101690003E00216C41F02001216484F83C000220CE
:1016A00003B0BDE8F08300BF94F83C10012903D1DA
:1016B000022003B0BDE8F083012184F83C100168EA
:1016C000C90703D1016841F001010160016840F2DE
:1016D000020821F400610160212184F83D101021ED
:1016E00084F83E100021216467626685618DC0F236
:1016F00001082185A8F10211E162E16A0A9E11F553
:10170000803F18BF01291DD1016841F4807101603B
:1017100020464FF0011100223346009501F066FC8F
:1017200050B120680068C00544BF4FF400702064C9
:10173000012003B0BDE8F0832069B0F5804F07D1E8
:10174000FE2015E00829DFD0216B1229DCD0DFE76D
:10175000062000EAD9102168F030086108F106017E
:10176000204632462B4601F027FD0028E0D1FF201D
:10177000216800EA090008612046414632462B46AE
:1017800001F01AFD0028D3D10020029020684169A1
:10179000029180690290029806E000BF204631461F
:1017A0002A4601F0C5FB18BB208D68B320463146A0
:1017B0002A4601F06DFDD8B9606A2168024612F828
:1017C000013B0B616262628D013A6285228D531E7C
:1017D00023854F697F07E1D51B04DFD043780230B2
:1017E0000B616062608D01386085901E2085D5E7B1
:1017F000206C04289CD12068016841F400710160CC
:10180000012003B0BDE8F0832068016841F4007155
:101810000160202084F83D00002084F83E0084F818
:101820003C0003B0BDE8F08310B586B045F600017A
:101830000068C4F2000100228842049202D006B07F
:1018400010BD00BF41F21804C4F20204206840F049
:1018500008002060206800F00800019001984FF413
:1018600040600290122003900320059001F534405F
:1018700002A9FFF71FFD606840F4800060606068A7
:1018800000F480000190019806B010BD40F2000005
:1018900040F27C71C2F20000C2F2000100780A68D6
:1018A000104408607047000080B542F20000C4F2A6
:1018B0000200016841F010010160032000F08CF883
:1018C000002000F005F800F027F8002080BD00009F
:1018D00070B540F20006C2F2000640F2080132780C
:1018E000C2F200014FF47A730968B3FBF2F20446C6
:1018F000B1FBF2F1084600F087FC0F2C4FF0010518
:1019000008D838B94FF0FF3021460022002500F0FA
:1019100037F87460284670BD82B041F21800C4F2F6
:1019200002000168022241F001010160016801F03A
:10193000010101910199416841F080514160406885
:1019400000F08050009000980420C4F2010001686B
:1019500062F31A61016002B070470000002848BFBE
:10196000704700F01F01012202FA01F11C2202EA75
:10197000D0004EF20012CEF20002815070470000FB
:1019800010B54EF60C5CCEF2000CDCF80030C3F360
:10199000022E8EF00704042C28BF0424BEF103039A
:1019A0004FF0FF3E0EFA04F438BF0023A1439940E4
:1019B0000EFA03F39A43114300F00F0200F1604363
:1019C0000901043A03F564436244002848BF02F168
:1019D0000C03197010BD00004EF60C51CEF2000140
:1019E0000A684FF6FF031A4060F30A2242F0806053
:1019F00040F0FD700860704701280FD002282DD0FC
:101A0000102808D141F20401C4F202010A6851F819
:101A1000040CC00134D40020704700BF41F2040020
:101A2000C4F20200C16940F202320A40B2F5817F7D
:101A300004BF4FF40040704701F44071B1F5407F9E
:101A40002AD0B1F5007F1CBF00207047006A49F61C
:101A50004041800701EAE070704700BF80B500F0A8
:101A6000BFF941F20401C4F2020109680222C1F384
:101A7000813102EB4101B0FBF1F0BDE880407047DD
:101A8000C2F3834015A3185CD2030DD440F60012B4
:101A9000C0F23D02504313E050F8040C4FF22441D1
:101AA000800301EAE07070470A6810A3C2F3404265
:101AB0009A5C41F20023C0F27A03B3FBF2F2504386
:101AC0000968490248BF70474AF6AB214000CAF690
:101AD000AA21A0FB01014808704700BF02030405CA
:101AE000060708090A0B0C0D0E0F1010010200006A
:101AF0002DE9F04182B00446007841F21C06C0078F
:101B0000C4F202064AD030685FEAC00808D43068E0
:101B100040F080503060306800F0805001900198B3
:101B200047F20007C4F200073868C00512D43868CD
:101B300040F480703860FFF7D1FC05463868C00576
:101B400008D4FFF7CBFC401B6428F7D9032002B070
:101B5000BDE8F081706810F4407012D0616801F443
:101B6000407188420DD0706840F24042C4F2422277
:101B7000012320F4407113600023C00713607160DB
:101B800026D17068616820F440700843B8F1000FF6
:101B9000706003D4306820F0805030602068810786
:101BA00007D556F8181CA26821F44041114346F8A5
:101BB000181CC00607D556F8180CE16820F4800000
:101BC000084346F8180C002002B0BDE8F08100BFC1
:101BD000FFF784FC054641F2883700BF7068800734
:101BE000CFD4FFF77BFC401BB8424FF00300F5D980
:101BF000EAE70000002804BF012070472DE9F04308
:101C000081B042F20008C4F202080446D8F800008D
:101C10000D4600F0070088420CD2D8F8000020F0F2
:101C200007002843C8F80000D8F8000000F00700BB
:101C3000A8426CD1206841F204098107C4F202096C
:101C400017D5410705D5D9F8001041F4E061C9F86E
:101C50000010010705D5D9F8001041F46051C9F80A
:101C60000010D9F80010A26821F0F0011143C9F862
:101C70000010C00742D1D8F8000000F00700A842C9
:101C80000CD9D8F8000020F007002843C8F800005D
:101C9000D8F8000000F00700A84238D120684107BA
:101CA00007D5D9F80010E26821F4E0611143C9F8C2
:101CB0000010000708D5D9F80000216920F4605011
:101CC00040EAC100C9F80000D9F8002002F00C0079
:101CD000082841F20020C0F27A0051D145F61233B3
:101CE000C2F38341C0F60003595CD2033CD440F6F2
:101CF0000010C0F23D00484342E000BF6068022887
:101D00000AD001282AD159F8041C890308D40120DB
:101D100001B0BDE8F08300BF59F8041C8901F6D575
:101D2000D9F8001021F003010843C9F80000FFF7BB
:101D3000D5FB064641F28837D9F80000616800F00B
:101D40000C00B0EB810F96D0FFF7C8FB801BB842A8
:101D5000F2D9032001B0BDE8F08300BF59F8041C9C
:101D60008907D4D5DCE700BFD9F8002045F6103349
:101D7000C2F34042C0F600039A5C4843B0FBF2F065
:101D8000D9F8001045F6F822C1F30311C0F600029D
:101D9000515C40F2080220FA01F140F20400C2F264
:101DA00000000068C2F200021160FFF791FD002000
:101DB00001B0BDE8F083000040F2080041F20401E8
:101DC000C2F20000C4F202010068096845F6083258
:101DD000C1F30221C0F60002515CC8407047000008
:101DE00040F2080041F20401C2F20000C4F2020114
:101DF0000068096845F60832C1F3C221C0F6000246
:101E0000515CC84070470000002804BF01207047A3
:101E10002DE9F04182B00446007841F20006C00787
:101E2000C4F202060CD0706800F00C00042840F0E8
:101E300081803068800303D56068002800F04E81FF
:101E4000207880071BD5706810F00C0F09D07068DF
:101E500000F00C00082840F08B807068C00300F18F
:101E600087803068800703D52069012840F03681DB
:101E70003068616920F0F80040EAC10030602078E5
:101E8000000713D4207840072CD4E569002D00F01A
:101E90002081706800F00C00082840F0AF80012D10
:101EA00040F00C81012002B0BDE8F081A06900285B
:101EB00000F08C800020C4F242200121C0F8801480
:101EC000FFF70CFB054600BF706A800700F1BA807F
:101ED000FFF704FB401B0228F6D9032002B0BDE83F
:101EE000F08100BFF0695FEAC00808D4F06940F0F3
:101EF0008050F061F06900F080500090009847F247
:101F00000007C4F200073868C0054DD4386840F4B3
:101F100080703860FFF7E2FA054600BF3868C005F8
:101F200042D4FFF7DBFA401B6428F7D9032002B044
:101F3000BDE8F081706800F00C00082803D17068DB
:101F4000C0033FF576AF6068002800F00981B0F566
:101F5000A02F00F01D81B0F5803F00F01D8130689A
:101F600020F480303060306820F4802017E100BF1A
:101F70002069002840F20000C4F2422000F08C806A
:101F800001210160FFF7AAFA054600BF306880070B
:101F90003FF56EAFFFF7A2FA401B0228F6D90320E7
:101FA00002B0BDE8F08100BFE068002800F09A8030
:101FB000052800F0B180012800F0B280306A20F0DE
:101FC00001003062306A20F00400ACE00020C4F26E
:101FD00042200021C0F88014FFF780FA054600BFB8
:101FE000706A80077FF54EAFFFF778FA401B022832
:101FF000F6D9032002B0BDE8F08100BF0027C4F28B
:10200000422700203866FFF769FA022D05460DD1F8
:102010003068800140F1D680FFF760FA401B02284B
:102020004FF00300F4D902B0BDE8F08130688001C0
:102030004FD5FFF753FA401B02284FF00300F5D9A4
:10204000F1E700BF40F20800C2F20000006844F669
:10205000D351C1F26201A0FB0101480A019000BF07
:1020600000BF0198411E002801913FF40BAF00BF53
:102070000198411E002801913FF404AF00BF019870
:10208000411E002801913FF4FDAE00BF0198411EA2
:1020900000280191E4D1F5E600210160FFF71EFA66
:1020A000054600BF306880077FF5E9AEFFF716FAF6
:1020B000401B02284FF00300F4D9B4E77068216A8E
:1020C00000F480328A4209D1616A00F470108842BB
:1020D00004D1002002B0BDE8F08100BF012002B0B1
:1020E000BDE8F081306A20F001003062306A20F0F3
:1020F00004003062FFF7F2F9054641F2883700BF6D
:10210000306A800722D5FFF7E9F9401BB8424FF04B
:102110000300F5D987E700BF306A40F00400306261
:10212000306A40F001003062FFF7D8F9054641F20D
:10213000883700BF306A800708D4FFF7CFF9401B0B
:10214000B842F7D9032002B0BDE8F081B8F1000F22
:102150003FF59BAEF06920F08050F06195E600BF3E
:10216000306820F480303060306820F480203060A7
:10217000FFF7B4F9054600BF306880037FF560AE15
:10218000FFF7ACF9401B64284FF00300F4D94AE78D
:10219000306840F480203060306840F48030306037
:1021A000FFF79CF9054600BF306880033FF548AE55
:1021B000FFF794F9401B6428F6D9032002B0BDE86C
:1021C000F08100BF206AB0F5803F05D17168A26838
:1021D00021F40031114371607168626A21F4741155
:1021E00011430843706001203866FFF777F9044611
:1021F000306880013FF56DAFFFF770F9001B0228D2
:102200004FF00300F4D90EE7411E0020B0EB116F30
:102210001CBF012070474EF21002CEF20002516046
:102220004EF62351CEF20001F0230B70072190608F
:1022300011607047704700007047000090F83C2024
:10224000012A4FF0020236D010B580F83D20026816
:10225000D2F804E0D2F808C00C682EF070032343D3
:1022600040F2FF74C4F20004A24253600ADCB2F1EF
:10227000804F13D040F20043C4F200039A420DD0C5
:1022800011E000BF42F60043C4F201039A4205D0B8
:1022900040F60003C4F200039A4204D149682CF0CE
:1022A0008003194391600121002280F83D1080F8DD
:1022B0003C20BDE810401046704700007047000009
:1022C00070B504460068C5680669B10716D515F0F3
:1022D000020113D06FF002010161012121778069B1
:1022E000800703D02046FFF7E9FF05E0204600F015
:1022F0008FF8204600F02EFA00202077700719D5BD
:1023000015F0040016D020686FF00401016102216D
:102310002177806910F4407F04D02046FFF7CEFF7C
:1023200006E000BF204600F073F8204600F012FAE5
:1023300000202077300717D515F0080014D020684A
:102340006FF00801016104212177C069800703D083
:102350002046FFF7B3FF05E0204600F059F820467D
:1023600000F0F8F900202077F00619D515F01000DC
:1023700016D020686FF01001016108212177C06933
:1023800010F4407F04D02046FFF798FF06E000BF1E
:10239000204600F03DF8204600F0DCF900202077D0
:1023A000F00718BF15F0010002D1300609D412E081
:1023B00020686FF001010161204600F03BFA300611
:1023C00009D515F0800006D020686FF0800101610A
:1023D0002046FFF72FFF700609D515F0400006D004
:1023E00020686FF040010161204600F025FAB00638
:1023F00058BF70BD15F0200008D021686FF0200292
:1024000020460A61BDE87040FFF716BF70BD0000AE
:102410007047000090F83C30012B04BF0220704749
:102420004FEAB202032A3DD82DE9F043DFE802F07B
:1024300002407CB6036842F600461D6A1A6AC4F27E
:10244000010622F001021A621A465C6852F818CF9F
:10245000B3428E68D1F800E025F0020545EA060592
:102460000CD1CE68D1E9057824F4407425F00C0530
:1024700026F004063C43354344EA08042CF0730775
:1024800047EA0E075C609F614F6809695F631D62E0
:102490009F6947F008079F619F6927F004079F61C4
:1024A000ACE000BF0121002280F83C2008467047C4
:1024B000036842F600461D6A1A6AC4F2010622F059
:1024C00010021A621A46D3F804C052F8184FB342E9
:1024D0008E68D1F800E025F0200545EA06150FD1F9
:1024E000CE68D1E905986FF0400725F0C00507EAEE
:1024F000061635432CF4406748EA090647EA860C7D
:1025000024F4E64444EA0E27C3F804C09F614F68F0
:1025100009699F631D629F6947F400679F619F6916
:1025200027F480679F6168E0036842F600461D6AF1
:102530001A6AC4F2010622F480721A621A46D3F8AB
:1025400004C052F81CEFB3428E680C6825F4007585
:1025500045EA06250FD1CE68D1E90598360240F24A
:10256000FF4725F44065BE4335432CF4405748EA05
:10257000090647EA061C2EF073072743C3F804C078
:10258000DF614F680969DF631D62DF6947F0080793
:10259000DF61DF6927F00407DF612FE0036842F69F
:1025A0000047D3F820C01A6AC4F2010722F480520F
:1025B0001A621A465C6852F81C5FD1F800E08E6817
:1025C000BB4204D14F6924F4804444EA87142CF4BC
:1025D000005747EA063725F4E64646EA0E265C60D1
:1025E000DE614E6809691E641F62DF6947F4006797
:1025F000DF61DF6927F48067DF610902136819432F
:1026000011600021BDE8F043002280F83C2008461C
:1026100070470000002804BF0120704710B5044631
:1026200090F83D0028B9002084F83C00204600F0D6
:102630006FF8022084F83D00206840F2FF730268C2
:10264000C4F2000342F6004C9842C4F2010C15DCBF
:10265000B0F1804F1AD040F20041C4F2000188422C
:1026600014D0984218DCB0F1804F1DD040F20041E8
:10267000C4F20001884217D01AE000BF604505D0BF
:1026800040F60001C4F200018842EAD1A16822F0BC
:1026900070020A439842E6DD604505D040F600012D
:1026A000C4F20001884203D1216922F440720A4336
:1026B000A36922F08001D4F804E0E2681943604580
:1026C0000160C262C0F828E002D16169CCF8301024
:1026D000012141610269D20703D0026922F001029F
:1026E0000261002084F8461084F83E1084F83F1000
:1026F00084F8401084F8411084F8421084F84310A4
:1027000084F8441084F8451084F83D1010BD000092
:10271000006840F20041C4F20001884218BF7047CF
:1027200080B582B041F21C00C4F2020001680022B0
:1027300041F0020101600068002100F002000190F8
:1027400001981D20FFF71CF91D2002B0BDE8804054
:10275000FFF704B97047000041B1082910D00429DF
:1027600014BF00F1410200F13F020BE090F83E205F
:10277000012A1CBF01207047022280F83E2013E08E
:1027800000F140021278012A1CBF0120704702228A
:10279000082907D0042914BF80F8412080F83F2081
:1027A00002E000BF80F84020006801F01F01012214
:1027B000036A8A4023EA02010162036A42F6444145
:1027C000C4F201011A43A1F14403984202620FD0FE
:1027D00040F2FF71C4F20001884213DCB0F1804F77
:1027E0001CD040F20041C4F20001884216D01AE029
:1027F0000A6842F400420A6040F2FF71C4F200012C
:102800008842EBDD42F60041C4F20101884205D066
:1028100040F60001C4F20001884204D1816801F051
:102820000701062903D0016841F001010160002081
:1028300070470000704700007047000070470000BC
:1028400070470000B0B582B0044600680168C368F4
:10285000426901F02F05202D03F0200506D12DB18E
:10286000204602B0BDE8B04000F0AEBE5FEA017C99
:102870001EBF02F0010E03F4907212EB0E0243D160
:10288000226BCD0618D5012A16D113F0100213D0F1
:10289000002101910168019141680191019940690C
:1028A00040063BD4A08DE18DE28D002A18BF8842FE
:1028B00040F0F28102B0B0BD0A0640F1E78013F0AB
:1028C000800200F0E38094F841102129F2D1A16840
:1028D000B1F5805F03D12169002900F06382216A8C
:1028E0004A1C226209784160E18C01390A04E184C2
:1028F000E0D1C16821F08001C160C16841F04001B0
:10290000C16002B0B0BD00BFCA0718BF13F4807227
:1029100040F0D0804A0700F1D380D8E0E06B016836
:1029200049688AB2002AC5D0A38D9A42C2D2E185F5
:102930008069202800F09E80206850E8030F2168FD
:1029400020F4807041E80302DAB1206850E8030FF8
:10295000216820F4807041E8030292B1206850E8B9
:10296000030F216820F4807041E803024AB1206817
:1029700050E8030F216820F4807041E80302002A28
:10298000DAD1206850E8050F216820F0010041E805
:102990000502C2B3206850E8050F216820F001004D
:1029A00041E805027AB3206850E8050F216820F05D
:1029B000010041E8050232B3206850E8050F2168A4
:1029C00020F0010041E80502002ADAD11BE000BF37
:1029D000206850E8050F216820F0400041E805021A
:1029E000DAB1206850E8050F216820F0400041E886
:1029F000050292B1206850E8050F216820F04000E0
:102A000041E805024AB1206850E8050F216820F02E
:102A1000400041E80502002ADAD1202084F8420073
:102A200000202063206850E8030F216820F0100088
:102A300041E80302DAB1206850E8030F216820F072
:102A4000100041E8030292B1206850E8030F2168AA
:102A500020F0100041E803024AB1206850E8030F5B
:102A6000216820F0100041E80302002ADAD1E06B6F
:102A7000FEF78EFB02206063A08DE18D401A81B2CB
:102A8000204602B0BDE8B040FFF7D8BE49067FF54A
:102A900011AF13F040013FF40DAFC16821F04001C8
:102AA000C1602021204684F8411002B0BDE8B0404A
:102AB00000F03ABA626C42F0010262644A0706D53D
:102AC000BEF1000F03D0626C42F0020262648A071A
:102AD00006D5BEF1000F03D0626C42F004026264BE
:102AE000BCF1000F06D55EEA050203D0626C42F02D
:102AF00008026264626C002A3FF4DCAE890604D5E9
:102B00001DB1204600F060FD20684069616C00F056
:102B1000400001F00801401800F0B680206850E83D
:102B2000030F216820F4907041E80302BAB32068D3
:102B300050E8030F216820F4907041E8030272B35B
:102B4000206850E8030F216820F4907041E80302E8
:102B50002AB3206850E8030F216820F4907041E800
:102B60000302002ADAD11AE0206850E8050F216834
:102B700020F0010041E80502DAB1206850E8050FB5
:102B8000216820F0010041E8050292B1206850E878
:102B9000050F216820F0010041E805024AB12068D4
:102BA00050E8050F216820F0010041E80502002AE5
:102BB000DAD1206B012824D1206850E8030F216866
:102BC00020F0100041E80302DAB1206850E8030F5A
:102BD000216820F0100041E8030292B1206850E81B
:102BE000030F216820F0100041E803024AB1206879
:102BF00050E8030F216820F0100041E80302002A8A
:102C0000DAD1202084F84200002020632068406947
:102C1000400640F1C180206850E8050F216820F08F
:102C2000400041E80502DAB1206850E8050F21684C
:102C300020F0400041E8050292B1206850E8050FFD
:102C4000216820F0400041E805024AB1206850E8C0
:102C5000050F216820F0400041E80502002ADAD182
:102C6000E06B002800F0988043F2BD51C0F60001EF
:102C70004163FEF7B1FA00283FF41CAEE06B416BF4
:102C800002B0BDE8B04008472046FFF7D9FD00205C
:102C9000606402B0B0BD00BF401A00BF216851E8B7
:102CA000031F226821F4907142E80313BBB321682B
:102CB00051E8031F226821F4907142E8031373B3B3
:102CC000216851E8031F226821F4907142E8031340
:102CD0002BB3216851E8031F226821F4907142E868
:102CE0000313002BDAD11AE0216851E8051F22688E
:102CF00021F0010142E80513DBB1216851E8051F0D
:102D0000226821F0010142E8051393B1216851E8DE
:102D1000051F226821F0010142E805134BB121682B
:102D200051E8051F226821F0010142E80513002B3C
:102D3000DAD1202184F8421000212163216851E872
:102D4000031F226821F0100142E80313DBB1216860
:102D500051E8031F226821F0100142E8031393B1E8
:102D6000216851E8031F226821F0100142E8031393
:102D70004BB1216851E8031F226821F0100142E89D
:102D80000313002BDAD1022281B22046626302B023
:102D9000BDE8B040FFF752BD204602B0BDE8B040EC
:102DA000FFF74EBD216A31F8022B6FF35F224260BC
:102DB000216299E5002804BF0120704710B5044640
:102DC00090F8410028B9002084F84000204600F027
:102DD00063F8242084F841002068D4E90212C36813
:102DE00023F40053C360036923F440531A43026180
:102DF000D4E904231143C268194341F20C639A4396
:102E00001143C1604169A26921F44071114343F645
:102E10000002C4F201029042416103D0FEF7CCFFF0
:102E200002E000BFFEF7DCFFD4E90023192148438C
:102E30009900B0FBF1F048F21F5CC5F2EB1CA0FB5F
:102E40000C314FF69C734909C0F6FF7301FB030078
:102E5000322303EB0010A0FB0C03F02000EA531018
:102E600000EB0110C3F34311084490601069202166
:102E700020F490401061506920F02A005061D06821
:102E800040F40050D0600020606484F8411084F861
:102E90004210606310BD000070B586B040F60004BB
:102EA000C4F20104006804F54051002688420496EB
:102EB00002D006B070BD00BF41F21800C4F202009B
:102EC000016802AD41F480410160016801F4804174
:102ED00001910199016841F00401016000682946EF
:102EE00000F00400019001984FF40070029002205D
:102EF0000390032005902046FEF7DCF94FF4806034
:102F0000CDE90206204629460496FEF7D3F925208E
:102F100000210022FEF734FD2520FEF71FFD06B03C
:102F200070BD00007047000070470000FEE7000021
:102F300070B50368044653F8140F400711D40E46C9
:102F4000481C29D086BB00BF1868400527D4FEF76F
:102F5000C5FA236853F8140F400737D5186840079F
:102F6000F2D5002070BD00BF18684007F9D418687A
:102F7000400514D418684007F3D4186840050ED4EF
:102F800018684007EDD41868400508D41868400751
:102F90004FF0000048BF70BD18684005E4D56FF4DD
:102FA00080601860042012E0154603E053F8140F07
:102FB0004007D6D418684005F1D4FEF78FFA401BBD
:102FC0002368B042F2D958694007EFD4202000218D
:102FD0002022216384F83D2084F83E10226C1043A7
:102FE0002064012084F83C1070BD00002DE9F04100
:102FF000054600681E46144601F47F0201338FB275
:1030000042D0DDF81880B2F5803F40F087804069FB
:103010003840C01BB0FA80F04009A04240F0C880A0
:103020004EB924E040693840C01BB0FA80F0400936
:10303000A04240F0BD80FEF751FAA0EB08012868DD
:10304000B142EFD941693940C91BB1FA81F149094F
:10305000A142E7D19BE000BF40693840C01BB0FAF5
:1030600080F04009A0424FF0000040F0A280FEF73F
:1030700035FA286841693940C91BB1FA81F149091B
:10308000A142E9D183E000BFB2F5803F24D100BF67
:1030900041693940C91BB1FA81F14909A14240F0A7
:1030A000878041693940C91BB1FA81F14909A142C0
:1030B00040F07E8041693940C91BB1FA81F149096C
:1030C000A14275D141693940C91BB1FA81F1490961
:1030D000A142DDD06CE000BF81693940C91BB1FA63
:1030E00081F14909A14263D181693940C91BB1FA13
:1030F00081F14909A1425BD181693940C91BB1FA0B
:1031000081F14909A14253D181693940C91BB1FA02
:1031100081F14909A142DFD04AE000BF806938400F
:10312000C01BB0FA80F04009A04241D146B923E06B
:1031300080693840C01BB0FA80F04009A04237D106
:10314000FEF7CCF9A0EB08012868B142F0D98169FB
:103150003940C91BB1FA81F14909A142E8D116E011
:1031600080693840C01BB0FA80F04009A0424FF09F
:10317000000018BFBDE8F081FEF7B0F9286881694A
:103180003940C91BB1FA81F14909A142E8D10020B7
:103190002021286385F83D1085F83E00296C41F018
:1031A0002001296485F83C000120BDE8F08100BFC2
:1031B0000020BDE8F0810000F0B581B00446006851
:1031C0001D4643698FB203EA0701B94202D10020CC
:1031D00001B0F0BD4169164601323FD049053FD4E8
:1031E000CEB100BFFEF77AF9411B2068B14203D986
:1031F00041693940B94215D141693940B942E6D0F7
:1032000041694905EED52BE041693940B942DED02C
:103210004169490524D4FEF761F9206841693940C4
:10322000B942F1D0202023E041693940B942CED0E3
:103230004169490514D441693940B942C7D041694F
:1032400049050DD441693940B942C0D041694905A9
:1032500006D441693940B942B9D041694905E3D53D
:10326000016841F4007101606FF4806141610420E4
:1032700000212022216384F83D2084F83E10226C36
:103280001043206484F83C10012001B0F0BD000020
:1032900070B50368044653F8140F000611D40E46A7
:1032A000481C29D086BB00BF1868400527D4FEF70C
:1032B00015F9236853F8140F000637D5186800066F
:1032C000F2D5002070BD00BF18680006F9D4186858
:1032D000400514D418680006F3D4186840050ED4CD
:1032E00018680006EDD41868400508D41868000670
:1032F0004FF0000048BF70BD18684005E4D56FF47A
:1033000080601860042012E0154603E053F8140FA3
:103310000006D6D418684005F1D4FEF7DFF8401B4C
:103320002368B042F2D958690006EFD4202000216A
:103330002022216384F83D2084F83E10226C104343
:103340002064012084F83C1070BD0000B0B584B04A
:1033500040F2A00042F20041C2F20000C4F20101BA
:1033600000244FF46022012504730475C261C0E992
:10337000001484600561FDF721FC002818BFFDF7EB
:10338000DBFA40F2A000C2F2000001A9CDE901552C
:103390000394FDF7D9FA002818BFFDF7CDFA04B061
:1033A000B0BD0000B0B584B040F2D00042F60001DC
:1033B000C2F20000C4F20101002401254FF4602292
:1033C00005730475C261C0E9001484600561FDF7EE
:1033D000F5FB002818BFFDF7AFFA0920CDE901057C
:1033E00040F2D000C2F2000001A90394FDF7ACFA4C
:1033F000002818BFFDF7A0FA04B0B0BD80B586B0B4
:10340000002041F218010590C4F202010A6842F05E
:1034100020020A600A6802F020020192019A0A68FA
:1034200042F004020A600A6802F004020192019A62
:103430000A6842F008020A60096801F00801019177
:1034400001997821CDE90210049040F60040C4F2C1
:10345000010002A9FDF72EFF06B080BD80B540F245
:10346000001045F60001C2F20000C4F2000141F66E
:10347000802200234FF4804CC0F2060280E80E0048
:10348000C0E9033CC0E90533C0E90733FEF72CF877
:10349000002808BF80BDBDE88040FDF74DBA0000A0
:1034A00070B590B040F2004540F25410C4F20005EF
:1034B0000021C2F20000472240F2F313CDE90811C7
:1034C000CDE90611CDE90411C0E90052C0E90213AB
:1034D00001618161FFF79EF8002818BFFDF72CFA03
:1034E00040F25410C2F2000008A9FEF7A7FE00281F
:1034F00018BFFDF721FA40F254146020C2F2000414
:103500000190002601A920460022CDE90266059619
:10351000FEF780FF002818BFFDF70EFA20680E9610
:10352000A84201D010B070BD41F21800C4F20200F0
:10353000016841F00401016000680CA900F004007A
:103540000B900B9840200C9002200D900F9005F5E9
:103550008230FDF7AFFE10B070BD000080B540F2C4
:103560009C1043F60001C2F20000C4F201010023E6
:103570004FF00C0C4FF4E13280E80E00C0E9033349
:10358000C0E905C3C361FFF715FC002808BF80BD73
:10359000BDE88040FDF7D0B9FEE70000FEE700007F
:1035A0007047000070470000FEF770B970470000D8
:1035B00040F25410C2F20000FEF782BE406A0021C1
:1035C000C185C184FFF73CB981B090F8421022292F
:1035D00021D183680246B3F5805F09D152F8281FD4
:1035E00052F8183C002B63D003685B680AE000BF08
:1035F00052F8281F13B90369002BF5D003685B68E4
:1036000003F07F030B70116801311160C18D013926
:103610000A04C18502D001B0704700BF0168CA68C2
:1036200022F02002CA60CA6822F48072CA604A6925
:1036300022F001024A61202180F8421000214163FA
:10364000026B012A3CD10163016851E8031F026843
:1036500021F0100142E80313DBB1016851E8031FB8
:10366000026821F0100142E8031393B1016851E8A8
:10367000031F026821F0100142E803134BB10168F7
:1036800051E8031F026821F0100142E80313002BE8
:10369000DAD101680A68D20606D5002200920A68CB
:1036A0000092496800910099818D01B0FFF7C6B87A
:1036B000026852686FF35F2221F8022B8162A5E74E
:1036C00001B0FFF72FBC000040F29C10C2F20000D6
:1036D000FFF7B8B8FEE70000F0B581B000F098F849
:1036E00040F24005C2F2000540F248062878C2F2D6
:1036F0000006317840F23C070328C2F2000709D1E6
:10370000B1FA81F04009307000200029287047D0BC
:1037100016E000BFA1B1022830D0012840D138689E
:103720004FF07E51FCF710FD0021C4F24821044601
:10373000FCF7E2FD00281CBF0024C4F248242CE062
:1037400040F2E414C2F20004204600F06BFA45F6A1
:103750003031C0F60001204600F03AFBD6E90423E0
:1037600006F1180523A1284601F044FD204600215A
:1037700014222B4600F0E6FA282420E038680021C5
:10378000CBF68071FCF7E0FC4FF081410446FCF77A
:10379000A5FD002818BF4FF0814400203C60287030
:1037A00040F2E414C2F20004204600F03BFA45F671
:1037B0003031C0F60001204600F00AFB14243868BE
:1037C000FCF7D0FD06F1180502460B460DA1284670
:1037D00001F010FD40F2E416C2F20006304600216E
:1037E00022462B4600F0AEFA304601B0BDE8F0406C
:1037F00000F0E4BA4C696768743A20252E316620DF
:10380000560000005468723A20252E31662056007A
:1038100010B540F20C04C2F200042068A188FDF744
:1038200051FEE179032939D8DFE801F002060A14D4
:10383000A0BB01202FE000BF30B30020E0712DE0DD
:1038400090B10020E071A07940F24001C2F2000185
:10385000087023E010B340F240010020C2F20001E2
:10386000E0712081488019E040F24000C2F200007F
:10387000218942780131218182B189B205290DD394
:10388000A179017008E000BF2089013081B2814236
:10389000208103D10220E07100202081E068218A8C
:1038A000FDF710FEE17C03293AD8DFE801F00307B9
:1038B0000B1500BFA0BB01202FE000BF30B30020DC
:1038C000E0742DE090B10020E074A07C40F2400153
:1038D000C2F20001087023E010B340F24001002062
:1038E000C2F20001E074A082488019E040F240007A
:1038F000C2F20000A18A42780131A18282B189B26C
:1039000005290DD3A17C017008E000BFA08A013019
:1039100081B28142A08203D10220E0740020A08203
:10392000A069A18BFDF7CEFDE17F03293AD8DFE83E
:1039300001F003070B1500BFA0BB01202FE000BF63
:1039400030B30020E0772DE090B10020E077A07F39
:1039500040F24001C2F20001087023E010B340F2CF
:1039600040010020C2F20001E0772084488019E085
:1039700040F24000C2F20000218C427801312184E3
:1039800082B189B205290DD3A17F017008E000BF83
:10399000208C013081B28142208403D10220E07763
:1039A00000202084606A218DFDF78CFD94F82B1097
:1039B00003295BD8DFE801F0020C121E002818BFB3
:1039C00010BD012084F82B000020A0854EE000BF30
:1039D000C0B3002084F82B0010BD00BFB0B10020A0
:1039E00084F82B0040F24000C2F200000421017074
:1039F00010BD00BFD0B340F240010020C2F2000170
:103A000084F82B00A085488010BD00BFA08D4EF625
:103A10005F22411C88B29042A1851BD940F2400030
:103A2000C2F20000418801318AB2B2F5167F4180AE
:103A30001CD30521017000214180032084F82B0054
:103A400010BD00BFA08D013081B28142A0850DD193
:103A50000220B7E740F24001C2F200014A782AB1E1
:103A6000052803D394F82A000870ADE710BD0000C4
:103A700040F25411C2F20001096848637047000027
:103A8000B0B540F2A004C2F200042046FDF7DAFA15
:103A900020460A21FDF7A2F940F24804C2F20004D0
:103AA000C0B940F2A000C2F20000FDF70BF8FCF72D
:103AB0004CFC4AF20003C4F274030022C4E9020180
:103AC000FCF79AFB0023C3F630730022FCF794FB4B
:103AD000C4E9040140F2A000C2F20000FDF718FBA7
:103AE00040F23C00C2F20000006865692469FCF7FE
:103AF00039FC02460B4620462946FCF70BFC002801
:103B000018BF4FF4E170BDE8B040FFF7B1BF00004F
:103B100094B0FDF7C9FE00240120CDE90F44CDE9A2
:103B20000D440A900E904FF4E0104FF480310225BE
:103B300013900AA80494CDE90244CDE90B14CDE911
:103B40001151FEF761F928B1EFF3108072B600BF92
:103B5000FEE700BF0F20CDE905054FF48060CDE9F9
:103B6000080405A802210794FEF744F820B1EFF3FA
:103B7000108072B6FEE700BF022001904FF40040B3
:103B8000039001A8FDF7B4FF20B1EFF3108072B6E7
:103B9000FEE700BFFFF732FCFFF7D8FBFFF75EFC44
:103BA000FFF77EFCFFF7DAFCFFF7FCFB40F2541056
:103BB000C2F200000021FEF7CFFD6420FDF766FB96
:103BC00040F2E414C2F20004204600F00FF8642032
:103BD000FDF75CFB204600F009F86420FDF756FB7A
:103BE000FFF77AFDFFF74CFFFAE7000010B545F646
:103BF000243144F6513245F28D03C0F60001C0F67F
:103C00000002C0F60003044600F086F9204600F0EA
:103C100047FF2046002100F04FFF2046BDE810403E
:103C2000AFF3008080B5016890F83820097C406BC4
:103C30005143C900FCF77DFA80BD000070B582B029
:103C4000002B7CD090F88CC0BCF1000F77D0DDF851
:103C500018C0022B08D3BCF1030F39D0BCF1020FFE
:103C600002D1C91A013102E05FEACC7C32D1B0F84E
:103C70004CC0944563D8B0F84EC094455FD9B0F8B5
:103C800048C0B0F84AE08CB2E5186346AEB274455D
:103C900038BF0B46AE4208BF0B4699B274452B465F
:103CA00038BFAEF10103AE4208BF3346714546D27C
:103CB0009BB2634543D9614588BF8C46734538BF85
:103CC0009E46AEEB0C034FF0000E614631E000BFA4
:103CD000D21A0132B0F848608E4230D8B0F84A604B
:103CE0008E422CD9B0F84CC0B0F84EE094B2E51832
:103CF0006346AEB2744538BF1346AE4208BF1346A2
:103D00009AB274452B4638BFAEF10103AE4208BFEC
:103D10003346724513D29BB2634510D9624588BFC2
:103D20009446734538BF9E46AEEB0C034FF0010E30
:103D30006246066B9BB2B668CDF800E0B04702B0B1
:103D400070BD000044F6013CC0F6000CC0F804C091
:103D500000F044B910B5B0F84E40DDF808C0B0F836
:103D60004CE0944206D962450AD8E64524BF0020BB
:103D700010BD05E062454FF000021DD9E6451BD29B
:103D8000B0F84A20B0F848008A420BD90022994284
:103D90004FF0000188BF0121984238BF012241EA5B
:103DA000020010BD002299424FF0000188BF01219E
:103DB000984238BF01220A40104610BD10B5044693
:103DC00000F0CCFD2046BDE8104000F06FBE0000C2
:103DD0002DE9F04F81B00446806D88425DD0A16529
:103DE00008780D4684F87400487884F8750088785F
:103DF00084F87600C87884F87700087984F8780029
:103E0000487984F87900887984F87A00C87984F848
:103E10007B00087A84F87C00487A84F87D0091F968
:103E20000A9084F87E90C87A84F87F0091F90C801B
:103E3000084684F8808091F90D7084F8817091F9BA
:103E40000E6084F8826091F90FB084F883B091F924
:103E500010A0112184F884A000F036FCA4F886009C
:103E60002846132100F030FCA4F8880028461521CC
:103E700000F02AFCA4F88A0094F88D0084F88E7073
:103E800084F88F6048B101280AD15F45B8BF84F833
:103E90008EB05645C8BF84F88FA001B0BDE8F08F42
:103EA00008EB0900B842C8BF84F88E004645C246F8
:103EB000F3DD84F88FA001B0BDE8F08F44F2CD01AE
:103EC000C0F60001C1657047B0B50446049884F897
:103ED000382040F20112A4F8922002680025C4E9BB
:103EE0000B302046A56584F8395084F86D5084F86D
:103EF000915084F88D50616390470020CFF6FF7099
:103F0000216B206560654968204688472046FFF799
:103F1000D5FF84F87050B0BDB0B582B09C46134652
:103F20000C4644F6597144F62152C0F60001C0F621
:103F300000020546CDF800C000F0C4FD0DF10700F9
:103F400000F004FD9DF8072044F2D1630146C0F65D
:103F5000000328460094FFF7B7FF02B0B0BD000091
:103F6000022B07D0012B09D0002B14BF10440844AA
:103F700080B27047401A80B2704700BF801A80B28A
:103F800070470000022B07D0012B09D0002B14BF73
:103F9000401A104480B27047801A80B2704700BF48
:103FA000084480B27047000010B582B0B0F83EE01F
:103FB000DDF810C0C46AA2EB0E0292B2CDF800C0C8
:103FC000A04702B010BD000080B582B0DDF810C07F
:103FD000CDF800C0FFF7E8FF02B080BD2DE9F04F3B
:103FE00081B01F4692460D4606464FF6FF7801F017
:103FF000FDF8726839783046904740455ED0A8F1A8
:1040000001017C1C4FF000091FFA81FB08E000BF92
:104010008144726814F8011B3046904740454FD0E8
:1040200087B25F45F5D096F870205046032A29469E
:104030001DD8DFE802F003090F1700BFF16D30460D
:1040400088475044294612E0F16D30468847291AC6
:104050000CE000BFF16D30468847AAEB000029460E
:1040600005E000BFF16D3046884741195046A6F87B
:104070006410A6F866003046394600F0BFFA48B131
:104080000146304600F024F896F87010032906D94E
:10409000BEE700BF002096F870100329B8D8DFE80B
:1040A00001F007090B0300BFAAEB000AB0E700BF4D
:1040B0000544ADE78244ABE72D1AA9E74FF00009AC
:1040C0001FFA89F001B0BDE8F08F000000207047B2
:1040D0002DE9F04F8BB08246016600208AF86C0013
:1040E0009AF878000B784FF0FF32082831BF054668
:1040F0000131CAF86010A0F1080502FA00F023EAC5
:1041000000009AF879308AF86C508AF86A005F19D2
:104110000E78FCB2082CECB226FA04F60AD34C1C3A
:10412000CAF86040C5F108054978EDB2A9400E43D0
:10413000083F21469A409AF8923026EA02020392FA
:104140008AF86B209AF87A208AF86E30B3FA83F3F3
:104150005B098AF86C708AF86F30BC180B78E6B28D
:10416000082EFEB223FA06FC0BD34E1CCAF8606080
:10417000C7F108074978FFB2B9404CEA010C083C86
:1041800031469AF87B708AF86C403D190E78EBB294
:10419000082BE3B226FA03F60AD3C4F108034C1C39
:1041A000CAF860404978DBB299400E43083D214689
:1041B0004FFA80F99AF87C008AF86C5002902844F3
:1041C0000B78C4B2082CECB223FA04F409D3C5F17D
:1041D00008034D1CCAF860504978DBB299400C4383
:1041E0000838B9F1010F8AF86C00C0F2F781511E4E
:1041F0004FF0FF30C9B27B1E00FA02F200FA01F163
:10420000B840DBB201272CEA020207FA03F3039F4E
:10421000114426EA00023A449A1A9AF87060BAF8F1
:10422000640057B24DB229463A463346FFF798FE2E
:104230008046BAF8660029463A463346AAF86480B2
:10424000FFF7A0FE032EAAF866000BD8DFE806F001
:10425000020E1A265FFA89F108EB0103039949B2AD
:10426000014424E04346014621E000BF039908F1E0
:10427000010349B2A8EB010101F101085FFA89F1DC
:10428000014414E05FFA89F1A8EB010108F1010390
:1042900001F10108039949B206E000BF039949B250
:1042A00008EB01035FFA89F1421A411C501C8FB2DE
:1042B0001FFA88F182B29BB250460097FFF74AFD81
:1042C000002800F08B819AF86C20DAF860604FF0DB
:1042D000000E4FF00009AAF868E0049407E000BF60
:1042E00003984FFA8EF140B2814280F273819AF8BE
:1042F00076C0337802EB0C07D0B2FDB2082D23FA5A
:1043000000F30AD3751CCAF86050C2F10802707835
:10431000D2B290400343083F2E469AF877208AF89D
:104320006C70D1193578CCB2082CFCB225FA04F5A2
:1043300009D3741CCAF86040C7F108077078FFB24F
:10434000B840054308394FF0FF3404FA0CF08343BA
:1043500004FA02F085438AF86C100593079505E08E
:10436000DDE90443C8078AF86C20B9D09AF86D10CB
:104370009AF86A00A0EB0904CDF828E031B1D9B26F
:10438000E2B28A4232D91C4693E000BF0A999AF8F9
:104390007050BAF866004FFA89F64FB25FFA83F8A8
:1043A00031463A462B465FFA84FBFFF7EBFDBAF83D
:1043B00064100990084631463A462B46FFF7D0FD77
:1043C00001465B469AF86F00D84538BF4346099AC4
:1043D0008AF89200504656460095FFF72FFCC345D9
:1043E00020D9059C079DB24663E000BF1C1B0A9ABA
:1043F000E1B2814202F1010258D300BF241AE1B2B6
:1044000081424DD3241AE1B281424BD3241AE1B246
:10441000814249D3241AE1B2814202F10402EDD271
:1044200044E000BF05980A9D001BB24605E000BFAE
:10443000E0B2B842A4EB07002CD304469AF86D0012
:104440009AF86A70002805F10105F1D19AF8709088
:10445000BAF866006EB2002132464B46FFF792FD75
:10446000BAF8641080460846002132464B46FFF7F2
:1044700077FD01469AF86F00E3B2BB4228BF3B4686
:104480008AF8920050464246CDF80090FFF7D6FBDE
:10449000CEE700BF0A95079D4FF0000909E000BF75
:1044A000013203E0023201E0033200BF4FF00009A5
:1044B0000A929AF86A0004EB0902801A0A995FFAD4
:1044C00080F95FFA85FB9AF870404E468AF86820BA
:1044D0008AF869100690CB4538BF5E46BAF864008A
:1044E00057B24DB2BAF86680099239462A46234639
:1044F000FFF736FD0890404639462A462346FFF727
:1045000041FD9AF86E1002468AF8921008995046BA
:1045100033460094FFF792FBD94503D907988346A9
:10452000054634E0DDE906010A9F081A01379AF8CA
:104530006A609AF87050BAF8661083465FFA80F89D
:10454000BAF864007CB2B1460991002122462B469C
:10455000B04538BFC146FFF703FD0A900998002116
:1045600022462B46FFF70EFD9AF86E1002468AF897
:1045700092100A9950464B460095FFF75FFBB045F5
:10458000ABEB0600D2D2079D0020CDE909070998C0
:10459000DDF828E00BEB0009DAF860609AF86C307F
:1045A0008AF868908AF869E031785A1CD7B2082FE7
:1045B00021FA03F1FFF4D4AE701CCAF86000C3F115
:1045C00008027778D2B207FA02F21143DA1F0646E0
:1045D000C6E600BF9AF86E008AF89200029A4FF081
:1045E000FF3000FA02F1013AD2B224EA0101904010
:1045F000084440B20BB0BDE8F08F000070B50C4627
:10460000816DFF2C01F1170104D8612C36D3B0F86D
:10461000880037E0B0F88A000E1835462846002199
:1046200000F052F806442846022100F04DF8A0425E
:1046300005F10405F2D3308840BA00283ED0A042EC
:104640003ED0B078315A49BAC1B3A142064437D0FE
:10465000B078315A49BA89B3A142064430D0B07813
:10466000315A49BA51B3A142064429D0B178705A9F
:104670000E4440BA0028E2D120E000BF412C02D312
:10468000B0F8860001444878C0B10A78A24219D037
:104690000144487890B10A78A24213D00144487886
:1046A00060B10A78A2420DD00144487830B10A784E
:1046B000A24207D0014448780028E6D1002070BD0E
:1046C000F01C70BD881C70BD405A00BA000C7047C9
:1046D0002DE9F04102F00704012690F89250A6401F
:1046E000022DB44628BF4FF0000CB5F1010E18BFE3
:1046F000B646056822F007062D7C476B7543DDF84A
:104700001880ADB23D44B8F1000F294418D013F021
:104710000306A3F1010500F0AB800C7844EA0C0419
:1047200084EA0E07541C14F007040F701ED04FEAE1
:104730004C0C4FEA4E0E012E25D12B4698E000BFBF
:1047400013F00302A3F101003AD00C78012A44EAE5
:104750000C0484EA0E050C4604F8015B26D10346DE
:10476000214680B203282FD2EEE000BF478F4FF0E2
:104770000108394490F89270012F98BFC44618BFC1
:10478000C646012ED9D00C7844EA0C0484EA0E0700
:10479000941C14F007040F7036D04FEA4C0C4FEA0B
:1047A0004E0E022E3DD1023B62E000BF4C78022A41
:1047B00044EA0C0484EA0E044C7043D10231023BFB
:1047C00080B20328C0F0C080081F00BF10F8041F8B
:1047D000043B41EA0C0181EA0E01017041788278C4
:1047E00041EA0C0181EA0E01C478417042EA0C01F1
:1047F00081EA0E01817044EA0C0181EA0E011A047B
:10480000C170E3D1A0E000BF478F4FF001083944E9
:1048100090F89270012F98BFC44618BFC646022E6A
:10482000C1D00C78033244EA0C0484EA0E040C7004
:1048300012F00704A3F1030310D04FEA4C0C4FEA27
:104840004E0E15E08A78033B42EA0C0282EA0E0221
:104850008A70033180B20328B6D275E0428F0126F8
:10486000114490F89220012A98BFB44618BFB6466A
:10487000AAB2032A38BFBDE8F08101220CE000BFD4
:10488000458F90F892602944012E98BF944618BF36
:104890009646043B1D0457D00D78661C45EA0C056E
:1048A00085EA0E0576070D7004D04FEA4C0C4FEAEE
:1048B0004E0E08E0458F90F892602944012E98BF73
:1048C000944618BF96460D78A61C45EA0C0585EA65
:1048D0000E0576070D7005D04FEA4C0C4FEA4E0ED0
:1048E00009E000BF458F90F892602944012E98BFDF
:1048F000944618BF96460D78E61C45EA0C0585EAF5
:104900000E0576070D7005D04FEA4C0C4FEA4E0E9F
:1049100009E000BF458F90F892602944012E98BFAE
:10492000944618BF96460D78043445EA0C0585EA8E
:104930000E0514F007040D70A2D04FEA4C0C4FEA9C
:104940004E0E043B1D04A7D1BDE8F081014640F2A4
:1049500078200822C2F200000A7070472DE9F04F5B
:1049600081B0834690F8388000689BF8396090F8F1
:104970001190002501274FF6F87A00BFDBF8000000
:10498000F2B2037CDBF8340005FB03F101EA0A0113
:10499000441858460021009400F06EF8474506D2AE
:1049A0000136F0B20835484507F10107E6D301B0FA
:1049B000BDE8F08FB0B590F838100568CB0083875C
:1049C00095F810C090F8393095F811E04FEACC0C0A
:1049D000DA005C18A0F83AC0C287744588BFAEEB15
:1049E00003011944C900A0F84020A0F842106969E9
:1049F0004164B0BD70B582B00446216CB0F844008B
:104A0000E164B4F85010B4F85420B4F85230B4F85B
:104A100056500026A4F84A002046A4F848600095A5
:104A2000FFF798F920B3B4F84810B4F85000012209
:104A3000814284F88C2038BFA4F84800B4F84A10AA
:104A4000B4F85200814288BFA4F84A00B4F84C1070
:104A5000B4F85400814238BFA4F84C00B4F84E10AA
:104A6000B4F85600814288BFA4F84E0002B070BD71
:104A700084F88C6002B070BD80B582B0DDF810C0E3
:104A8000D0F808E08DF805108DF806208DF8043078
:104A90006B460F210122CDF800C0F04702B080BD67
:104AA000D0F808C00A21002200236047D0F808C0CF
:104AB0001021002200236047D0F808C00A460B21CD
:104AC0000023604710B54FF47F44DDF808C0A0F81C
:104AD0002340FF244FF0000E80F8284000F1080426
:104AE000C0F800E080F826E084E80E50BDE81040F1
:104AF000AFF30080D0F808C00921002200236047EE
:104B000000294FF6FF7008BF70470A2918BF0846F2
:104B100070470000D0F810C0192100220023604720
:104B200080B582B08DF807100DF10702012100F069
:104B300003F802B080BD0000D0F810C013460A464A
:104B400017216047D0F810C01821002200236047C9
:104B500070B582B014390C294FF000004AD8DFE854
:104B600001F00749490D2933494949494949090093
:104B7000FEF774FC012002B070BD00BF002AF9D01E
:104B800040F2786CC2F2000C9CF800E012F00300D6
:104B900032D01C4614F8016B40F279650EF1010128
:104BA000C2F20005012805F80E6027D1501E2346E9
:104BB00037E000BF40F27860C2F2000000210170CF
:104BC000012002B070BD00BF40F27860C2F2000068
:104BD000037840F2001040F279624FF47A76C2F224
:104BE0000000C2F2000278210096FCF72FFD002899
:104BF000C0D0002002B070BD104613E05E780EF108
:104C00000204C9B202286E5404D10233901E214618
:104C1000A64607E09878E6B20EF10301A8550333E3
:104C2000D01E8E46042A19D31A1F40F27963C2F2AD
:104C30000003714612F8046FCCB21E554D1C567815
:104C4000EDB25E558C1C9678E4B21E55CD1CD6781C
:104C500004380431EDB204065E55EBD18CF8001037
:104C6000012002B070BD0000D0F80CC01921002254
:104C700000236047D0F80CC00A4616210023604785
:104C8000D0F80CC00A46152100236047D0F80CC0AC
:104C900013460A4617216047F0B581B00E46044618
:104CA0000DF103050AE000BFA1F11800022817D298
:104CB000E668204600220023B0473E46374617F8F4
:104CC000011B1729F0DCA1F11500022814D272781B
:104CD000E768204600238DF80320B8470236EDE749
:104CE000FE2915D17278204629218DF8032000F085
:104CF00061FA0236E2E700BF172909D17078012175
:104D00008DF8030020462A46FFF7C0FF0236D5E79C
:104D100001B0F0BDD0F80CC018210022002360477C
:104D2000F0B581B0143905292CD804461E46154625
:104D3000DFE801F0042C16461EBE00BF94F82400E4
:104D40001421FF2804BF782084F82400D4F810C070
:104D500020462A46334601B0BDE8F040604700BF18
:104D600020462946FFF7DCFE012001B0F0BD00BF60
:104D700040F27970C2F2000000210170012001B000
:104D8000F0BD00BF002001B0F0BD00BF40F2797659
:104D9000C2F200063078012802D12046FFF7BAFEA1
:104DA0002046FFF7CFFE20460021FFF7B9FE204640
:104DB0002946FFF7B5FE0120307001B0F0BD00BFFD
:104DC00040F27977C2F200073878012802D12046F4
:104DD000FFF7A0FE192D7DD320461821324600F0A2
:104DE000EDF9A5F11800C1B2192906F118026FD327
:104DF0002046182100F0E2F9A5F13000C1B21929CE
:104E000006F1300264D32046182100F0D7F9A5F14D
:104E10004800C1B2192906F1480259D32046182189
:104E200000F0CCF9A5F16000C1B2192906F16002C9
:104E30004ED32046182100F0C1F9A5F17800C1B287
:104E4000192906F1780243D32046182100F0B6F95B
:104E500005F17000C1B2192906F1900238D320463D
:104E6000182100F0ABF905F15800C1B2192906F17B
:104E7000A8022DD32046182100F0A0F905F140002A
:104E8000C1B2192906F1C00222D32046182100F030
:104E900095F905F12800C1B2192906F1D80217D3F6
:104EA0002046182100F08AF91035F03612E000BFD4
:104EB00040F27975C2F200052878012802D1204617
:104EC000FFF728FE00202870012001B0F0BD00BFD0
:104ED00005461646E9B22046324600F06FF900203A
:104EE0003870012001B0F0BD10B5D0F814C02821F1
:104EF000002200230446E047D4F80CC020461421C9
:104F000000220023E04720464B21012200F052F905
:104F1000206829210279204600F04CF920464B21D7
:104F2000002200F047F9206829210279204600F08C
:104F300041F920464B21012200F03CF9206829214B
:104F400042792046BDE8104000F034B98A7C016007
:104F500080F8222070470000B0B50D46044600F0EE
:104F60001FF808B10120B0BD092D0DD00A2D15D1B3
:104F70002046FFF7B9FF46F2D341C0F600012046B4
:104F8000FFF78AFE0120B0BD46F21451C0F60001C1
:104F90002046FFF7DBFF0120B0BD00BF0020B0BD01
:104FA0002DE9F0410B39044604294FF0000088BF79
:104FB000BDE8F0811546DFE801F0035B111F2B000F
:104FC0002046002D07BF46F20851C0F6000146F208
:104FD0000D51C0F60001FFF75FFE48E0002D49D0FB
:104FE00046F2CC41C0F600012046FFF755FE20688E
:104FF000C07C84F822003AE02046FFF78BFE204672
:105000008121FFF73DFE20462946FFF733FE2BE0C6
:1050100020461E46FFF77EFE707994F8221001EBC1
:10502000C007204640215FFA87F8FFF729FE4FEAC4
:10503000181000F110012046FFF722FE07F00F01C3
:105040002046FFF717FEB07940F0B0012046FFF789
:1050500011FE00BF30793268C000C1B22046FFF7B0
:1050600015FE013D2806F5D12046FFF7FDFD012084
:10507000BDE8F08146F2C541C0F600012046FFF7C9
:105080000BFE2068807C84F82200F0E780B5293987
:105090002A2900F27380DFE801F01D236D711A7177
:1050A00071717171717171717171717171717171F0
:1050B00071717171717171717171717171737F71D0
:1050C00071171717170000BF002180F82710012063
:1050D00080BD00BF0120FCF7D9F8012080BD00BFD2
:1050E000002000BF00BF00BF00BF00BF00BF00BF67
:1050F00000BF00BF00BF00BF00BF00BF00BF00BFB8
:1051000000BF00BF00BF00BF00BF00BF00BF00BFA7
:1051100000BF00BF00BF00BF00BF00BF00BF00BF97
:1051200000BF00BF00BF00BF00BF00BF00BF00BF87
:1051300000BF00BF00BF00BF00BF00BF00BF00BF77
:1051400000BF00BF00BF00BF00BF00BF00BF00BF67
:1051500000BF00BF00BF00BF00BF00BF00BF00BF57
:1051600040F03F0100BFB1F59F7F00F1400000BF5C
:10517000B8D9ACE7012000BF80BD00BF0121A4E782
:1051800040F60040C4F201004FF4806162B9002291
:10519000FCF79EF9012080BD40F60040002AC4F2D1
:1051A00001004FF40061F2D00122FCF791F90120D7
:1051B00080BD0000D0F814C000236047F0B581B076
:1051C00017460D460646FFF7BDFC30464021FFF767
:1051D000A7FC3469304617212A463B46A047304693
:1051E00001B0BDE8F040FFF795BC0000002180F859
:1051F000261070470FB4084B10B504A902AA0398F3
:1052000000F0DEF8044602A9002000F070FC204601
:1052100010BC5DF814FB0000EF5A000802E008C85B
:10522000121F08C1002AFAD170477047002001E020
:1052300001C1121F002AFBD1704700002DE9FF5F5A
:1052400082B00021DDE90430020DDDF840B00343F7
:1052500018D044F61050A2F2FF32424315141198B0
:1052600001281FD0A5EB0B00401C5FEA000A4FF09D
:1052700000064E4FDFF83891B046504615D5CAF1BA
:10528000000413E0119801244AA3012801D16FEA18
:105290000B010298119AC0E90031C0E9024206B040
:1052A000BDE8F09FCBF10000DFE704460021404A53
:1052B000491842EB0450CDE9001012E0E00707D096
:1052C00032463B4640464946FAF796FF80468946B5
:1052D00032463B4610461946FAF78EFF06460F4601
:1052E0006410002CEAD1DDE90401DDE90023BAF104
:1052F000000F06DAFAF780FF42464B46FAF77CFFCA
:1053000005E0FBF7C4F942464B46FBF7C0F90446FB
:105310000E460022284BFBF741FA03D84FF0FF302E
:10532000014607E00022254B20463146FBF708F9ED
:10533000FBF71CFA102409E0002C0ADB0A220023E8
:10534000FBF739F8039B30321A55641E50EA01020C
:10535000F2D1641C039AC4F111031444119A012A76
:1053600003D0012208430DD10AE0084304D00020F5
:105370004FF0110B119072E7A3EB0B056D1E0DE0C2
:105380005B4504DD4FF0000205F1010504E003DA9E
:105390004FF00002A5F10105002AECD00298119906
:1053A000C0E90231C0E9004579E70000000014407F
:1053B0000000F03F300000000000F0430000E03F3C
:1053C0002DE9FF4F95B09B468946064600250FE222
:1053D000252877D100242746F84A0121059400E0CA
:1053E000044316F8013F203B01FA03F01042F7D1C5
:1053F00030782A2811D06FF02F033078A0F13002D6
:10540000092A16D8059A44F0020402EB820203EB43
:1054100042021044761C0590EFE759F8042B0592E0
:10542000002A03DA504244F40054059044F0020488
:10543000761C30782E2816D116F8010F44F004049B
:105440002A280DD06FF02F023078A0F13003092BFD
:1054500009D807EB870302EB4303C718761CF3E771
:1054600059F8047B761C30786C280FD006DC4C2869
:1054700017D068280DD06A2814D104E0742810D001
:105480007A280FD10DE044F400140AE044F48014AB
:1054900001E044F440147278824202D104F5801491
:1054A000761C761C307866280BD013DC582877D011
:1054B00009DC002875D04528F6D04628F4D04728C6
:1054C0001AD19DE118E0632835D0642879D0652889
:1054D00012D195E1702873D008DC6728F1D06928D3
:1054E0006FD06E280DD06F2806D1B5E073282CD070
:1054F000752875D0782874D05A46179990476D1C36
:1055000075E1C4F30250022809D003280DD0D9F860
:10551000001004280DD00D6009F1040967E1D9F8E5
:105520000010EA17C1E90052F6E7D9F800100D8023
:10553000F2E70D70F0E719F8041B8DF80010002059
:105540008DF80100EA46012003E059F804AB4FF062
:10555000FF3061074FF0000102D40DE008F10101B6
:105560008846B9420FDA8045F8DB1AF8081000299E
:10557000F4D108E008F1010188468142FADB1AF80B
:1055800008100029F6D105985B46A0EB08072146D4
:105590003846179A00F094FA284400EB080507E013
:1055A0004DE029E10DE01AF8010B5A461799904792
:1055B000B8F10108F7D25B4621463846179A13E145
:1055C00042E00A220092C4F302524FF0000A022A7B
:1055D00008D059F804CB032A4FEAEC710AD00DE049
:1055E00029E02AE009F1070121F00702F2E802C1EF
:1055F000914609E00FFA8CFC4FEAEC71042A03D1C2
:105600004FFA8CFC4FEAEC71002907DA0A460021B8
:10561000DCF1000C61EB02012D2202E0220504D531
:105620002B228DF80420012203E0E20701D0202282
:10563000F7E7904659E00A2102E010220DE0102120
:105640004FF0000A00910BE010224FF0000A44F0E6
:1056500004040827009203E008224FF0000A009299
:10566000C4F30252022A05D059F804CB0021032AC0
:1056700008D009E009F1070121F00702F2E802C1B0
:10568000914605E01FFA8CFC042A01D10CF0FF0CB6
:105690004FF00008220728D5702806D0009B83F021
:1056A000100353EA0A0305D00EE040228DF80420CF
:1056B000012208E05CEA010206D030228DF80420C5
:1056C0008DF8050002229046009B83F0080353EA00
:1056D0000A030AD15CEA010201D1620705D5302232
:1056E0008DF804204FF001087F1E582804D034A004
:1056F00003900EA802900DE036A0F9E753466046ED
:10570000009AFAF758FE84460398825C0298401E7D
:10571000029002705CEA0100F0D1029806A9081A12
:1057200000F1200A600702D524F4803400E001274C
:10573000574502DDA7EB0A0000E0002000EB0A015C
:10574000009005984144401A0590E00306D45B465A
:105750002146179A059800F0B3F90544002706E0A2
:1057600001A85A46C05D179990476D1C7F1C47459C
:10577000F6DBE0030CD55B462146179A059800F04E
:105780009FF9054404E030205A46179990476D1C54
:105790000099481E00900029F5DC08E00298029963
:1057A0005A460078491C0291179990476D1CBAF12E
:1057B0000001AAF1010AF1DC65E1000009280100FD
:1057C0003031323334353637383961626364656677
:1057D0000000000030313233343536373839414239
:1057E000434445460000000000F058F90544761C8B
:1057F000307800287FF4ECAD19B02846BDE8F08F72
:10580000620700D4062709F1070222F0070CFCE822
:105810000223E14603F000485FEA080C02D00FF2D1
:10582000702C0DE05FEA045C02D50FF2682C07E0F3
:105830005FEAC47C02D00FF2602C01E0AFF2700C82
:105840004FF0FF3823F00043CDF850C065280CD04E
:1058500006DC452809D046281DD047283DD13DE02B
:10586000662818D067287ED138E00021112F01DB8F
:10587000112000E0781CCDE9000106A90EA8FFF771
:10588000DDFCDDE90F010E9A03910021009207F182
:10589000010A04914DE04FF000400097CDE901105E
:1058A00006A90EA8FFF7CAFCDDE90F0203920E9BC2
:1058B00011990022DDF80CA00093049211B9791C13
:1058C00000EB010AB7EB0A0004D4C0F1FF3007F186
:1058D000010A0490AAEB0700019044E0012F00DACE
:1058E00001270021112F01DD112000E03846CDE90C
:1058F000000106A90EA8FFF7A1FCDDE90F010E9A31
:105900000391002104910092BA4621070CD4039917
:10591000514500DA8A46BAF1010F05DD009AAAF175
:105920000101515C302908D0B84202DA10F1040FAD
:1059300006DA0121CDE9011015E0AAF10101E9E73C
:10594000002805DC049901440491AAEB000102E05F
:10595000411C514500DD8A460499401A401C0190C3
:105960004FF000400290200704D40198504501DB1D
:10597000CDF8048000208DF84F0002980DF14F07FC
:10598000B0F1004F25D02B200E9002984FF0020866
:1059900000280CDA404202902D200E9007E00A21E8
:1059A0000298FAF7F2FC3031029007F8011DB8F1C5
:1059B0000001A8F10108F2DC02980028EFD1791E5D
:1059C0000E980870307800F0200040F0450007F88D
:1059D000020D12A8C01B00F107081498007800B14E
:1059E000012000EB0A01019801EBE07105984144A8
:1059F000401A401E0590E00306D45B462146179AE4
:105A0000059800F05DF805441498007818B15A46DE
:105A1000179990476D1CE00324D55B462146179AE1
:105A2000059800F04DF805441CE00498002807DBB9
:105A3000DDE90301884203DD0098405C179901E02D
:105A4000179930205A469047049805F10105401CEB
:105A500004900198401E019004D12E205A461799B7
:105A600090476D1CBAF10001AAF1010ADDDC05E0E6
:105A700017F8010B5A46179990476D1CB8F10001B1
:105A8000A8F10108F4DC5B462146179A0598ABE6BD
:105A90002D0000002B000000200000002DE9F04147
:105AA000044600251E461746880404D405E03946FE
:105AB0002020B0476D1C641EF9D52846BDE8F08152
:105AC0002DE9F041044600251E469046C80301D545
:105AD000302700E02027880404D505E041463846F9
